Component: ARM Compiler 5.05 update 1 (build 106) Tool: armlink [4d0efa]

==============================================================================

Section Cross References

    startup_stm32f407xx.o(RESET) refers to startup_stm32f407xx.o(STACK) for __initial_sp
    startup_stm32f407xx.o(RESET) refers to startup_stm32f407xx.o(.text) for Reset_Handler
    startup_stm32f407xx.o(RESET) refers to stm32f4xx_it.o(i.NMI_Handler) for NMI_Handler
    startup_stm32f407xx.o(RESET) refers to stm32f4xx_it.o(i.HardFault_Handler) for HardFault_Handler
    startup_stm32f407xx.o(RESET) refers to stm32f4xx_it.o(i.MemManage_Handler) for MemManage_Handler
    startup_stm32f407xx.o(RESET) refers to stm32f4xx_it.o(i.BusFault_Handler) for BusFault_Handler
    startup_stm32f407xx.o(RESET) refers to stm32f4xx_it.o(i.UsageFault_Handler) for UsageFault_Handler
    startup_stm32f407xx.o(RESET) refers to stm32f4xx_it.o(i.SVC_Handler) for SVC_Handler
    startup_stm32f407xx.o(RESET) refers to stm32f4xx_it.o(i.DebugMon_Handler) for DebugMon_Handler
    startup_stm32f407xx.o(RESET) refers to stm32f4xx_it.o(i.PendSV_Handler) for PendSV_Handler
    startup_stm32f407xx.o(RESET) refers to stm32f4xx_it.o(i.SysTick_Handler) for SysTick_Handler
    startup_stm32f407xx.o(RESET) refers to stm32f4xx_it.o(i.USART1_IRQHandler) for USART1_IRQHandler
    startup_stm32f407xx.o(RESET) refers to stm32f4xx_it.o(i.TIM6_DAC_IRQHandler) for TIM6_DAC_IRQHandler
    startup_stm32f407xx.o(.text) refers to system_stm32f4xx.o(i.SystemInit) for SystemInit
    startup_stm32f407xx.o(.text) refers to entry.o(.ARM.Collect$$$$00000000) for __main
    main.o(i.SystemClock_Config) refers to memseta.o(.text) for __aeabi_memclr4
    main.o(i.SystemClock_Config) refers to stm32f4xx_hal_rcc.o(i.HAL_RCC_OscConfig) for HAL_RCC_OscConfig
    main.o(i.SystemClock_Config) refers to stm32f4xx_hal_rcc.o(i.HAL_RCC_ClockConfig) for HAL_RCC_ClockConfig
==============================================================================

Removing Unused input sections from the image.

    Removing main.o(.rev16_text), (4 bytes).
    Removing main.o(.revsh_text), (4 bytes).
    Removing main.o(.rrx_text), (6 bytes).
    Removing gpio.o(.rev16_text), (4 bytes).
    Removing gpio.o(.revsh_text), (4 bytes).
    Removing gpio.o(.rrx_text), (6 bytes).
    Removing adc.o(.rev16_text), (4 bytes).
    Removing adc.o(.revsh_text), (4 bytes).
    Removing adc.o(.rrx_text), (6 bytes).
    Removing adc.o(i.HAL_ADC_MspDeInit), (64 bytes).
    Removing fsmc.o(.rev16_text), (4 bytes).
    Removing fsmc.o(.revsh_text), (4 bytes).
    Removing fsmc.o(.rrx_text), (6 bytes).
    Removing fsmc.o(i.HAL_SRAM_MspDeInit), (96 bytes).
    Removing tim.o(.rev16_text), (4 bytes).
    Removing tim.o(.revsh_text), (4 bytes).
    Removing tim.o(.rrx_text), (6 bytes).
    Removing tim.o(i.HAL_TIM_Base_MspDeInit), (36 bytes).
==============================================================================

Image Symbol Table

    Local Symbols

    Symbol Name                              Value     Ov Type        Size  Object(Section)

    ../Core/Src/adc.c                        0x00000000   Number         0  adc.o ABSOLUTE
    ../Core/Src/fsmc.c                       0x00000000   Number         0  fsmc.o ABSOLUTE
    ../Core/Src/gpio.c                       0x00000000   Number         0  gpio.o ABSOLUTE
    ../Core/Src/main.c                       0x00000000   Number         0  main.o ABSOLUTE
    ../Core/Src/stm32f4xx_hal_msp.c          0x00000000   Number         0  stm32f4xx_hal_msp.o ABSOLUTE
    ../Core/Src/stm32f4xx_it.c               0x00000000   Number         0  stm32f4xx_it.o ABSOLUTE
    ../Core/Src/system_stm32f4xx.c           0x00000000   Number         0  system_stm32f4xx.o ABSOLUTE
    ../Core/Src/tim.c                        0x00000000   Number         0  tim.o ABSOLUTE
    ../Core/Src/usart.c                      0x00000000   Number         0  usart.o ABSOLUTE
    ../Drivers/STM32F4xx_HAL_Driver/Src/stm32f4xx_hal.c 0x00000000   Number         0  stm32f4xx_hal.o ABSOLUTE
    ../Drivers/STM32F4xx_HAL_Driver/Src/stm32f4xx_hal_adc.c 0x00000000   Number         0  stm32f4xx_hal_adc.o ABSOLUTE
    ../Drivers/STM32F4xx_HAL_Driver/Src/stm32f4xx_hal_adc_ex.c 0x00000000   Number         0  stm32f4xx_hal_adc_ex.o ABSOLUTE
    ../Drivers/STM32F4xx_HAL_Driver/Src/stm32f4xx_hal_cortex.c 0x00000000   Number         0  stm32f4xx_hal_cortex.o ABSOLUTE
    ../Drivers/STM32F4xx_HAL_Driver/Src/stm32f4xx_hal_dma.c 0x00000000   Number         0  stm32f4xx_hal_dma.o ABSOLUTE
    ../Drivers/STM32F4xx_HAL_Driver/Src/stm32f4xx_hal_dma_ex.c 0x00000000   Number         0  stm32f4xx_hal_dma_ex.o ABSOLUTE
    ../Drivers/STM32F4xx_HAL_Driver/Src/stm32f4xx_hal_exti.c 0x00000000   Number         0  stm32f4xx_hal_exti.o ABSOLUTE
    ../Drivers/STM32F4xx_HAL_Driver/Src/stm32f4xx_hal_flash.c 0x00000000   Number         0  stm32f4xx_hal_flash.o ABSOLUTE
    ../Drivers/STM32F4xx_HAL_Driver/Src/stm32f4xx_hal_flash_ex.c 0x00000000   Number         0  stm32f4xx_hal_flash_ex.o ABSOLUTE
    ../Drivers/STM32F4xx_HAL_Driver/Src/stm32f4xx_hal_flash_ramfunc.c 0x00000000   Number         0  stm32f4xx_hal_flash_ramfunc.o ABSOLUTE
    ../Drivers/STM32F4xx_HAL_Driver/Src/stm32f4xx_hal_gpio.c 0x00000000   Number         0  stm32f4xx_hal_gpio.o ABSOLUTE
    ../Drivers/STM32F4xx_HAL_Driver/Src/stm32f4xx_hal_pwr.c 0x00000000   Number         0  stm32f4xx_hal_pwr.o ABSOLUTE
    ../Drivers/STM32F4xx_HAL_Driver/Src/stm32f4xx_hal_pwr_ex.c 0x00000000   Number         0  stm32f4xx_hal_pwr_ex.o ABSOLUTE
    ../Drivers/STM32F4xx_HAL_Driver/Src/stm32f4xx_hal_rcc.c 0x00000000   Number         0  stm32f4xx_hal_rcc.o ABSOLUTE
    ../Drivers/STM32F4xx_HAL_Driver/Src/stm32f4xx_hal_rcc_ex.c 0x00000000   Number         0  stm32f4xx_hal_rcc_ex.o ABSOLUTE
    ../Drivers/STM32F4xx_HAL_Driver/Src/stm32f4xx_hal_sram.c 0x00000000   Number         0  stm32f4xx_hal_sram.o ABSOLUTE
    ../Drivers/STM32F4xx_HAL_Driver/Src/stm32f4xx_hal_tim.c 0x00000000   Number         0  stm32f4xx_hal_tim.o ABSOLUTE
    ../Drivers/STM32F4xx_HAL_Driver/Src/stm32f4xx_hal_tim_ex.c 0x00000000   Number         0  stm32f4xx_hal_tim_ex.o ABSOLUTE
    ../Drivers/STM32F4xx_HAL_Driver/Src/stm32f4xx_hal_uart.c 0x00000000   Number         0  stm32f4xx_hal_uart.o ABSOLUTE
    ../Drivers/STM32F4xx_HAL_Driver/Src/stm32f4xx_ll_adc.c 0x00000000   Number         0  stm32f4xx_ll_adc.o ABSOLUTE
    ../Drivers/STM32F4xx_HAL_Driver/Src/stm32f4xx_ll_fsmc.c 0x00000000   Number         0  stm32f4xx_ll_fsmc.o ABSOLUTE
    ../clib/../cmprslib/zerorunl2.c          0x00000000   Number         0  __dczerorl2.o ABSOLUTE
    ../clib/microlib/ctype/ctype.c           0x00000000   Number         0  isupper_o.o ABSOLUTE
    ../clib/microlib/ctype/ctype.c           0x00000000   Number         0  iscntrl_o.o ABSOLUTE
    ../clib/microlib/ctype/ctype.c           0x00000000   Number         0  isalpha_o.o ABSOLUTE
    ../clib/microlib/ctype/ctype.c           0x00000000   Number         0  ctype_c.o ABSOLUTE
    ../clib/microlib/ctype/ctype.c           0x00000000   Number         0  isspace_o.o ABSOLUTE
    ../clib/microlib/ctype/ctype.c           0x00000000   Number         0  isalnum_o.o ABSOLUTE
    ../clib/microlib/ctype/ctype.c           0x00000000   Number         0  isspace_c.o ABSOLUTE
    ../clib/microlib/ctype/ctype.c           0x00000000   Number         0  isblank_o.o ABSOLUTE
    ../clib/microlib/ctype/ctype.c           0x00000000   Number         0  ctype_o.o ABSOLUTE
    ../clib/microlib/ctype/ctype.c           0x00000000   Number         0  isxdigit_o.o ABSOLUTE
    ../clib/microlib/ctype/ctype.c           0x00000000   Number         0  ispunct_o.o ABSOLUTE
    ../clib/microlib/ctype/ctype.c           0x00000000   Number         0  islower_o.o ABSOLUTE
    ../clib/microlib/ctype/ctype.c           0x00000000   Number         0  isgraph_o.o ABSOLUTE
    ../clib/microlib/ctype/ctype.c           0x00000000   Number         0  isdigit_o.o ABSOLUTE
    ../clib/microlib/ctype/ctype.c           0x00000000   Number         0  isprint_o.o ABSOLUTE
    ../clib/microlib/ctype/tolower.c         0x00000000   Number         0  tolower.o ABSOLUTE
    ../clib/microlib/division.c              0x00000000   Number         0  uidiv.o ABSOLUTE
    ../clib/microlib/division.c              0x00000000   Number         0  uldiv.o ABSOLUTE
    ../clib/microlib/errno.c                 0x00000000   Number         0  errno.o ABSOLUTE
    ../clib/microlib/init/entry.s            0x00000000   Number         0  entry.o ABSOLUTE
    ../clib/microlib/init/entry.s            0x00000000   Number         0  entry11b.o ABSOLUTE
    ../clib/microlib/init/entry.s            0x00000000   Number         0  entry10b.o ABSOLUTE
    ../clib/microlib/init/entry.s            0x00000000   Number         0  entry11a.o ABSOLUTE
    ../clib/microlib/init/entry.s            0x00000000   Number         0  entry9b.o ABSOLUTE
    ../clib/microlib/init/entry.s            0x00000000   Number         0  entry8b.o ABSOLUTE
    ../clib/microlib/init/entry.s            0x00000000   Number         0  entry10a.o ABSOLUTE
    ../clib/microlib/init/entry.s            0x00000000   Number         0  entry9a.o ABSOLUTE
    ../clib/microlib/init/entry.s            0x00000000   Number         0  entry8a.o ABSOLUTE
    ../clib/microlib/init/entry.s            0x00000000   Number         0  entry7b.o ABSOLUTE
    ../clib/microlib/init/entry.s            0x00000000   Number         0  entry7a.o ABSOLUTE
    ../clib/microlib/init/entry.s            0x00000000   Number         0  entry5.o ABSOLUTE
    ../clib/microlib/init/entry.s            0x00000000   Number         0  entry2.o ABSOLUTE
    ../clib/microlib/longlong.c              0x00000000   Number         0  llushr.o ABSOLUTE
    ../clib/microlib/longlong.c              0x00000000   Number         0  llshl.o ABSOLUTE
    ../clib/microlib/longlong.c              0x00000000   Number         0  llsshr.o ABSOLUTE
    ../clib/microlib/malloc/malloc.c         0x00000000   Number         0  malloca.o ABSOLUTE
    ../clib/microlib/malloc/malloc.c         0x00000000   Number         0  malloc.o ABSOLUTE
    ../clib/microlib/malloc/malloc.c         0x00000000   Number         0  mallocr.o ABSOLUTE
    ../clib/microlib/malloc/malloc.c         0x00000000   Number         0  mallocra.o ABSOLUTE
    ../clib/microlib/malloc/mvars.c          0x00000000   Number         0  mvars.o ABSOLUTE
    ../clib/microlib/printf/printf.c         0x00000000   Number         0  printf0.o ABSOLUTE
    ../clib/microlib/printf/printf.c         0x00000000   Number         0  printfb.o ABSOLUTE
    ../clib/microlib/printf/printf.c         0x00000000   Number         0  printf4.o ABSOLUTE
    ../clib/microlib/printf/printf.c         0x00000000   Number         0  printfa.o ABSOLUTE
    ../clib/microlib/printf/printf.c         0x00000000   Number         0  printf8.o ABSOLUTE
    ../clib/microlib/printf/printf.c         0x00000000   Number         0  printf7.o ABSOLUTE
    ../clib/microlib/printf/printf.c         0x00000000   Number         0  printf6.o ABSOLUTE
    ../clib/microlib/printf/printf.c         0x00000000   Number         0  printf5.o ABSOLUTE
    ../clib/microlib/printf/printf.c         0x00000000   Number         0  printf3.o ABSOLUTE
    ../clib/microlib/printf/printf.c         0x00000000   Number         0  printf2.o ABSOLUTE
    ../clib/microlib/printf/printf.c         0x00000000   Number         0  printf1.o ABSOLUTE
    ../clib/microlib/printf/stubs.s          0x00000000   Number         0  stubs.o ABSOLUTE
    ../clib/microlib/stdio/streams.c         0x00000000   Number         0  stdout.o ABSOLUTE
    ../clib/microlib/string/memcmp.c         0x00000000   Number         0  memcmp.o ABSOLUTE
    ../clib/microlib/string/memcpy.c         0x00000000   Number         0  memcpya.o ABSOLUTE
    ../clib/microlib/string/memcpy.c         0x00000000   Number         0  memcpyb.o ABSOLUTE
    ../clib/microlib/string/memset.c         0x00000000   Number         0  memseta.o ABSOLUTE
    ../clib/microlib/string/strcat.c         0x00000000   Number         0  strcat.o ABSOLUTE
    ../clib/microlib/string/strchr.c         0x00000000   Number         0  strchr.o ABSOLUTE
    ../clib/microlib/string/strcmp.c         0x00000000   Number         0  strcmp.o ABSOLUTE
    ../clib/microlib/string/strcpy.c         0x00000000   Number         0  strcpy.o ABSOLUTE
    ../clib/microlib/string/strlen.c         0x00000000   Number         0  strlen.o ABSOLUTE
    ../clib/microlib/string/strncat.c        0x00000000   Number         0  strncat.o ABSOLUTE
    ../clib/microlib/string/strncmp.c        0x00000000   Number         0  strncmp.o ABSOLUTE
    ../clib/microlib/string/strncpy.c        0x00000000   Number         0  strncpy.o ABSOLUTE
    ../clib/microlib/string/strstr.c         0x00000000   Number         0  strstr.o ABSOLUTE
    ../clib/microlib/string/strtok.c         0x00000000   Number         0  strtok.o ABSOLUTE
    ../clib/microlib/string/strtok.c         0x00000000   Number         0  strtok_r.o ABSOLUTE
    ../clib/microlib/stubs.s                 0x00000000   Number         0  iusefp.o ABSOLUTE
    ../clib/scanf.c                          0x00000000   Number         0  strtod.o ABSOLUTE
    ../clib/scanf.c                          0x00000000   Number         0  _sgetc.o ABSOLUTE
    ../clib/scanf.c                          0x00000000   Number         0  scanf_char.o ABSOLUTE
    ../clib/scanf.c                          0x00000000   Number         0  _scanf.o ABSOLUTE
    ../clib/scanf.c                          0x00000000   Number         0  strtol.o ABSOLUTE
    ../clib/scanf.c                          0x00000000   Number         0  _strtoul.o ABSOLUTE
    ../clib/scanf.c                          0x00000000   Number         0  atoi.o ABSOLUTE
    ../clib/scanf.c                          0x00000000   Number         0  _chval.o ABSOLUTE
    ../clib/scanf.c                          0x00000000   Number         0  scanf_fp.o ABSOLUTE
    ../clib/scanf.c                          0x00000000   Number         0  __0sscanf.o ABSOLUTE
    ../fplib/microlib/d2f.c                  0x00000000   Number         0  d2f.o ABSOLUTE
    ../fplib/microlib/f2d.c                  0x00000000   Number         0  f2d.o ABSOLUTE
    ../fplib/microlib/fpadd.c                0x00000000   Number         0  dadd.o ABSOLUTE
    ../fplib/microlib/fpdiv.c                0x00000000   Number         0  ddiv.o ABSOLUTE
    ../fplib/microlib/fpepilogue.c           0x00000000   Number         0  fepilogue.o ABSOLUTE
    ../fplib/microlib/fpepilogue.c           0x00000000   Number         0  depilogue.o ABSOLUTE
    ../fplib/microlib/fpfix.c                0x00000000   Number         0  dfixul.o ABSOLUTE
    ../fplib/microlib/fpfix.c                0x00000000   Number         0  dfixui.o ABSOLUTE
    ../fplib/microlib/fpfix.c                0x00000000   Number         0  dfixi.o ABSOLUTE
    ../fplib/microlib/fpflt.c                0x00000000   Number         0  dflti.o ABSOLUTE
    ../fplib/microlib/fpflt.c                0x00000000   Number         0  dfltui.o ABSOLUTE
    ../fplib/microlib/fpflt.c                0x00000000   Number         0  dfltul.o ABSOLUTE
    ../fplib/microlib/fpmul.c                0x00000000   Number         0  dmul.o ABSOLUTE
    ../fplib/microlib/fpsqrt.c               0x00000000   Number         0  dsqrt.o ABSOLUTE
    ../mathlib/fabs.c                        0x00000000   Number         0  fabs.o ABSOLUTE
    ../mathlib/sqrt.c                        0x00000000   Number         0  sqrt.o ABSOLUTE
    ../mathlib/sqrt.c                        0x00000000   Number         0  sqrt_x.o ABSOLUTE
    ../mathlib/strtod.c                      0x00000000   Number         0  strtod.o ABSOLUTE
    ..\Core\Src\adc.c                        0x00000000   Number         0  adc.o ABSOLUTE
    ..\Core\Src\fsmc.c                       0x00000000   Number         0  fsmc.o ABSOLUTE
    ..\Core\Src\gpio.c                       0x00000000   Number         0  gpio.o ABSOLUTE
    ..\Core\Src\main.c                       0x00000000   Number         0  main.o ABSOLUTE
    ..\Core\Src\stm32f4xx_hal_msp.c          0x00000000   Number         0  stm32f4xx_hal_msp.o ABSOLUTE
    ..\Core\Src\stm32f4xx_it.c               0x00000000   Number         0  stm32f4xx_it.o ABSOLUTE
    ..\Core\Src\system_stm32f4xx.c           0x00000000   Number         0  system_stm32f4xx.o ABSOLUTE
    ..\Core\Src\tim.c                        0x00000000   Number         0  tim.o ABSOLUTE
    ..\Core\Src\usart.c                      0x00000000   Number         0  usart.o ABSOLUTE
    ..\Drivers\STM32F4xx_HAL_Driver\Src\stm32f4xx_hal.c 0x00000000   Number         0  stm32f4xx_hal.o ABSOLUTE
    ..\Drivers\STM32F4xx_HAL_Driver\Src\stm32f4xx_hal_adc.c 0x00000000   Number         0  stm32f4xx_hal_adc.o ABSOLUTE
    ..\Drivers\STM32F4xx_HAL_Driver\Src\stm32f4xx_hal_adc_ex.c 0x00000000   Number         0  stm32f4xx_hal_adc_ex.o ABSOLUTE
    ..\Drivers\STM32F4xx_HAL_Driver\Src\stm32f4xx_hal_cortex.c 0x00000000   Number         0  stm32f4xx_hal_cortex.o ABSOLUTE
    ..\Drivers\STM32F4xx_HAL_Driver\Src\stm32f4xx_hal_dma.c 0x00000000   Number         0  stm32f4xx_hal_dma.o ABSOLUTE
    ..\Drivers\STM32F4xx_HAL_Driver\Src\stm32f4xx_hal_dma_ex.c 0x00000000   Number         0  stm32f4xx_hal_dma_ex.o ABSOLUTE
    ..\Drivers\STM32F4xx_HAL_Driver\Src\stm32f4xx_hal_exti.c 0x00000000   Number         0  stm32f4xx_hal_exti.o ABSOLUTE
    ..\Drivers\STM32F4xx_HAL_Driver\Src\stm32f4xx_hal_flash.c 0x00000000   Number         0  stm32f4xx_hal_flash.o ABSOLUTE
    ..\Drivers\STM32F4xx_HAL_Driver\Src\stm32f4xx_hal_flash_ex.c 0x00000000   Number         0  stm32f4xx_hal_flash_ex.o ABSOLUTE
    ..\Drivers\STM32F4xx_HAL_Driver\Src\stm32f4xx_hal_flash_ramfunc.c 0x00000000   Number         0  stm32f4xx_hal_flash_ramfunc.o ABSOLUTE
    ..\Drivers\STM32F4xx_HAL_Driver\Src\stm32f4xx_hal_gpio.c 0x00000000   Number         0  stm32f4xx_hal_gpio.o ABSOLUTE
    ..\Drivers\STM32F4xx_HAL_Driver\Src\stm32f4xx_hal_pwr.c 0x00000000   Number         0  stm32f4xx_hal_pwr.o ABSOLUTE
    ..\Drivers\STM32F4xx_HAL_Driver\Src\stm32f4xx_hal_pwr_ex.c 0x00000000   Number         0  stm32f4xx_hal_pwr_ex.o ABSOLUTE
    ..\Drivers\STM32F4xx_HAL_Driver\Src\stm32f4xx_hal_rcc.c 0x00000000   Number         0  stm32f4xx_hal_rcc.o ABSOLUTE
    ..\Drivers\STM32F4xx_HAL_Driver\Src\stm32f4xx_hal_rcc_ex.c 0x00000000   Number         0  stm32f4xx_hal_rcc_ex.o ABSOLUTE
    ..\Drivers\STM32F4xx_HAL_Driver\Src\stm32f4xx_hal_sram.c 0x00000000   Number         0  stm32f4xx_hal_sram.o ABSOLUTE
    ..\Drivers\STM32F4xx_HAL_Driver\Src\stm32f4xx_hal_tim.c 0x00000000   Number         0  stm32f4xx_hal_tim.o ABSOLUTE
    ..\Drivers\STM32F4xx_HAL_Driver\Src\stm32f4xx_hal_tim_ex.c 0x00000000   Number         0  stm32f4xx_hal_tim_ex.o ABSOLUTE
    ..\Drivers\STM32F4xx_HAL_Driver\Src\stm32f4xx_hal_uart.c 0x00000000   Number         0  stm32f4xx_hal_uart.o ABSOLUTE
    ..\Drivers\STM32F4xx_HAL_Driver\Src\stm32f4xx_ll_fsmc.c 0x00000000   Number         0  stm32f4xx_ll_fsmc.o ABSOLUTE
    ..\Ethernet\APP\MqttKit.c                0x00000000   Number         0  mqttkit.o ABSOLUTE
    ..\Ethernet\APP\bsp_flash.c              0x00000000   Number         0  bsp_flash.o ABSOLUTE
    ..\Ethernet\APP\cJSON.c                  0x00000000   Number         0  cjson.o ABSOLUTE
    ..\Ethernet\APP\dhcp.c                   0x00000000   Number         0  dhcp.o ABSOLUTE
    ..\Ethernet\APP\dns.c                    0x00000000   Number         0  dns.o ABSOLUTE
    ..\Ethernet\APP\http_server.c            0x00000000   Number         0  http_server.o ABSOLUTE
    ..\Ethernet\APP\httputil.c               0x00000000   Number         0  httputil.o ABSOLUTE
    ..\Ethernet\APP\mqtt_client.c            0x00000000   Number         0  mqtt_client.o ABSOLUTE
    ..\Ethernet\APP\tcp_client.c             0x00000000   Number         0  tcp_client.o ABSOLUTE
    ..\Ethernet\APP\tcp_server.c             0x00000000   Number         0  tcp_server.o ABSOLUTE
    ..\Ethernet\APP\udp.c                    0x00000000   Number         0  udp.o ABSOLUTE
    ..\Ethernet\W5300\socket.c               0x00000000   Number         0  socket.o ABSOLUTE
    ..\Ethernet\W5300\w5300.c                0x00000000   Number         0  w5300.o ABSOLUTE
    ..\Ethernet\W5300\w5300_conf.c           0x00000000   Number         0  w5300_conf.o ABSOLUTE
    ..\Ethernet\W5300\wizchip_conf.c         0x00000000   Number         0  wizchip_conf.o ABSOLUTE
    ..\Sensor\dht11.c                        0x00000000   Number         0  dht11.o ABSOLUTE
    ..\Sensor\g5516.c                        0x00000000   Number         0  g5516.o ABSOLUTE
    ..\Sensor\relay.c                        0x00000000   Number         0  relay.o ABSOLUTE
    ..\Sensor\serial_studio.c                0x00000000   Number         0  serial_studio.o ABSOLUTE
    ..\Sensor\yl_69.c                        0x00000000   Number         0  yl_69.o ABSOLUTE
    ..\\Ethernet\\APP\\bsp_flash.c           0x00000000   Number         0  bsp_flash.o ABSOLUTE
    ..\\Ethernet\\APP\\dhcp.c                0x00000000   Number         0  dhcp.o ABSOLUTE
    ..\\Ethernet\\APP\\httputil.c            0x00000000   Number         0  httputil.o ABSOLUTE
    ..\\Ethernet\\APP\\mqtt_client.c         0x00000000   Number         0  mqtt_client.o ABSOLUTE
    ..\\Ethernet\\APP\\tcp_client.c          0x00000000   Number         0  tcp_client.o ABSOLUTE
    ..\\Ethernet\\W5300\\w5300_conf.c        0x00000000   Number         0  w5300_conf.o ABSOLUTE
    ..\\Sensor\\dht11.c                      0x00000000   Number         0  dht11.o ABSOLUTE
    ..\\Sensor\\g5516.c                      0x00000000   Number         0  g5516.o ABSOLUTE
    ..\\Sensor\\relay.c                      0x00000000   Number         0  relay.o ABSOLUTE
    ..\\Sensor\\serial_studio.c              0x00000000   Number         0  serial_studio.o ABSOLUTE
    ..\\Sensor\\yl_69.c                      0x00000000   Number         0  yl_69.o ABSOLUTE
    cdcmple.s                                0x00000000   Number         0  cdcmple.o ABSOLUTE
    cdrcmple.s                               0x00000000   Number         0  cdrcmple.o ABSOLUTE
    dc.s                                     0x00000000   Number         0  dc.o ABSOLUTE
    handlers.s                               0x00000000   Number         0  handlers.o ABSOLUTE
    init.s                                   0x00000000   Number         0  init.o ABSOLUTE
    screen\24cxx.c                           0x00000000   Number         0  24cxx.o ABSOLUTE
    screen\GUI.c                             0x00000000   Number         0  gui.o ABSOLUTE
    screen\SPI.c                             0x00000000   Number         0  spi.o ABSOLUTE
    screen\\24cxx.c                          0x00000000   Number         0  24cxx.o ABSOLUTE
    screen\\GUI.c                            0x00000000   Number         0  gui.o ABSOLUTE
    screen\\SPI.c                            0x00000000   Number         0  spi.o ABSOLUTE
    screen\\key.c                            0x00000000   Number         0  key.o ABSOLUTE
    screen\\lcd.c                            0x00000000   Number         0  lcd.o ABSOLUTE
    screen\\myiic.c                          0x00000000   Number         0  myiic.o ABSOLUTE
    screen\\show_LCD.c                       0x00000000   Number         0  show_lcd.o ABSOLUTE
    screen\\touch.c                          0x00000000   Number         0  touch.o ABSOLUTE
    screen\key.c                             0x00000000   Number         0  key.o ABSOLUTE
    screen\lcd.c                             0x00000000   Number         0  lcd.o ABSOLUTE
    screen\myiic.c                           0x00000000   Number         0  myiic.o ABSOLUTE
    screen\show_LCD.c                        0x00000000   Number         0  show_lcd.o ABSOLUTE
    screen\sys.c                             0x00000000   Number         0  sys.o ABSOLUTE
    screen\touch.c                           0x00000000   Number         0  touch.o ABSOLUTE
    startup_stm32f407xx.s                    0x00000000   Number         0  startup_stm32f407xx.o ABSOLUTE
    RESET                                    0x08000000   Section      392  startup_stm32f407xx.o(RESET)
    .ARM.Collect$$$$00000000                 0x08000188   Section        0  entry.o(.ARM.Collect$$$$00000000)
    .ARM.Collect$$$$00000001                 0x08000188   Section        4  entry2.o(.ARM.Collect$$$$00000001)
    .ARM.Collect$$$$00000004                 0x0800018c   Section        4  entry5.o(.ARM.Collect$$$$00000004)
    .ARM.Collect$$$$00000008                 0x08000190   Section        0  entry7b.o(.ARM.Collect$$$$00000008)
    .ARM.Collect$$$$0000000A                 0x08000190   Section        0  entry8b.o(.ARM.Collect$$$$0000000A)
    .ARM.Collect$$$$0000000B                 0x08000190   Section        8  entry9a.o(.ARM.Collect$$$$0000000B)
    .ARM.Collect$$$$0000000D                 0x08000198   Section        0  entry10a.o(.ARM.Collect$$$$0000000D)
    .ARM.Collect$$$$0000000F                 0x08000198   Section        0  entry11a.o(.ARM.Collect$$$$0000000F)
    .ARM.Collect$$$$00002712                 0x08000198   Section        4  entry2.o(.ARM.Collect$$$$00002712)
    __lit__00000000                          0x08000198   Data           4  entry2.o(.ARM.Collect$$$$00002712)
    .text                                    0x0800019c   Section       36  startup_stm32f407xx.o(.text)
    $v0                                      0x0800019c   Number         0  startup_stm32f407xx.o(.text)
    .text                                    0x080001c0   Section        0  uldiv.o(.text)
    .text                                    0x08000222   Section        0  memcpya.o(.text)
    .text                                    0x08000246   Section        0  memseta.o(.text)
    .text                                    0x0800026a   Section        0  strcat.o(.text)
    .text                                    0x08000282   Section        0  strstr.o(.text)
    .text                                    0x080002a6   Section        0  strncpy.o(.text)
    .text                                    0x080002be   Section        0  strchr.o(.text)
    .text                                    0x080002d2   Section        0  strlen.o(.text)
    .text                                    0x080002e0   Section        0  memcmp.o(.text)
    .text                                    0x080002fa   Section        0  strncat.o(.text)
    .text                                    0x08000322   Section        0  strcpy.o(.text)
    .text                                    0x08000334   Section        0  atoi.o(.text)
    .text                                    0x0800034e   Section        0  dadd.o(.text)
    .text                                    0x0800049c   Section        0  dmul.o(.text)
    .text                                    0x08000580   Section        0  ddiv.o(.text)
    .text                                    0x0800065e   Section        0  dfltui.o(.text)
    .text                                    0x08000678   Section        0  dfixui.o(.text)
    .text                                    0x080006aa   Section        0  f2d.o(.text)
    .text                                    0x080006d0   Section       48  cdcmple.o(.text)
    .text                                    0x08000700   Section       48  cdrcmple.o(.text)
    .text                                    0x08000730   Section        0  d2f.o(.text)
    .text                                    0x08000768   Section        0  uidiv.o(.text)
    .text                                    0x08000794   Section        0  llshl.o(.text)
    .text                                    0x080007b2   Section        0  llushr.o(.text)
    .text                                    0x080007d2   Section        0  llsshr.o(.text)
    .text                                    0x080007f6   Section        0  strtol.o(.text)
    .text                                    0x08000866   Section        0  fepilogue.o(.text)
    .text                                    0x08000866   Section        0  iusefp.o(.text)
    .text                                    0x080008d4   Section        0  depilogue.o(.text)
    .text                                    0x0800098e   Section        0  dsqrt.o(.text)
    .text                                    0x08000a30   Section        0  dfixul.o(.text)
    .text                                    0x08000a60   Section       36  init.o(.text)
    .text                                    0x08000a84   Section        0  ctype_o.o(.text)
    .text                                    0x08000a8c   Section        0  _strtoul.o(.text)
    .text                                    0x08000b2a   Section        0  _chval.o(.text)
    .text                                    0x08000b46   Section        0  __dczerorl2.o(.text)
    i.ADC_Init                               0x08000b9c   Section        0  stm32f4xx_hal_adc.o(i.ADC_Init)
    ADC_Init                                 0x08000b9d   Thumb Code   284  stm32f4xx_hal_adc.o(i.ADC_Init)
    i.AT24CXX_Init                           0x08000cc4   Section        0  24cxx.o(i.AT24CXX_Init)
    i.AT24CXX_ReadLenByte                    0x08000cc8   Section        0  24cxx.o(i.AT24CXX_ReadLenByte)
    i.AT24CXX_ReadOneByte                    0x08000cf2   Section        0  24cxx.o(i.AT24CXX_ReadOneByte)
    i.AT24CXX_WriteLenByte                   0x08000d34   Section        0  24cxx.o(i.AT24CXX_WriteLenByte)
    i.AT24CXX_WriteOneByte                   0x08000d5e   Section        0  24cxx.o(i.AT24CXX_WriteOneByte)
    i.BD_TG_DevLink                          0x08000d9c   Section        0  mqtt_client.o(i.BD_TG_DevLink)
    i.BD_TG_Publish                          0x08000fb8   Section        0  mqtt_client.o(i.BD_TG_Publish)
    i.BD_TG_RevPro                           0x0800102c   Section        0  mqtt_client.o(i.BD_TG_RevPro)
    i.BD_TG_Subscribe                        0x08001440   Section        0  mqtt_client.o(i.BD_TG_Subscribe)
    i.BusFault_Handler                       0x080014c0   Section        0  stm32f4xx_it.o(i.BusFault_Handler)
    i.DHCP_init                              0x080014c4   Section        0  dhcp.o(i.DHCP_init)
    i.DHCP_run                               0x080015d0   Section        0  dhcp.o(i.DHCP_run)
    i.DHT11_CheckExist                       0x080017fc   Section        0  dht11.o(i.DHT11_CheckExist)
    i.DHT11_IO_IN                            0x08001858   Section        0  dht11.o(i.DHT11_IO_IN)
    i.DHT11_IO_OUT                           0x08001898   Section        0  dht11.o(i.DHT11_IO_OUT)
    i.DHT11_Init                             0x080018e4   Section        0  dht11.o(i.DHT11_Init)
    i.DHT11_Read_Bit                         0x080018f4   Section        0  dht11.o(i.DHT11_Read_Bit)
    i.DHT11_Read_Byte                        0x08001950   Section        0  dht11.o(i.DHT11_Read_Byte)
    i.DHT11_Read_Data                        0x0800196a   Section        0  dht11.o(i.DHT11_Read_Data)
    i.DHT11_Reset                            0x080019bc   Section        0  dht11.o(i.DHT11_Reset)
    i.DNS_init                               0x080019f0   Section        0  dns.o(i.DNS_init)
    i.DNS_run                                0x08001a04   Section        0  dns.o(i.DNS_run)
    i.DebugMon_Handler                       0x08001ba4   Section        0  stm32f4xx_it.o(i.DebugMon_Handler)
    i.English_Font_test                      0x08001ba8   Section        0  show_lcd.o(i.English_Font_test)
    i.Error_Handler                          0x08001dc8   Section        0  main.o(i.Error_Handler)
    i.FLASH_Erase_Sector                     0x08001dcc   Section        0  stm32f4xx_hal_flash_ex.o(i.FLASH_Erase_Sector)
    i.FLASH_FlushCaches                      0x08001e1c   Section        0  stm32f4xx_hal_flash_ex.o(i.FLASH_FlushCaches)
    i.FLASH_MassErase                        0x08001e70   Section        0  stm32f4xx_hal_flash_ex.o(i.FLASH_MassErase)
    FLASH_MassErase                          0x08001e71   Thumb Code    34  stm32f4xx_hal_flash_ex.o(i.FLASH_MassErase)
    i.FLASH_Program_Byte                     0x08001e98   Section        0  stm32f4xx_hal_flash.o(i.FLASH_Program_Byte)
    FLASH_Program_Byte                       0x08001e99   Thumb Code    26  stm32f4xx_hal_flash.o(i.FLASH_Program_Byte)
    i.FLASH_Program_DoubleWord               0x08001eb8   Section        0  stm32f4xx_hal_flash.o(i.FLASH_Program_DoubleWord)
    FLASH_Program_DoubleWord                 0x08001eb9   Thumb Code    38  stm32f4xx_hal_flash.o(i.FLASH_Program_DoubleWord)
    i.FLASH_Program_HalfWord                 0x08001ee4   Section        0  stm32f4xx_hal_flash.o(i.FLASH_Program_HalfWord)
    FLASH_Program_HalfWord                   0x08001ee5   Thumb Code    30  stm32f4xx_hal_flash.o(i.FLASH_Program_HalfWord)
    i.FLASH_Program_Word                     0x08001f08   Section        0  stm32f4xx_hal_flash.o(i.FLASH_Program_Word)
    FLASH_Program_Word                       0x08001f09   Thumb Code    30  stm32f4xx_hal_flash.o(i.FLASH_Program_Word)
    i.FLASH_SetErrorCode                     0x08001f2c   Section        0  stm32f4xx_hal_flash.o(i.FLASH_SetErrorCode)
    FLASH_SetErrorCode                       0x08001f2d   Thumb Code    96  stm32f4xx_hal_flash.o(i.FLASH_SetErrorCode)
    i.FLASH_WaitForLastOperation             0x08001f94   Section        0  stm32f4xx_hal_flash.o(i.FLASH_WaitForLastOperation)
    i.FSMC_NORSRAM_Extended_Timing_Init      0x08001fe4   Section        0  stm32f4xx_ll_fsmc.o(i.FSMC_NORSRAM_Extended_Timing_Init)
    i.FSMC_NORSRAM_Init                      0x08002020   Section        0  stm32f4xx_ll_fsmc.o(i.FSMC_NORSRAM_Init)
    i.FSMC_NORSRAM_Timing_Init               0x08002088   Section        0  stm32f4xx_ll_fsmc.o(i.FSMC_NORSRAM_Timing_Init)
    i.Fan1_Relay_Close                       0x080020cc   Section        0  relay.o(i.Fan1_Relay_Close)
    i.Fan1_Relay_Open                        0x080020dc   Section        0  relay.o(i.Fan1_Relay_Open)
    i.Fan2_Relay_Close                       0x080020ec   Section        0  relay.o(i.Fan2_Relay_Close)
    i.Fan2_Relay_Open                        0x080020fc   Section        0  relay.o(i.Fan2_Relay_Open)
    i.Fan3_Relay_Close                       0x0800210c   Section        0  relay.o(i.Fan3_Relay_Close)
    i.Fan3_Relay_Open                        0x0800211c   Section        0  relay.o(i.Fan3_Relay_Open)
    i.Fan_State                              0x0800212c   Section        0  relay.o(i.Fan_State)
    i.GUI_DrawFont16                         0x08002144   Section        0  gui.o(i.GUI_DrawFont16)
    i.GUI_DrawFont24                         0x08002230   Section        0  gui.o(i.GUI_DrawFont24)
    i.GUI_DrawFont32                         0x08002320   Section        0  gui.o(i.GUI_DrawFont32)
    i.GUI_DrawPoint                          0x0800240c   Section        0  gui.o(i.GUI_DrawPoint)
    i.Gui_StrCenter                          0x08002420   Section        0  gui.o(i.Gui_StrCenter)
    i.HAL_ADC_ConfigChannel                  0x08002464   Section        0  stm32f4xx_hal_adc.o(i.HAL_ADC_ConfigChannel)
    i.HAL_ADC_GetValue                       0x080025b0   Section        0  stm32f4xx_hal_adc.o(i.HAL_ADC_GetValue)
    i.HAL_ADC_Init                           0x080025b6   Section        0  stm32f4xx_hal_adc.o(i.HAL_ADC_Init)
    i.HAL_ADC_MspInit                        0x0800260c   Section        0  adc.o(i.HAL_ADC_MspInit)
    i.HAL_ADC_PollForConversion              0x0800269c   Section        0  stm32f4xx_hal_adc.o(i.HAL_ADC_PollForConversion)
    i.HAL_ADC_Start                          0x08002748   Section        0  stm32f4xx_hal_adc.o(i.HAL_ADC_Start)
    i.HAL_ADC_Stop                           0x08002844   Section        0  stm32f4xx_hal_adc.o(i.HAL_ADC_Stop)
    i.HAL_DMA_Abort                          0x08002880   Section        0  stm32f4xx_hal_dma.o(i.HAL_DMA_Abort)
    i.HAL_DMA_Abort_IT                       0x08002912   Section        0  stm32f4xx_hal_dma.o(i.HAL_DMA_Abort_IT)
    i.HAL_Delay                              0x08002938   Section        0  stm32f4xx_hal.o(i.HAL_Delay)
    i.HAL_Delay_us                           0x0800295c   Section        0  stm32f4xx_hal.o(i.HAL_Delay_us)
    i.HAL_FLASHEx_Erase                      0x0800298c   Section        0  stm32f4xx_hal_flash_ex.o(i.HAL_FLASHEx_Erase)
    i.HAL_FLASH_Lock                         0x08002a24   Section        0  stm32f4xx_hal_flash.o(i.HAL_FLASH_Lock)
    i.HAL_FLASH_Program                      0x08002a38   Section        0  stm32f4xx_hal_flash.o(i.HAL_FLASH_Program)
    i.HAL_FLASH_Unlock                       0x08002ab4   Section        0  stm32f4xx_hal_flash.o(i.HAL_FLASH_Unlock)
    i.HAL_FSMC_MspInit                       0x08002ae0   Section        0  fsmc.o(i.HAL_FSMC_MspInit)
    HAL_FSMC_MspInit                         0x08002ae1   Thumb Code   140  fsmc.o(i.HAL_FSMC_MspInit)
    i.HAL_GPIO_Init                          0x08002b84   Section        0  stm32f4xx_hal_gpio.o(i.HAL_GPIO_Init)
    i.HAL_GPIO_ReadPin                       0x08002d74   Section        0  stm32f4xx_hal_gpio.o(i.HAL_GPIO_ReadPin)
    i.HAL_GPIO_WritePin                      0x08002d7e   Section        0  stm32f4xx_hal_gpio.o(i.HAL_GPIO_WritePin)
    i.HAL_GetTick                            0x08002d88   Section        0  stm32f4xx_hal.o(i.HAL_GetTick)
    i.HAL_IncTick                            0x08002d94   Section        0  stm32f4xx_hal.o(i.HAL_IncTick)
    i.HAL_Init                               0x08002da4   Section        0  stm32f4xx_hal.o(i.HAL_Init)
    i.HAL_InitTick                           0x08002dd8   Section        0  stm32f4xx_hal.o(i.HAL_InitTick)
    i.HAL_MspInit                            0x08002e18   Section        0  stm32f4xx_hal_msp.o(i.HAL_MspInit)
    i.HAL_NVIC_EnableIRQ                     0x08002e48   Section        0  stm32f4xx_hal_cortex.o(i.HAL_NVIC_EnableIRQ)
    i.HAL_NVIC_SetPriority                   0x08002e64   Section        0  stm32f4xx_hal_cortex.o(i.HAL_NVIC_SetPriority)
    i.HAL_NVIC_SetPriorityGrouping           0x08002ea4   Section        0  stm32f4xx_hal_cortex.o(i.HAL_NVIC_SetPriorityGrouping)
    i.HAL_RCC_ClockConfig                    0x08002ec8   Section        0  stm32f4xx_hal_rcc.o(i.HAL_RCC_ClockConfig)
    i.HAL_RCC_GetHCLKFreq                    0x08002ffc   Section        0  stm32f4xx_hal_rcc.o(i.HAL_RCC_GetHCLKFreq)
    i.HAL_RCC_GetPCLK1Freq                   0x08003008   Section        0  stm32f4xx_hal_rcc.o(i.HAL_RCC_GetPCLK1Freq)
    i.HAL_RCC_GetPCLK2Freq                   0x08003028   Section        0  stm32f4xx_hal_rcc.o(i.HAL_RCC_GetPCLK2Freq)
    i.HAL_RCC_GetSysClockFreq                0x08003048   Section        0  stm32f4xx_hal_rcc.o(i.HAL_RCC_GetSysClockFreq)
    i.HAL_RCC_OscConfig                      0x080030a8   Section        0  stm32f4xx_hal_rcc.o(i.HAL_RCC_OscConfig)
    i.HAL_SRAM_Init                          0x08003414   Section        0  stm32f4xx_hal_sram.o(i.HAL_SRAM_Init)
    i.HAL_SRAM_MspInit                       0x08003470   Section        0  fsmc.o(i.HAL_SRAM_MspInit)
    i.HAL_SYSTICK_Config                     0x08003474   Section        0  stm32f4xx_hal_cortex.o(i.HAL_SYSTICK_Config)
    i.HAL_TIMEx_BreakCallback                0x0800349c   Section        0  stm32f4xx_hal_tim_ex.o(i.HAL_TIMEx_BreakCallback)
    i.HAL_TIMEx_CommutCallback               0x0800349e   Section        0  stm32f4xx_hal_tim_ex.o(i.HAL_TIMEx_CommutCallback)
    i.HAL_TIMEx_MasterConfigSynchronization  0x080034a0   Section        0  stm32f4xx_hal_tim_ex.o(i.HAL_TIMEx_MasterConfigSynchronization)
    i.HAL_TIM_Base_Init                      0x08003530   Section        0  stm32f4xx_hal_tim.o(i.HAL_TIM_Base_Init)
    i.HAL_TIM_Base_MspInit                   0x0800358c   Section        0  tim.o(i.HAL_TIM_Base_MspInit)
    i.HAL_TIM_Base_Start_IT                  0x080035c8   Section        0  stm32f4xx_hal_tim.o(i.HAL_TIM_Base_Start_IT)
    i.HAL_TIM_IC_CaptureCallback             0x08003648   Section        0  stm32f4xx_hal_tim.o(i.HAL_TIM_IC_CaptureCallback)
    i.HAL_TIM_IRQHandler                     0x0800364a   Section        0  stm32f4xx_hal_tim.o(i.HAL_TIM_IRQHandler)
    i.HAL_TIM_OC_DelayElapsedCallback        0x080037b0   Section        0  stm32f4xx_hal_tim.o(i.HAL_TIM_OC_DelayElapsedCallback)
    i.HAL_TIM_PWM_PulseFinishedCallback      0x080037b2   Section        0  stm32f4xx_hal_tim.o(i.HAL_TIM_PWM_PulseFinishedCallback)
    i.HAL_TIM_PeriodElapsedCallback          0x080037b4   Section        0  tim.o(i.HAL_TIM_PeriodElapsedCallback)
    i.HAL_TIM_TriggerCallback                0x080037c8   Section        0  stm32f4xx_hal_tim.o(i.HAL_TIM_TriggerCallback)
    i.HAL_UARTEx_RxEventCallback             0x080037ca   Section        0  stm32f4xx_hal_uart.o(i.HAL_UARTEx_RxEventCallback)
    i.HAL_UART_ErrorCallback                 0x080037cc   Section        0  stm32f4xx_hal_uart.o(i.HAL_UART_ErrorCallback)
    i.HAL_UART_IRQHandler                    0x080037d0   Section        0  stm32f4xx_hal_uart.o(i.HAL_UART_IRQHandler)
    i.HAL_UART_Init                          0x08003a38   Section        0  stm32f4xx_hal_uart.o(i.HAL_UART_Init)
    i.HAL_UART_MspInit                       0x08003a9c   Section        0  usart.o(i.HAL_UART_MspInit)
    i.HAL_UART_RxCpltCallback                0x08003b18   Section        0  stm32f4xx_hal_uart.o(i.HAL_UART_RxCpltCallback)
    i.HAL_UART_Transmit                      0x08003b1c   Section        0  stm32f4xx_hal_uart.o(i.HAL_UART_Transmit)
    i.HAL_UART_TxCpltCallback                0x08003bce   Section        0  stm32f4xx_hal_uart.o(i.HAL_UART_TxCpltCallback)
    i.HardFault_Handler                      0x08003bd0   Section        0  stm32f4xx_it.o(i.HardFault_Handler)
    i.IIC_Ack                                0x08003bd4   Section        0  myiic.o(i.IIC_Ack)
    i.IIC_Init                               0x08003c14   Section        0  myiic.o(i.IIC_Init)
    i.IIC_NAck                               0x08003c70   Section        0  myiic.o(i.IIC_NAck)
    i.IIC_Read_Byte                          0x08003cb0   Section        0  myiic.o(i.IIC_Read_Byte)
    i.IIC_Send_Byte                          0x08003d18   Section        0  myiic.o(i.IIC_Send_Byte)
    i.IIC_Start                              0x08003d78   Section        0  myiic.o(i.IIC_Start)
    i.IIC_Stop                               0x08003db8   Section        0  myiic.o(i.IIC_Stop)
    i.IIC_Wait_Ack                           0x08003dfc   Section        0  myiic.o(i.IIC_Wait_Ack)
    i.LCD_Clear                              0x08003e50   Section        0  lcd.o(i.LCD_Clear)
    i.LCD_DrawLine                           0x08003eac   Section        0  gui.o(i.LCD_DrawLine)
    i.LCD_DrawPoint                          0x08003f48   Section        0  lcd.o(i.LCD_DrawPoint)
    i.LCD_Init                               0x08003f60   Section        0  lcd.o(i.LCD_Init)
    i.LCD_RESET                              0x080041ac   Section        0  lcd.o(i.LCD_RESET)
    i.LCD_SetCursor                          0x080041d4   Section        0  lcd.o(i.LCD_SetCursor)
    i.LCD_SetWindows                         0x080041dc   Section        0  lcd.o(i.LCD_SetWindows)
    i.LCD_ShowChar                           0x08004238   Section        0  gui.o(i.LCD_ShowChar)
    i.LCD_ShowNum                            0x08004340   Section        0  gui.o(i.LCD_ShowNum)
    i.LCD_ShowString                         0x080043c4   Section        0  gui.o(i.LCD_ShowString)
    i.LCD_WR_DATA                            0x08004424   Section        0  lcd.o(i.LCD_WR_DATA)
    i.LCD_WR_REG                             0x08004444   Section        0  lcd.o(i.LCD_WR_REG)
    i.LCD_WriteRAM_Prepare                   0x08004464   Section        0  lcd.o(i.LCD_WriteRAM_Prepare)
    i.LCD_WriteReg                           0x08004470   Section        0  lcd.o(i.LCD_WriteReg)
    i.LCD_direction                          0x08004484   Section        0  lcd.o(i.LCD_direction)
    i.Lcd_WriteData_16Bit                    0x080044d0   Section        0  lcd.o(i.Lcd_WriteData_16Bit)
    i.MQTT_DeleteBuffer                      0x080044fc   Section        0  mqttkit.o(i.MQTT_DeleteBuffer)
    i.MQTT_DumpLength                        0x08004518   Section        0  mqttkit.o(i.MQTT_DumpLength)
    i.MQTT_NewBuffer                         0x0800453e   Section        0  mqttkit.o(i.MQTT_NewBuffer)
    i.MQTT_PacketCmdResp                     0x08004590   Section        0  mqttkit.o(i.MQTT_PacketCmdResp)
    i.MQTT_PacketConnect                     0x0800460c   Section        0  mqttkit.o(i.MQTT_PacketConnect)
    i.MQTT_PacketPublish                     0x08004870   Section        0  mqttkit.o(i.MQTT_PacketPublish)
    i.MQTT_PacketPublishAck                  0x08004978   Section        0  mqttkit.o(i.MQTT_PacketPublishAck)
    i.MQTT_PacketPublishComp                 0x080049be   Section        0  mqttkit.o(i.MQTT_PacketPublishComp)
    i.MQTT_PacketPublishRec                  0x08004a04   Section        0  mqttkit.o(i.MQTT_PacketPublishRec)
    i.MQTT_PacketPublishRel                  0x08004a4a   Section        0  mqttkit.o(i.MQTT_PacketPublishRel)
    i.MQTT_PacketSubscribe                   0x08004a90   Section        0  mqttkit.o(i.MQTT_PacketSubscribe)
    i.MQTT_PacketUnSubscribe                 0x08004b6c   Section        0  mqttkit.o(i.MQTT_PacketUnSubscribe)
    i.MQTT_ReadLength                        0x08004c3a   Section        0  mqttkit.o(i.MQTT_ReadLength)
    i.MQTT_UnPacketCmd                       0x08004c78   Section        0  mqttkit.o(i.MQTT_UnPacketCmd)
    i.MQTT_UnPacketConnectAck                0x08004cee   Section        0  mqttkit.o(i.MQTT_UnPacketConnectAck)
    i.MQTT_UnPacketPublish                   0x08004d08   Section        0  mqttkit.o(i.MQTT_UnPacketPublish)
    i.MQTT_UnPacketPublishAck                0x08004e3c   Section        0  mqttkit.o(i.MQTT_UnPacketPublishAck)
    i.MQTT_UnPacketPublishComp               0x08004e54   Section        0  mqttkit.o(i.MQTT_UnPacketPublishComp)
    i.MQTT_UnPacketPublishRec                0x08004e6c   Section        0  mqttkit.o(i.MQTT_UnPacketPublishRec)
    i.MQTT_UnPacketPublishRel                0x08004e84   Section        0  mqttkit.o(i.MQTT_UnPacketPublishRel)
    i.MQTT_UnPacketRecv                      0x08004ea4   Section        0  mqttkit.o(i.MQTT_UnPacketRecv)
    i.MQTT_UnPacketSubscribe                 0x08004f04   Section        0  mqttkit.o(i.MQTT_UnPacketSubscribe)
    i.MQTT_UnPacketUnSubscribe               0x08004f30   Section        0  mqttkit.o(i.MQTT_UnPacketUnSubscribe)
    i.MQTT_UnSubscribe                       0x08004f44   Section        0  mqtt_client.o(i.MQTT_UnSubscribe)
    i.MX_ADC1_Init                           0x08004fac   Section        0  adc.o(i.MX_ADC1_Init)
    i.MX_ADC2_Init                           0x08005010   Section        0  adc.o(i.MX_ADC2_Init)
    i.MX_FSMC_Init                           0x08005074   Section        0  fsmc.o(i.MX_FSMC_Init)
    i.MX_GPIO_Init                           0x080050f8   Section        0  gpio.o(i.MX_GPIO_Init)
    i.MX_TIM6_Init                           0x080052a8   Section        0  tim.o(i.MX_TIM6_Init)
    i.MX_USART1_UART_Init                    0x080052f0   Section        0  usart.o(i.MX_USART1_UART_Init)
    i.MemManage_Handler                      0x08005328   Section        0  stm32f4xx_it.o(i.MemManage_Handler)
    i.NMI_Handler                            0x0800532a   Section        0  stm32f4xx_it.o(i.NMI_Handler)
    i.NibbleToHex                            0x0800532c   Section        0  dhcp.o(i.NibbleToHex)
    i.PendSV_Handler                         0x0800533c   Section        0  stm32f4xx_it.o(i.PendSV_Handler)
    i.ReadFlashNBtye                         0x08005340   Section        0  bsp_flash.o(i.ReadFlashNBtye)
    i.SPIv_WriteData                         0x0800534c   Section        0  spi.o(i.SPIv_WriteData)
    i.STMFLASH_GetFlashSector                0x08005380   Section        0  bsp_flash.o(i.STMFLASH_GetFlashSector)
    i.STMFLASH_Read                          0x08005420   Section        0  bsp_flash.o(i.STMFLASH_Read)
    i.STMFLASH_Write                         0x08005434   Section        0  bsp_flash.o(i.STMFLASH_Write)
    i.SVC_Handler                            0x080054cc   Section        0  stm32f4xx_it.o(i.SVC_Handler)
    i.Show_Str                               0x080054d0   Section        0  gui.o(i.Show_Str)
    i.SysTick_Handler                        0x0800559c   Section        0  stm32f4xx_it.o(i.SysTick_Handler)
    i.SystemClock_Config                     0x080055a0   Section        0  main.o(i.SystemClock_Config)
    i.SystemInit                             0x08005638   Section        0  system_stm32f4xx.o(i.SystemInit)
    i.TIM6_DAC_IRQHandler                    0x08005648   Section        0  stm32f4xx_it.o(i.TIM6_DAC_IRQHandler)
    i.TIM_Base_SetConfig                     0x08005654   Section        0  stm32f4xx_hal_tim.o(i.TIM_Base_SetConfig)
    i.TP_Adj_Info_Show                       0x0800571c   Section        0  touch.o(i.TP_Adj_Info_Show)
    i.TP_Adjust                              0x08005870   Section        0  touch.o(i.TP_Adjust)
    i.TP_Drow_Touch_Point                    0x08005cac   Section        0  touch.o(i.TP_Drow_Touch_Point)
    i.TP_Get_Adjdata                         0x08005d28   Section        0  touch.o(i.TP_Get_Adjdata)
    i.TP_Init                                0x08005db4   Section        0  touch.o(i.TP_Init)
    i.TP_Read_AD                             0x08005eb4   Section        0  touch.o(i.TP_Read_AD)
    i.TP_Read_XOY                            0x08005f40   Section        0  touch.o(i.TP_Read_XOY)
    i.TP_Read_XY                             0x08005fa4   Section        0  touch.o(i.TP_Read_XY)
    i.TP_Read_XY2                            0x08005fcc   Section        0  touch.o(i.TP_Read_XY2)
    i.TP_Save_Adjdata                        0x08006048   Section        0  touch.o(i.TP_Save_Adjdata)
    i.TP_Scan                                0x080060c0   Section        0  touch.o(i.TP_Scan)
    i.TP_Write_Byte                          0x08006174   Section        0  touch.o(i.TP_Write_Byte)
    i.Touch_Test                             0x080061bc   Section        0  show_lcd.o(i.Touch_Test)
    i.UART_DMAAbortOnError                   0x080066f0   Section        0  stm32f4xx_hal_uart.o(i.UART_DMAAbortOnError)
    UART_DMAAbortOnError                     0x080066f1   Thumb Code    16  stm32f4xx_hal_uart.o(i.UART_DMAAbortOnError)
    i.UART_EndRxTransfer                     0x08006700   Section        0  stm32f4xx_hal_uart.o(i.UART_EndRxTransfer)
    UART_EndRxTransfer                       0x08006701   Thumb Code    78  stm32f4xx_hal_uart.o(i.UART_EndRxTransfer)
    i.UART_Receive_IT                        0x0800674e   Section        0  stm32f4xx_hal_uart.o(i.UART_Receive_IT)
    UART_Receive_IT                          0x0800674f   Thumb Code   192  stm32f4xx_hal_uart.o(i.UART_Receive_IT)
    i.UART_SetConfig                         0x08006810   Section        0  stm32f4xx_hal_uart.o(i.UART_SetConfig)
    UART_SetConfig                           0x08006811   Thumb Code   258  stm32f4xx_hal_uart.o(i.UART_SetConfig)
    i.UART_WaitOnFlagUntilTimeout            0x0800691c   Section        0  stm32f4xx_hal_uart.o(i.UART_WaitOnFlagUntilTimeout)
    UART_WaitOnFlagUntilTimeout              0x0800691d   Thumb Code   120  stm32f4xx_hal_uart.o(i.UART_WaitOnFlagUntilTimeout)
    i.USART1_IRQHandler                      0x08006994   Section        0  stm32f4xx_it.o(i.USART1_IRQHandler)
    i.UsageFault_Handler                     0x080069a0   Section        0  stm32f4xx_it.o(i.UsageFault_Handler)
    i.WIZCHIP_READ                           0x080069a4   Section        0  w5300.o(i.WIZCHIP_READ)
    i.WIZCHIP_WRITE                          0x080069b0   Section        0  w5300.o(i.WIZCHIP_WRITE)
    i.Yl69_Read                              0x080069bc   Section        0  yl_69.o(i.Yl69_Read)
    i.__0printf                              0x08006a58   Section        0  printfa.o(i.__0printf)
    i.__NVIC_SetPriority                     0x08006a78   Section        0  stm32f4xx_hal_cortex.o(i.__NVIC_SetPriority)
    __NVIC_SetPriority                       0x08006a79   Thumb Code    32  stm32f4xx_hal_cortex.o(i.__NVIC_SetPriority)
    i.__aeabi_errno_addr                     0x08006a98   Section        0  errno.o(i.__aeabi_errno_addr)
    i.__free$realloc                         0x08006aa0   Section        0  mallocr.o(i.__free$realloc)
    i.__hardfp_sqrt                          0x08006afc   Section        0  sqrt.o(i.__hardfp_sqrt)
    i.__malloc$realloc                       0x08006b78   Section        0  mallocr.o(i.__malloc$realloc)
    i.__scatterload_copy                     0x08006bc8   Section       14  handlers.o(i.__scatterload_copy)
    i.__scatterload_null                     0x08006bd6   Section        2  handlers.o(i.__scatterload_null)
    i.__scatterload_zeroinit                 0x08006bd8   Section       14  handlers.o(i.__scatterload_zeroinit)
    i.__set_errno                            0x08006be8   Section        0  errno.o(i.__set_errno)
    i._draw_circle_8                         0x08006bf4   Section        0  gui.o(i._draw_circle_8)
    i._fp_digits                             0x08006c8c   Section        0  printfa.o(i._fp_digits)
    _fp_digits                               0x08006c8d   Thumb Code   334  printfa.o(i._fp_digits)
    i._printf_core                           0x08006df0   Section        0  printfa.o(i._printf_core)
    _printf_core                             0x08006df1   Thumb Code  1744  printfa.o(i._printf_core)
    i._printf_post_padding                   0x080074cc   Section        0  printfa.o(i._printf_post_padding)
    _printf_post_padding                     0x080074cd   Thumb Code    36  printfa.o(i._printf_post_padding)
    i._printf_pre_padding                    0x080074f0   Section        0  printfa.o(i._printf_pre_padding)
    _printf_pre_padding                      0x080074f1   Thumb Code    46  printfa.o(i._printf_pre_padding)
    i.aly_sensor                             0x08007520   Section        0  tcp_client.o(i.aly_sensor)
    i.check_DHCP_leasedIP                    0x08007624   Section        0  dhcp.o(i.check_DHCP_leasedIP)
    i.check_DHCP_timeout                     0x080076ac   Section        0  dhcp.o(i.check_DHCP_timeout)
    i.check_DNS_timeout                      0x08007718   Section        0  dns.o(i.check_DNS_timeout)
    i.close                                  0x08007740   Section        0  socket.o(i.close)
    i.connect                                0x08007838   Section        0  socket.o(i.connect)
    i.default_ip_assign                      0x08007954   Section        0  dhcp.o(i.default_ip_assign)
    i.default_ip_conflict                    0x08007aec   Section        0  dhcp.o(i.default_ip_conflict)
    i.default_ip_update                      0x08007b38   Section        0  dhcp.o(i.default_ip_update)
    i.dhcp_timer_init                        0x08007b88   Section        0  w5300_conf.o(i.dhcp_timer_init)
    i.dns_answer                             0x08007b9c   Section        0  dns.o(i.dns_answer)
    i.dns_makequery                          0x08007c4c   Section        0  dns.o(i.dns_makequery)
    i.dns_question                           0x08007d00   Section        0  dns.o(i.dns_question)
    i.do_mqtttcp_client                      0x08007d20   Section        0  tcp_client.o(i.do_mqtttcp_client)
    i.fputc                                  0x08007ee0   Section        0  usart.o(i.fputc)
    i.g5516_Read                             0x08007ef8   Section        0  g5516.o(i.g5516_Read)
    i.get16                                  0x08007f64   Section        0  dns.o(i.get16)
    i.getRMSR                                0x08007f70   Section        0  w5300.o(i.getRMSR)
    i.getSn_RX_RSR                           0x08007f94   Section        0  w5300.o(i.getSn_RX_RSR)
    i.getSn_TX_FSR                           0x08007fd8   Section        0  w5300.o(i.getSn_TX_FSR)
    i.getTMSR                                0x0800800c   Section        0  w5300.o(i.getTMSR)
    i.gui_circle                             0x0800802e   Section        0  gui.o(i.gui_circle)
    i.internal_alloc                         0x080080b4   Section        0  mallocr.o(i.internal_alloc)
    internal_alloc                           0x080080b5   Thumb Code    76  mallocr.o(i.internal_alloc)
    i.main                                   0x08008104   Section        0  main.o(i.main)
    i.makeDHCPMSG                            0x08008160   Section        0  dhcp.o(i.makeDHCPMSG)
    i.mypow                                  0x08008224   Section        0  gui.o(i.mypow)
    i.parseDHCPMSG                           0x08008234   Section        0  dhcp.o(i.parseDHCPMSG)
    i.parseDNSMSG                            0x080084b4   Section        0  dns.o(i.parseDNSMSG)
    i.parse_name                             0x0800858c   Section        0  dns.o(i.parse_name)
    i.put16                                  0x080085fe   Section        0  dns.o(i.put16)
    i.recv                                   0x0800860c   Section        0  socket.o(i.recv)
    i.recvfrom                               0x080087c0   Section        0  socket.o(i.recvfrom)
    i.reset_DHCP_timeout                     0x08008a98   Section        0  dhcp.o(i.reset_DHCP_timeout)
    i.reset_w5300                            0x08008aac   Section        0  w5300_conf.o(i.reset_w5300)
    i.send                                   0x08008adc   Section        0  socket.o(i.send)
    i.send_DHCP_DECLINE                      0x08008c14   Section        0  dhcp.o(i.send_DHCP_DECLINE)
    i.send_DHCP_DISCOVER                     0x08008d30   Section        0  dhcp.o(i.send_DHCP_DISCOVER)
    i.send_DHCP_REQUEST                      0x08008f24   Section        0  dhcp.o(i.send_DHCP_REQUEST)
    i.sendto                                 0x080091d0   Section        0  socket.o(i.sendto)
    i.setRMSR                                0x08009440   Section        0  w5300.o(i.setRMSR)
    i.setTMSR                                0x08009472   Section        0  w5300.o(i.setTMSR)
    i.set_w5300_mac                          0x080094a4   Section        0  w5300_conf.o(i.set_w5300_mac)
    i.set_w5300_netinfo                      0x08009574   Section        0  w5300_conf.o(i.set_w5300_netinfo)
    i.socket                                 0x08009748   Section        0  socket.o(i.socket)
    i.sysinit                                0x0800988c   Section        0  w5300_conf.o(i.sysinit)
    i.timer2_isr                             0x080098b4   Section        0  w5300_conf.o(i.timer2_isr)
    i.uBinaryToAscii                         0x08009900   Section        0  serial_studio.o(i.uBinaryToAscii)
    i.uart_insert                            0x08009950   Section        0  tcp_client.o(i.uart_insert)
    i.wiz_recv_data                          0x08009a38   Section        0  w5300.o(i.wiz_recv_data)
    i.wiz_recv_ignore                        0x08009a80   Section        0  w5300.o(i.wiz_recv_ignore)
    i.wiz_send_data                          0x08009aa0   Section        0  w5300.o(i.wiz_send_data)
    i.wizchip_bus_readdata                   0x08009ad0   Section        0  wizchip_conf.o(i.wizchip_bus_readdata)
    i.wizchip_bus_writedata                  0x08009ad4   Section        0  wizchip_conf.o(i.wizchip_bus_writedata)
    i.wizchip_cris_enter                     0x08009ad8   Section        0  wizchip_conf.o(i.wizchip_cris_enter)
    i.wizchip_cris_exit                      0x08009ada   Section        0  wizchip_conf.o(i.wizchip_cris_exit)
    i.wizchip_cs_deselect                    0x08009adc   Section        0  wizchip_conf.o(i.wizchip_cs_deselect)
    i.wizchip_cs_select                      0x08009ade   Section        0  wizchip_conf.o(i.wizchip_cs_select)
    .constdata                               0x08009ae0   Section       16  system_stm32f4xx.o(.constdata)
    .constdata                               0x08009af0   Section        8  system_stm32f4xx.o(.constdata)
    .constdata                               0x08009af8   Section     5806  gui.o(.constdata)
    .constdata                               0x0800b1a6   Section      129  ctype_o.o(.constdata)
    .constdata                               0x0800b228   Section        4  ctype_o.o(.constdata)
    table                                    0x0800b228   Data           4  ctype_o.o(.constdata)
    .conststring                             0x0800b22c   Section      146  mqtt_client.o(.conststring)
    .conststring                             0x0800b2c0   Section      101  tcp_client.o(.conststring)
    .data                                    0x20000000   Section        8  fsmc.o(.data)
    FSMC_Initialized                         0x20000000   Data           4  fsmc.o(.data)
    FSMC_DeInitialized                       0x20000004   Data           4  fsmc.o(.data)
    .data                                    0x20000008   Section       12  stm32f4xx_hal.o(.data)
    .data                                    0x20000014   Section        4  system_stm32f4xx.o(.data)
    .data                                    0x20000018   Section       22  socket.o(.data)
    sock_any_port                            0x20000018   Data           2  socket.o(.data)
    sock_io_mode                             0x2000001a   Data           2  socket.o(.data)
    sock_is_sending                          0x2000001c   Data           2  socket.o(.data)
    .data                                    0x20000030   Section       46  w5300_conf.o(.data)
    .data                                    0x2000005e   Section        2  w5300_conf.o(.data)
    .data                                    0x20000060   Section       52  wizchip_conf.o(.data)
    _DHCP_                                   0x20000060   Data           1  wizchip_conf.o(.data)
    _DNS_                                    0x20000061   Data           4  wizchip_conf.o(.data)
    .data                                    0x20000094   Section       78  dhcp.o(.data)
    .data                                    0x200000e4   Section       12  dns.o(.data)
    retry_count                              0x200000e5   Data           1  dns.o(.data)
    .data                                    0x200000f0   Section        8  mqtt_client.o(.data)
    pkt_id                                   0x200000f0   Data           2  mqtt_client.o(.data)
    .data                                    0x200000f8   Section     1424  tcp_client.o(.data)
    .data                                    0x20000688   Section        2  lcd.o(.data)
    .data                                    0x2000068a   Section        2  lcd.o(.data)
    .data                                    0x2000068c   Section       44  touch.o(.data)
    .data                                    0x200006b8   Section        4  stdout.o(.data)
    .data                                    0x200006bc   Section        4  mvars.o(.data)
    .data                                    0x200006c0   Section        4  mvars.o(.data)
    .data                                    0x200006c4   Section        4  errno.o(.data)
    _errno                                   0x200006c4   Data           4  errno.o(.data)
    .bss                                     0x200006c8   Section      144  adc.o(.bss)
    .bss                                     0x20000758   Section       80  fsmc.o(.bss)
    .bss                                     0x200007a8   Section       72  tim.o(.bss)
    .bss                                     0x200007f0   Section       68  usart.o(.bss)
    .bss                                     0x20000834   Section       32  stm32f4xx_hal_flash.o(.bss)
    .bss                                     0x20000854   Section       16  socket.o(.bss)
    sock_remained_size                       0x20000854   Data          16  socket.o(.bss)
    .bss                                     0x20000864   Section       28  w5300_conf.o(.bss)
    .bss                                     0x20000880   Section     1000  dhcp.o(.bss)
    .bss                                     0x20000c68   Section     1024  dns.o(.bss)
    .bss                                     0x20001068   Section      192  mqtt_client.o(.bss)
    .bss                                     0x20001128   Section     2048  tcp_client.o(.bss)
    .bss                                     0x20001928   Section       14  lcd.o(.bss)
    HEAP                                     0x20001938   Section     1024  startup_stm32f407xx.o(HEAP)
    STACK                                    0x20001d38   Section     2048  startup_stm32f407xx.o(STACK)

    Global Symbols

    Symbol Name                              Value     Ov Type        Size  Object(Section)

    BuildAttributes$$THM_ISAv4$E$P$D$K$B$S$7EM$VFPi3$EXTD16$VFPS$VFMA$PE$A:L22UL41UL21$X:L11$S22US41US21$IEEE1$IW$USESV6$~STKCKD$USESV7$~SHL$OTIME$ROPI$IEEEJ$EBA8$MICROLIB$REQ8$PRES8$EABIv2 0x00000000   Number         0  anon$$obj.o ABSOLUTE
    __ARM_use_no_argv                        0x00000000   Number         0  main.o ABSOLUTE
    _printf_a                                0x00000000   Number         0  stubs.o ABSOLUTE
    _printf_c                                0x00000000   Number         0  stubs.o ABSOLUTE
    _printf_charcount                        0x00000000   Number         0  stubs.o ABSOLUTE
    _printf_d                                0x00000000   Number         0  stubs.o ABSOLUTE
    _printf_e                                0x00000000   Number         0  stubs.o ABSOLUTE
    _printf_f                                0x00000000   Number         0  stubs.o ABSOLUTE
    _printf_flags                            0x00000000   Number         0  stubs.o ABSOLUTE
    _printf_fp_dec                           0x00000000   Number         0  stubs.o ABSOLUTE
    _printf_fp_hex                           0x00000000   Number         0  stubs.o ABSOLUTE
    _printf_g                                0x00000000   Number         0  stubs.o ABSOLUTE
    _printf_i                                0x00000000   Number         0  stubs.o ABSOLUTE
    _printf_int_dec                          0x00000000   Number         0  stubs.o ABSOLUTE
    _printf_l                                0x00000000   Number         0  stubs.o ABSOLUTE
    _printf_lc                               0x00000000   Number         0  stubs.o ABSOLUTE
    _printf_ll                               0x00000000   Number         0  stubs.o ABSOLUTE
    _printf_lld                              0x00000000   Number         0  stubs.o ABSOLUTE
    _printf_lli                              0x00000000   Number         0  stubs.o ABSOLUTE
    _printf_llo                              0x00000000   Number         0  stubs.o ABSOLUTE
    _printf_llu                              0x00000000   Number         0  stubs.o ABSOLUTE
    _printf_llx                              0x00000000   Number         0  stubs.o ABSOLUTE
    _printf_longlong_dec                     0x00000000   Number         0  stubs.o ABSOLUTE
    _printf_longlong_hex                     0x00000000   Number         0  stubs.o ABSOLUTE
    _printf_longlong_oct                     0x00000000   Number         0  stubs.o ABSOLUTE
    _printf_ls                               0x00000000   Number         0  stubs.o ABSOLUTE
    _printf_mbtowc                           0x00000000   Number         0  stubs.o ABSOLUTE
    _printf_n                                0x00000000   Number         0  stubs.o ABSOLUTE
    _printf_o                                0x00000000   Number         0  stubs.o ABSOLUTE
    _printf_p                                0x00000000   Number         0  stubs.o ABSOLUTE
    _printf_percent                          0x00000000   Number         0  stubs.o ABSOLUTE
    _printf_pre_padding                      0x00000000   Number         0  stubs.o ABSOLUTE
    _printf_return_value                     0x00000000   Number         0  stubs.o ABSOLUTE
    _printf_s                                0x00000000   Number         0  stubs.o ABSOLUTE
    _printf_sizespec                         0x00000000   Number         0  stubs.o ABSOLUTE
    _printf_str                              0x00000000   Number         0  stubs.o ABSOLUTE
    _printf_truncate_signed                  0x00000000   Number         0  stubs.o ABSOLUTE
    _printf_truncate_unsigned                0x00000000   Number         0  stubs.o ABSOLUTE
    _printf_u                                0x00000000   Number         0  stubs.o ABSOLUTE
    _printf_wc                               0x00000000   Number         0  stubs.o ABSOLUTE
    _printf_wctomb                           0x00000000   Number         0  stubs.o ABSOLUTE
    _printf_widthprec                        0x00000000   Number         0  stubs.o ABSOLUTE
    _printf_x                                0x00000000   Number         0  stubs.o ABSOLUTE
    __cpp_initialize__aeabi_                  - Undefined Weak Reference
    __cxa_finalize                            - Undefined Weak Reference
    _clock_init                               - Undefined Weak Reference
    _microlib_exit                            - Undefined Weak Reference
    _scanf_int                                - Undefined Weak Reference
    _scanf_longlong                           - Undefined Weak Reference
    _scanf_string                             - Undefined Weak Reference
    __Vectors_Size                           0x00000188   Number         0  startup_stm32f407xx.o ABSOLUTE
    __Vectors                                0x08000000   Data           4  startup_stm32f407xx.o(RESET)
    __Vectors_End                            0x08000188   Data           0  startup_stm32f407xx.o(RESET)
    __main                                   0x08000189   Thumb Code     0  entry.o(.ARM.Collect$$$$00000000)
    _main_stk                                0x08000189   Thumb Code     0  entry2.o(.ARM.Collect$$$$00000001)
    _main_scatterload                        0x0800018d   Thumb Code     0  entry5.o(.ARM.Collect$$$$00000004)
    __main_after_scatterload                 0x08000191   Thumb Code     0  entry5.o(.ARM.Collect$$$$00000004)
    _main_clock                              0x08000191   Thumb Code     0  entry7b.o(.ARM.Collect$$$$00000008)
    _main_cpp_init                           0x08000191   Thumb Code     0  entry8b.o(.ARM.Collect$$$$0000000A)
    _main_init                               0x08000191   Thumb Code     0  entry9a.o(.ARM.Collect$$$$0000000B)
    __rt_final_cpp                           0x08000199   Thumb Code     0  entry10a.o(.ARM.Collect$$$$0000000D)
    __rt_final_exit                          0x08000199   Thumb Code     0  entry11a.o(.ARM.Collect$$$$0000000F)
    Reset_Handler                            0x0800019d   Thumb Code     8  startup_stm32f407xx.o(.text)
    ADC_IRQHandler                           0x080001b7   Thumb Code     0  startup_stm32f407xx.o(.text)
    CAN1_RX0_IRQHandler                      0x080001b7   Thumb Code     0  startup_stm32f407xx.o(.text)
    CAN1_RX1_IRQHandler                      0x080001b7   Thumb Code     0  startup_stm32f407xx.o(.text)
    CAN1_SCE_IRQHandler                      0x080001b7   Thumb Code     0  startup_stm32f407xx.o(.text)
    CAN1_TX_IRQHandler                       0x080001b7   Thumb Code     0  startup_stm32f407xx.o(.text)
    CAN2_RX0_IRQHandler                      0x080001b7   Thumb Code     0  startup_stm32f407xx.o(.text)
    CAN2_RX1_IRQHandler                      0x080001b7   Thumb Code     0  startup_stm32f407xx.o(.text)
    CAN2_SCE_IRQHandler                      0x080001b7   Thumb Code     0  startup_stm32f407xx.o(.text)
    CAN2_TX_IRQHandler                       0x080001b7   Thumb Code     0  startup_stm32f407xx.o(.text)
    DCMI_IRQHandler                          0x080001b7   Thumb Code     0  startup_stm32f407xx.o(.text)
    DMA1_Stream0_IRQHandler                  0x080001b7   Thumb Code     0  startup_stm32f407xx.o(.text)
    DMA1_Stream1_IRQHandler                  0x080001b7   Thumb Code     0  startup_stm32f407xx.o(.text)
    DMA1_Stream2_IRQHandler                  0x080001b7   Thumb Code     0  startup_stm32f407xx.o(.text)
    DMA1_Stream3_IRQHandler                  0x080001b7   Thumb Code     0  startup_stm32f407xx.o(.text)
    DMA1_Stream4_IRQHandler                  0x080001b7   Thumb Code     0  startup_stm32f407xx.o(.text)
    DMA1_Stream5_IRQHandler                  0x080001b7   Thumb Code     0  startup_stm32f407xx.o(.text)
    DMA1_Stream6_IRQHandler                  0x080001b7   Thumb Code     0  startup_stm32f407xx.o(.text)
    DMA1_Stream7_IRQHandler                  0x080001b7   Thumb Code     0  startup_stm32f407xx.o(.text)
    DMA2_Stream0_IRQHandler                  0x080001b7   Thumb Code     0  startup_stm32f407xx.o(.text)
    DMA2_Stream1_IRQHandler                  0x080001b7   Thumb Code     0  startup_stm32f407xx.o(.text)
    DMA2_Stream2_IRQHandler                  0x080001b7   Thumb Code     0  startup_stm32f407xx.o(.text)
    DMA2_Stream3_IRQHandler                  0x080001b7   Thumb Code     0  startup_stm32f407xx.o(.text)
    DMA2_Stream4_IRQHandler                  0x080001b7   Thumb Code     0  startup_stm32f407xx.o(.text)
    DMA2_Stream5_IRQHandler                  0x080001b7   Thumb Code     0  startup_stm32f407xx.o(.text)
    DMA2_Stream6_IRQHandler                  0x080001b7   Thumb Code     0  startup_stm32f407xx.o(.text)
    DMA2_Stream7_IRQHandler                  0x080001b7   Thumb Code     0  startup_stm32f407xx.o(.text)
    ETH_IRQHandler                           0x080001b7   Thumb Code     0  startup_stm32f407xx.o(.text)
    ETH_WKUP_IRQHandler                      0x080001b7   Thumb Code     0  startup_stm32f407xx.o(.text)
    EXTI0_IRQHandler                         0x080001b7   Thumb Code     0  startup_stm32f407xx.o(.text)
    EXTI15_10_IRQHandler                     0x080001b7   Thumb Code     0  startup_stm32f407xx.o(.text)
    EXTI1_IRQHandler                         0x080001b7   Thumb Code     0  startup_stm32f407xx.o(.text)
    EXTI2_IRQHandler                         0x080001b7   Thumb Code     0  startup_stm32f407xx.o(.text)
    EXTI3_IRQHandler                         0x080001b7   Thumb Code     0  startup_stm32f407xx.o(.text)
    EXTI4_IRQHandler                         0x080001b7   Thumb Code     0  startup_stm32f407xx.o(.text)
    EXTI9_5_IRQHandler                       0x080001b7   Thumb Code     0  startup_stm32f407xx.o(.text)
    FLASH_IRQHandler                         0x080001b7   Thumb Code     0  startup_stm32f407xx.o(.text)
    FMC_IRQHandler                           0x080001b7   Thumb Code     0  startup_stm32f407xx.o(.text)
    FPU_IRQHandler                           0x080001b7   Thumb Code     0  startup_stm32f407xx.o(.text)
    HASH_RNG_IRQHandler                      0x080001b7   Thumb Code     0  startup_stm32f407xx.o(.text)
    I2C1_ER_IRQHandler                       0x080001b7   Thumb Code     0  startup_stm32f407xx.o(.text)
    I2C1_EV_IRQHandler                       0x080001b7   Thumb Code     0  startup_stm32f407xx.o(.text)
    I2C2_ER_IRQHandler                       0x080001b7   Thumb Code     0  startup_stm32f407xx.o(.text)
    I2C2_EV_IRQHandler                       0x080001b7   Thumb Code     0  startup_stm32f407xx.o(.text)
    I2C3_ER_IRQHandler                       0x080001b7   Thumb Code     0  startup_stm32f407xx.o(.text)
    I2C3_EV_IRQHandler                       0x080001b7   Thumb Code     0  startup_stm32f407xx.o(.text)
    OTG_FS_IRQHandler                        0x080001b7   Thumb Code     0  startup_stm32f407xx.o(.text)
    OTG_FS_WKUP_IRQHandler                   0x080001b7   Thumb Code     0  startup_stm32f407xx.o(.text)
    OTG_HS_EP1_IN_IRQHandler                 0x080001b7   Thumb Code     0  startup_stm32f407xx.o(.text)
    OTG_HS_EP1_OUT_IRQHandler                0x080001b7   Thumb Code     0  startup_stm32f407xx.o(.text)
    OTG_HS_IRQHandler                        0x080001b7   Thumb Code     0  startup_stm32f407xx.o(.text)
    OTG_HS_WKUP_IRQHandler                   0x080001b7   Thumb Code     0  startup_stm32f407xx.o(.text)
    PVD_IRQHandler                           0x080001b7   Thumb Code     0  startup_stm32f407xx.o(.text)
    RCC_IRQHandler                           0x080001b7   Thumb Code     0  startup_stm32f407xx.o(.text)
    RTC_Alarm_IRQHandler                     0x080001b7   Thumb Code     0  startup_stm32f407xx.o(.text)
    RTC_WKUP_IRQHandler                      0x080001b7   Thumb Code     0  startup_stm32f407xx.o(.text)
    SDIO_IRQHandler                          0x080001b7   Thumb Code     0  startup_stm32f407xx.o(.text)
    SPI1_IRQHandler                          0x080001b7   Thumb Code     0  startup_stm32f407xx.o(.text)
    SPI2_IRQHandler                          0x080001b7   Thumb Code     0  startup_stm32f407xx.o(.text)
    SPI3_IRQHandler                          0x080001b7   Thumb Code     0  startup_stm32f407xx.o(.text)
    TAMP_STAMP_IRQHandler                    0x080001b7   Thumb Code     0  startup_stm32f407xx.o(.text)
    TIM1_BRK_TIM9_IRQHandler                 0x080001b7   Thumb Code     0  startup_stm32f407xx.o(.text)
    TIM1_CC_IRQHandler                       0x080001b7   Thumb Code     0  startup_stm32f407xx.o(.text)
    TIM1_TRG_COM_TIM11_IRQHandler            0x080001b7   Thumb Code     0  startup_stm32f407xx.o(.text)
    TIM1_UP_TIM10_IRQHandler                 0x080001b7   Thumb Code     0  startup_stm32f407xx.o(.text)
    TIM2_IRQHandler                          0x080001b7   Thumb Code     0  startup_stm32f407xx.o(.text)
    TIM3_IRQHandler                          0x080001b7   Thumb Code     0  startup_stm32f407xx.o(.text)
    TIM4_IRQHandler                          0x080001b7   Thumb Code     0  startup_stm32f407xx.o(.text)
    TIM5_IRQHandler                          0x080001b7   Thumb Code     0  startup_stm32f407xx.o(.text)
    TIM7_IRQHandler                          0x080001b7   Thumb Code     0  startup_stm32f407xx.o(.text)
    TIM8_BRK_TIM12_IRQHandler                0x080001b7   Thumb Code     0  startup_stm32f407xx.o(.text)
    TIM8_CC_IRQHandler                       0x080001b7   Thumb Code     0  startup_stm32f407xx.o(.text)
    TIM8_TRG_COM_TIM14_IRQHandler            0x080001b7   Thumb Code     0  startup_stm32f407xx.o(.text)
    TIM8_UP_TIM13_IRQHandler                 0x080001b7   Thumb Code     0  startup_stm32f407xx.o(.text)
    UART4_IRQHandler                         0x080001b7   Thumb Code     0  startup_stm32f407xx.o(.text)
    UART5_IRQHandler                         0x080001b7   Thumb Code     0  startup_stm32f407xx.o(.text)
    USART2_IRQHandler                        0x080001b7   Thumb Code     0  startup_stm32f407xx.o(.text)
    USART3_IRQHandler                        0x080001b7   Thumb Code     0  startup_stm32f407xx.o(.text)
    USART6_IRQHandler                        0x080001b7   Thumb Code     0  startup_stm32f407xx.o(.text)
    WWDG_IRQHandler                          0x080001b7   Thumb Code     0  startup_stm32f407xx.o(.text)
    __aeabi_uldivmod                         0x080001c1   Thumb Code    98  uldiv.o(.text)
    __aeabi_memcpy                           0x08000223   Thumb Code    36  memcpya.o(.text)
    __aeabi_memcpy4                          0x08000223   Thumb Code     0  memcpya.o(.text)
    __aeabi_memcpy8                          0x08000223   Thumb Code     0  memcpya.o(.text)
    __aeabi_memset                           0x08000247   Thumb Code    14  memseta.o(.text)
    __aeabi_memset4                          0x08000247   Thumb Code     0  memseta.o(.text)
    __aeabi_memset8                          0x08000247   Thumb Code     0  memseta.o(.text)
    __aeabi_memclr                           0x08000255   Thumb Code     4  memseta.o(.text)
    __aeabi_memclr4                          0x08000255   Thumb Code     0  memseta.o(.text)
    __aeabi_memclr8                          0x08000255   Thumb Code     0  memseta.o(.text)
    _memset$wrapper                          0x08000259   Thumb Code    18  memseta.o(.text)
    strcat                                   0x0800026b   Thumb Code    24  strcat.o(.text)
    strstr                                   0x08000283   Thumb Code    36  strstr.o(.text)
    strncpy                                  0x080002a7   Thumb Code    24  strncpy.o(.text)
    strchr                                   0x080002bf   Thumb Code    20  strchr.o(.text)
    strlen                                   0x080002d3   Thumb Code    14  strlen.o(.text)
    memcmp                                   0x080002e1   Thumb Code    26  memcmp.o(.text)
    strncat                                  0x080002fb   Thumb Code    40  strncat.o(.text)
    strcpy                                   0x08000323   Thumb Code    18  strcpy.o(.text)
    atoi                                     0x08000335   Thumb Code    26  atoi.o(.text)
    __aeabi_dadd                             0x0800034f   Thumb Code   322  dadd.o(.text)
    __aeabi_dsub                             0x08000491   Thumb Code     6  dadd.o(.text)
    __aeabi_drsub                            0x08000497   Thumb Code     6  dadd.o(.text)
    __aeabi_dmul                             0x0800049d   Thumb Code   228  dmul.o(.text)
    __aeabi_ddiv                             0x08000581   Thumb Code   222  ddiv.o(.text)
    __aeabi_ui2d                             0x0800065f   Thumb Code    26  dfltui.o(.text)
    __aeabi_d2uiz                            0x08000679   Thumb Code    50  dfixui.o(.text)
    __aeabi_f2d                              0x080006ab   Thumb Code    38  f2d.o(.text)
    __aeabi_cdcmpeq                          0x080006d1   Thumb Code     0  cdcmple.o(.text)
    __aeabi_cdcmple                          0x080006d1   Thumb Code    48  cdcmple.o(.text)
    __aeabi_cdrcmple                         0x08000701   Thumb Code    48  cdrcmple.o(.text)
    __aeabi_d2f                              0x08000731   Thumb Code    56  d2f.o(.text)
    __aeabi_uidiv                            0x08000769   Thumb Code     0  uidiv.o(.text)
    __aeabi_uidivmod                         0x08000769   Thumb Code    44  uidiv.o(.text)
    __aeabi_llsl                             0x08000795   Thumb Code    30  llshl.o(.text)
    _ll_shift_l                              0x08000795   Thumb Code     0  llshl.o(.text)
    __aeabi_llsr                             0x080007b3   Thumb Code    32  llushr.o(.text)
    _ll_ushift_r                             0x080007b3   Thumb Code     0  llushr.o(.text)
    __aeabi_lasr                             0x080007d3   Thumb Code    36  llsshr.o(.text)
    _ll_sshift_r                             0x080007d3   Thumb Code     0  llsshr.o(.text)
    strtol                                   0x080007f7   Thumb Code   112  strtol.o(.text)
    __I$use$fp                               0x08000867   Thumb Code     0  iusefp.o(.text)
    _float_round                             0x08000867   Thumb Code    18  fepilogue.o(.text)
    _float_epilogue                          0x08000879   Thumb Code    92  fepilogue.o(.text)
    _double_round                            0x080008d5   Thumb Code    30  depilogue.o(.text)
    _double_epilogue                         0x080008f3   Thumb Code   156  depilogue.o(.text)
    _dsqrt                                   0x0800098f   Thumb Code   162  dsqrt.o(.text)
    __aeabi_d2ulz                            0x08000a31   Thumb Code    48  dfixul.o(.text)
    __scatterload                            0x08000a61   Thumb Code    28  init.o(.text)
    __scatterload_rt2                        0x08000a61   Thumb Code     0  init.o(.text)
    __rt_ctype_table                         0x08000a85   Thumb Code     4  ctype_o.o(.text)
    _strtoul                                 0x08000a8d   Thumb Code   158  _strtoul.o(.text)
    _chval                                   0x08000b2b   Thumb Code    28  _chval.o(.text)
    __decompress                             0x08000b47   Thumb Code     0  __dczerorl2.o(.text)
    __decompress1                            0x08000b47   Thumb Code    86  __dczerorl2.o(.text)
    AT24CXX_Init                             0x08000cc5   Thumb Code     4  24cxx.o(i.AT24CXX_Init)
    AT24CXX_ReadLenByte                      0x08000cc9   Thumb Code    42  24cxx.o(i.AT24CXX_ReadLenByte)
    AT24CXX_ReadOneByte                      0x08000cf3   Thumb Code    66  24cxx.o(i.AT24CXX_ReadOneByte)
    AT24CXX_WriteLenByte                     0x08000d35   Thumb Code    42  24cxx.o(i.AT24CXX_WriteLenByte)
    AT24CXX_WriteOneByte                     0x08000d5f   Thumb Code    62  24cxx.o(i.AT24CXX_WriteOneByte)
    BD_TG_DevLink                            0x08000d9d   Thumb Code   190  mqtt_client.o(i.BD_TG_DevLink)
    BD_TG_Publish                            0x08000fb9   Thumb Code    84  mqtt_client.o(i.BD_TG_Publish)
    BD_TG_RevPro                             0x0800102d   Thumb Code   556  mqtt_client.o(i.BD_TG_RevPro)
    BD_TG_Subscribe                          0x08001441   Thumb Code   100  mqtt_client.o(i.BD_TG_Subscribe)
    BusFault_Handler                         0x080014c1   Thumb Code     2  stm32f4xx_it.o(i.BusFault_Handler)
    DHCP_init                                0x080014c5   Thumb Code   256  dhcp.o(i.DHCP_init)
    DHCP_run                                 0x080015d1   Thumb Code   356  dhcp.o(i.DHCP_run)
    DHT11_CheckExist                         0x080017fd   Thumb Code    88  dht11.o(i.DHT11_CheckExist)
    DHT11_IO_IN                              0x08001859   Thumb Code    56  dht11.o(i.DHT11_IO_IN)
    DHT11_IO_OUT                             0x08001899   Thumb Code    68  dht11.o(i.DHT11_IO_OUT)
    DHT11_Init                               0x080018e5   Thumb Code    14  dht11.o(i.DHT11_Init)
    DHT11_Read_Bit                           0x080018f5   Thumb Code    86  dht11.o(i.DHT11_Read_Bit)
    DHT11_Read_Byte                          0x08001951   Thumb Code    26  dht11.o(i.DHT11_Read_Byte)
    DHT11_Read_Data                          0x0800196b   Thumb Code    80  dht11.o(i.DHT11_Read_Data)
    DHT11_Reset                              0x080019bd   Thumb Code    48  dht11.o(i.DHT11_Reset)
    DNS_init                                 0x080019f1   Thumb Code    14  dns.o(i.DNS_init)
    DNS_run                                  0x08001a05   Thumb Code   242  dns.o(i.DNS_run)
    DebugMon_Handler                         0x08001ba5   Thumb Code     2  stm32f4xx_it.o(i.DebugMon_Handler)
    English_Font_test                        0x08001ba9   Thumb Code   390  show_lcd.o(i.English_Font_test)
    Error_Handler                            0x08001dc9   Thumb Code     4  main.o(i.Error_Handler)
    FLASH_Erase_Sector                       0x08001dcd   Thumb Code    74  stm32f4xx_hal_flash_ex.o(i.FLASH_Erase_Sector)
    FLASH_FlushCaches                        0x08001e1d   Thumb Code    80  stm32f4xx_hal_flash_ex.o(i.FLASH_FlushCaches)
    FLASH_WaitForLastOperation               0x08001f95   Thumb Code    72  stm32f4xx_hal_flash.o(i.FLASH_WaitForLastOperation)
    FSMC_NORSRAM_Extended_Timing_Init        0x08001fe5   Thumb Code    56  stm32f4xx_ll_fsmc.o(i.FSMC_NORSRAM_Extended_Timing_Init)
    FSMC_NORSRAM_Init                        0x08002021   Thumb Code    98  stm32f4xx_ll_fsmc.o(i.FSMC_NORSRAM_Init)
    FSMC_NORSRAM_Timing_Init                 0x08002089   Thumb Code    64  stm32f4xx_ll_fsmc.o(i.FSMC_NORSRAM_Timing_Init)
    Fan1_Relay_Close                         0x080020cd   Thumb Code    10  relay.o(i.Fan1_Relay_Close)
    Fan1_Relay_Open                          0x080020dd   Thumb Code    10  relay.o(i.Fan1_Relay_Open)
    Fan2_Relay_Close                         0x080020ed   Thumb Code    10  relay.o(i.Fan2_Relay_Close)
    Fan2_Relay_Open                          0x080020fd   Thumb Code    12  relay.o(i.Fan2_Relay_Open)
    Fan3_Relay_Close                         0x0800210d   Thumb Code    10  relay.o(i.Fan3_Relay_Close)
    Fan3_Relay_Open                          0x0800211d   Thumb Code    12  relay.o(i.Fan3_Relay_Open)
    Fan_State                                0x0800212d   Thumb Code    20  relay.o(i.Fan_State)
    GUI_DrawFont16                           0x08002145   Thumb Code   222  gui.o(i.GUI_DrawFont16)
    GUI_DrawFont24                           0x08002231   Thumb Code   226  gui.o(i.GUI_DrawFont24)
    GUI_DrawFont32                           0x08002321   Thumb Code   222  gui.o(i.GUI_DrawFont32)
    GUI_DrawPoint                            0x0800240d   Thumb Code    18  gui.o(i.GUI_DrawPoint)
    Gui_StrCenter                            0x08002421   Thumb Code    62  gui.o(i.Gui_StrCenter)
    HAL_ADC_ConfigChannel                    0x08002465   Thumb Code   316  stm32f4xx_hal_adc.o(i.HAL_ADC_ConfigChannel)
    HAL_ADC_GetValue                         0x080025b1   Thumb Code     6  stm32f4xx_hal_adc.o(i.HAL_ADC_GetValue)
    HAL_ADC_Init                             0x080025b7   Thumb Code    84  stm32f4xx_hal_adc.o(i.HAL_ADC_Init)
    HAL_ADC_MspInit                          0x0800260d   Thumb Code   126  adc.o(i.HAL_ADC_MspInit)
    HAL_ADC_PollForConversion                0x0800269d   Thumb Code   170  stm32f4xx_hal_adc.o(i.HAL_ADC_PollForConversion)
    HAL_ADC_Start                            0x08002749   Thumb Code   228  stm32f4xx_hal_adc.o(i.HAL_ADC_Start)
    HAL_ADC_Stop                             0x08002845   Thumb Code    60  stm32f4xx_hal_adc.o(i.HAL_ADC_Stop)
    HAL_DMA_Abort                            0x08002881   Thumb Code   146  stm32f4xx_hal_dma.o(i.HAL_DMA_Abort)
    HAL_DMA_Abort_IT                         0x08002913   Thumb Code    36  stm32f4xx_hal_dma.o(i.HAL_DMA_Abort_IT)
    HAL_Delay                                0x08002939   Thumb Code    32  stm32f4xx_hal.o(i.HAL_Delay)
    HAL_Delay_us                             0x0800295d   Thumb Code    44  stm32f4xx_hal.o(i.HAL_Delay_us)
    HAL_FLASHEx_Erase                        0x0800298d   Thumb Code   144  stm32f4xx_hal_flash_ex.o(i.HAL_FLASHEx_Erase)
    HAL_FLASH_Lock                           0x08002a25   Thumb Code    14  stm32f4xx_hal_flash.o(i.HAL_FLASH_Lock)
    HAL_FLASH_Program                        0x08002a39   Thumb Code   116  stm32f4xx_hal_flash.o(i.HAL_FLASH_Program)
    HAL_FLASH_Unlock                         0x08002ab5   Thumb Code    32  stm32f4xx_hal_flash.o(i.HAL_FLASH_Unlock)
    HAL_GPIO_Init                            0x08002b85   Thumb Code   450  stm32f4xx_hal_gpio.o(i.HAL_GPIO_Init)
    HAL_GPIO_ReadPin                         0x08002d75   Thumb Code    10  stm32f4xx_hal_gpio.o(i.HAL_GPIO_ReadPin)
    HAL_GPIO_WritePin                        0x08002d7f   Thumb Code    10  stm32f4xx_hal_gpio.o(i.HAL_GPIO_WritePin)
    HAL_GetTick                              0x08002d89   Thumb Code     6  stm32f4xx_hal.o(i.HAL_GetTick)
    HAL_IncTick                              0x08002d95   Thumb Code    12  stm32f4xx_hal.o(i.HAL_IncTick)
    HAL_Init                                 0x08002da5   Thumb Code    48  stm32f4xx_hal.o(i.HAL_Init)
    HAL_InitTick                             0x08002dd9   Thumb Code    54  stm32f4xx_hal.o(i.HAL_InitTick)
    HAL_MspInit                              0x08002e19   Thumb Code    42  stm32f4xx_hal_msp.o(i.HAL_MspInit)
    HAL_NVIC_EnableIRQ                       0x08002e49   Thumb Code    26  stm32f4xx_hal_cortex.o(i.HAL_NVIC_EnableIRQ)
    HAL_NVIC_SetPriority                     0x08002e65   Thumb Code    60  stm32f4xx_hal_cortex.o(i.HAL_NVIC_SetPriority)
    HAL_NVIC_SetPriorityGrouping             0x08002ea5   Thumb Code    26  stm32f4xx_hal_cortex.o(i.HAL_NVIC_SetPriorityGrouping)
    HAL_RCC_ClockConfig                      0x08002ec9   Thumb Code   288  stm32f4xx_hal_rcc.o(i.HAL_RCC_ClockConfig)
    HAL_RCC_GetHCLKFreq                      0x08002ffd   Thumb Code     6  stm32f4xx_hal_rcc.o(i.HAL_RCC_GetHCLKFreq)
    HAL_RCC_GetPCLK1Freq                     0x08003009   Thumb Code    20  stm32f4xx_hal_rcc.o(i.HAL_RCC_GetPCLK1Freq)
    HAL_RCC_GetPCLK2Freq                     0x08003029   Thumb Code    20  stm32f4xx_hal_rcc.o(i.HAL_RCC_GetPCLK2Freq)
    HAL_RCC_GetSysClockFreq                  0x08003049   Thumb Code    88  stm32f4xx_hal_rcc.o(i.HAL_RCC_GetSysClockFreq)
    HAL_RCC_OscConfig                        0x080030a9   Thumb Code   856  stm32f4xx_hal_rcc.o(i.HAL_RCC_OscConfig)
    HAL_SRAM_Init                            0x08003415   Thumb Code    92  stm32f4xx_hal_sram.o(i.HAL_SRAM_Init)
    HAL_SRAM_MspInit                         0x08003471   Thumb Code     4  fsmc.o(i.HAL_SRAM_MspInit)
    HAL_SYSTICK_Config                       0x08003475   Thumb Code    40  stm32f4xx_hal_cortex.o(i.HAL_SYSTICK_Config)
    HAL_TIMEx_BreakCallback                  0x0800349d   Thumb Code     2  stm32f4xx_hal_tim_ex.o(i.HAL_TIMEx_BreakCallback)
    HAL_TIMEx_CommutCallback                 0x0800349f   Thumb Code     2  stm32f4xx_hal_tim_ex.o(i.HAL_TIMEx_CommutCallback)
    HAL_TIMEx_MasterConfigSynchronization    0x080034a1   Thumb Code   116  stm32f4xx_hal_tim_ex.o(i.HAL_TIMEx_MasterConfigSynchronization)
    HAL_TIM_Base_Init                        0x08003531   Thumb Code    90  stm32f4xx_hal_tim.o(i.HAL_TIM_Base_Init)
    HAL_TIM_Base_MspInit                     0x0800358d   Thumb Code    50  tim.o(i.HAL_TIM_Base_MspInit)
    HAL_TIM_Base_Start_IT                    0x080035c9   Thumb Code   100  stm32f4xx_hal_tim.o(i.HAL_TIM_Base_Start_IT)
    HAL_TIM_IC_CaptureCallback               0x08003649   Thumb Code     2  stm32f4xx_hal_tim.o(i.HAL_TIM_IC_CaptureCallback)
    HAL_TIM_IRQHandler                       0x0800364b   Thumb Code   358  stm32f4xx_hal_tim.o(i.HAL_TIM_IRQHandler)
    HAL_TIM_OC_DelayElapsedCallback          0x080037b1   Thumb Code     2  stm32f4xx_hal_tim.o(i.HAL_TIM_OC_DelayElapsedCallback)
    HAL_TIM_PWM_PulseFinishedCallback        0x080037b3   Thumb Code     2  stm32f4xx_hal_tim.o(i.HAL_TIM_PWM_PulseFinishedCallback)
    HAL_TIM_PeriodElapsedCallback            0x080037b5   Thumb Code    16  tim.o(i.HAL_TIM_PeriodElapsedCallback)
    HAL_TIM_TriggerCallback                  0x080037c9   Thumb Code     2  stm32f4xx_hal_tim.o(i.HAL_TIM_TriggerCallback)
    HAL_UARTEx_RxEventCallback               0x080037cb   Thumb Code     2  stm32f4xx_hal_uart.o(i.HAL_UARTEx_RxEventCallback)
    HAL_UART_ErrorCallback                   0x080037cd   Thumb Code     2  stm32f4xx_hal_uart.o(i.HAL_UART_ErrorCallback)
    HAL_UART_IRQHandler                      0x080037d1   Thumb Code   610  stm32f4xx_hal_uart.o(i.HAL_UART_IRQHandler)
    HAL_UART_Init                            0x08003a39   Thumb Code    98  stm32f4xx_hal_uart.o(i.HAL_UART_Init)
    HAL_UART_MspInit                         0x08003a9d   Thumb Code   110  usart.o(i.HAL_UART_MspInit)
    HAL_UART_RxCpltCallback                  0x08003b19   Thumb Code     2  stm32f4xx_hal_uart.o(i.HAL_UART_RxCpltCallback)
    HAL_UART_Transmit                        0x08003b1d   Thumb Code   178  stm32f4xx_hal_uart.o(i.HAL_UART_Transmit)
    HAL_UART_TxCpltCallback                  0x08003bcf   Thumb Code     2  stm32f4xx_hal_uart.o(i.HAL_UART_TxCpltCallback)
    HardFault_Handler                        0x08003bd1   Thumb Code     2  stm32f4xx_it.o(i.HardFault_Handler)
    IIC_Ack                                  0x08003bd5   Thumb Code    56  myiic.o(i.IIC_Ack)
    IIC_Init                                 0x08003c15   Thumb Code    80  myiic.o(i.IIC_Init)
    IIC_NAck                                 0x08003c71   Thumb Code    56  myiic.o(i.IIC_NAck)
    IIC_Read_Byte                            0x08003cb1   Thumb Code    96  myiic.o(i.IIC_Read_Byte)
    IIC_Send_Byte                            0x08003d19   Thumb Code    86  myiic.o(i.IIC_Send_Byte)
    IIC_Start                                0x08003d79   Thumb Code    56  myiic.o(i.IIC_Start)
    IIC_Stop                                 0x08003db9   Thumb Code    58  myiic.o(i.IIC_Stop)
    IIC_Wait_Ack                             0x08003dfd   Thumb Code    74  myiic.o(i.IIC_Wait_Ack)
    LCD_Clear                                0x08003e51   Thumb Code    82  lcd.o(i.LCD_Clear)
    LCD_DrawLine                             0x08003ead   Thumb Code   154  gui.o(i.LCD_DrawLine)
    LCD_DrawPoint                            0x08003f49   Thumb Code    18  lcd.o(i.LCD_DrawPoint)
    LCD_Init                                 0x08003f61   Thumb Code   584  lcd.o(i.LCD_Init)
    LCD_RESET                                0x080041ad   Thumb Code    34  lcd.o(i.LCD_RESET)
    LCD_SetCursor                            0x080041d5   Thumb Code     8  lcd.o(i.LCD_SetCursor)
    LCD_SetWindows                           0x080041dd   Thumb Code    88  lcd.o(i.LCD_SetWindows)
    LCD_ShowChar                             0x08004239   Thumb Code   246  gui.o(i.LCD_ShowChar)
    LCD_ShowNum                              0x08004341   Thumb Code   126  gui.o(i.LCD_ShowNum)
    LCD_ShowString                           0x080043c5   Thumb Code    82  gui.o(i.LCD_ShowString)
    LCD_WR_DATA                              0x08004425   Thumb Code    28  lcd.o(i.LCD_WR_DATA)
    LCD_WR_REG                               0x08004445   Thumb Code    28  lcd.o(i.LCD_WR_REG)
    LCD_WriteRAM_Prepare                     0x08004465   Thumb Code     8  lcd.o(i.LCD_WriteRAM_Prepare)
    LCD_WriteReg                             0x08004471   Thumb Code    18  lcd.o(i.LCD_WriteReg)
    LCD_direction                            0x08004485   Thumb Code    72  lcd.o(i.LCD_direction)
    Lcd_WriteData_16Bit                      0x080044d1   Thumb Code    38  lcd.o(i.Lcd_WriteData_16Bit)
    MQTT_DeleteBuffer                        0x080044fd   Thumb Code    28  mqttkit.o(i.MQTT_DeleteBuffer)
    MQTT_DumpLength                          0x08004519   Thumb Code    38  mqttkit.o(i.MQTT_DumpLength)
    MQTT_NewBuffer                           0x0800453f   Thumb Code    82  mqttkit.o(i.MQTT_NewBuffer)
    MQTT_PacketCmdResp                       0x08004591   Thumb Code   114  mqttkit.o(i.MQTT_PacketCmdResp)
    MQTT_PacketConnect                       0x0800460d   Thumb Code   606  mqttkit.o(i.MQTT_PacketConnect)
    MQTT_PacketPublish                       0x08004871   Thumb Code   264  mqttkit.o(i.MQTT_PacketPublish)
    MQTT_PacketPublishAck                    0x08004979   Thumb Code    70  mqttkit.o(i.MQTT_PacketPublishAck)
    MQTT_PacketPublishComp                   0x080049bf   Thumb Code    70  mqttkit.o(i.MQTT_PacketPublishComp)
    MQTT_PacketPublishRec                    0x08004a05   Thumb Code    70  mqttkit.o(i.MQTT_PacketPublishRec)
    MQTT_PacketPublishRel                    0x08004a4b   Thumb Code    70  mqttkit.o(i.MQTT_PacketPublishRel)
    MQTT_PacketSubscribe                     0x08004a91   Thumb Code   218  mqttkit.o(i.MQTT_PacketSubscribe)
    MQTT_PacketUnSubscribe                   0x08004b6d   Thumb Code   206  mqttkit.o(i.MQTT_PacketUnSubscribe)
    MQTT_ReadLength                          0x08004c3b   Thumb Code    62  mqttkit.o(i.MQTT_ReadLength)
    MQTT_UnPacketCmd                         0x08004c79   Thumb Code   118  mqttkit.o(i.MQTT_UnPacketCmd)
    MQTT_UnPacketConnectAck                  0x08004cef   Thumb Code    26  mqttkit.o(i.MQTT_UnPacketConnectAck)
    MQTT_UnPacketPublish                     0x08004d09   Thumb Code   298  mqttkit.o(i.MQTT_UnPacketPublish)
    MQTT_UnPacketPublishAck                  0x08004e3d   Thumb Code    24  mqttkit.o(i.MQTT_UnPacketPublishAck)
    MQTT_UnPacketPublishComp                 0x08004e55   Thumb Code    24  mqttkit.o(i.MQTT_UnPacketPublishComp)
    MQTT_UnPacketPublishRec                  0x08004e6d   Thumb Code    24  mqttkit.o(i.MQTT_UnPacketPublishRec)
    MQTT_UnPacketPublishRel                  0x08004e85   Thumb Code    30  mqttkit.o(i.MQTT_UnPacketPublishRel)
    MQTT_UnPacketRecv                        0x08004ea5   Thumb Code    86  mqttkit.o(i.MQTT_UnPacketRecv)
    MQTT_UnPacketSubscribe                   0x08004f05   Thumb Code    44  mqttkit.o(i.MQTT_UnPacketSubscribe)
    MQTT_UnPacketUnSubscribe                 0x08004f31   Thumb Code    18  mqttkit.o(i.MQTT_UnPacketUnSubscribe)
    MQTT_UnSubscribe                         0x08004f45   Thumb Code    82  mqtt_client.o(i.MQTT_UnSubscribe)
    MX_ADC1_Init                             0x08004fad   Thumb Code    88  adc.o(i.MX_ADC1_Init)
    MX_ADC2_Init                             0x08005011   Thumb Code    88  adc.o(i.MX_ADC2_Init)
    MX_FSMC_Init                             0x08005075   Thumb Code   124  fsmc.o(i.MX_FSMC_Init)
    MX_GPIO_Init                             0x080050f9   Thumb Code   404  gpio.o(i.MX_GPIO_Init)
    MX_TIM6_Init                             0x080052a9   Thumb Code    62  tim.o(i.MX_TIM6_Init)
    MX_USART1_UART_Init                      0x080052f1   Thumb Code    48  usart.o(i.MX_USART1_UART_Init)
    MemManage_Handler                        0x08005329   Thumb Code     2  stm32f4xx_it.o(i.MemManage_Handler)
    NMI_Handler                              0x0800532b   Thumb Code     2  stm32f4xx_it.o(i.NMI_Handler)
    NibbleToHex                              0x0800532d   Thumb Code    16  dhcp.o(i.NibbleToHex)
    PendSV_Handler                           0x0800533d   Thumb Code     2  stm32f4xx_it.o(i.PendSV_Handler)
    ReadFlashNBtye                           0x08005341   Thumb Code     8  bsp_flash.o(i.ReadFlashNBtye)
    SPIv_WriteData                           0x0800534d   Thumb Code    46  spi.o(i.SPIv_WriteData)
    STMFLASH_GetFlashSector                  0x08005381   Thumb Code   114  bsp_flash.o(i.STMFLASH_GetFlashSector)
    STMFLASH_Read                            0x08005421   Thumb Code    20  bsp_flash.o(i.STMFLASH_Read)
    STMFLASH_Write                           0x08005435   Thumb Code   146  bsp_flash.o(i.STMFLASH_Write)
    SVC_Handler                              0x080054cd   Thumb Code     2  stm32f4xx_it.o(i.SVC_Handler)
    Show_Str                                 0x080054d1   Thumb Code   200  gui.o(i.Show_Str)
    SysTick_Handler                          0x0800559d   Thumb Code     4  stm32f4xx_it.o(i.SysTick_Handler)
    SystemClock_Config                       0x080055a1   Thumb Code   142  main.o(i.SystemClock_Config)
    SystemInit                               0x08005639   Thumb Code    12  system_stm32f4xx.o(i.SystemInit)
    TIM6_DAC_IRQHandler                      0x08005649   Thumb Code     6  stm32f4xx_it.o(i.TIM6_DAC_IRQHandler)
    TIM_Base_SetConfig                       0x08005655   Thumb Code   156  stm32f4xx_hal_tim.o(i.TIM_Base_SetConfig)
    TP_Adj_Info_Show                         0x0800571d   Thumb Code   294  touch.o(i.TP_Adj_Info_Show)
    TP_Adjust                                0x08005871   Thumb Code   984  touch.o(i.TP_Adjust)
    TP_Drow_Touch_Point                      0x08005cad   Thumb Code   118  touch.o(i.TP_Drow_Touch_Point)
    TP_Get_Adjdata                           0x08005d29   Thumb Code   130  touch.o(i.TP_Get_Adjdata)
    TP_Init                                  0x08005db5   Thumb Code   236  touch.o(i.TP_Init)
    TP_Read_AD                               0x08005eb5   Thumb Code   126  touch.o(i.TP_Read_AD)
    TP_Read_XOY                              0x08005f41   Thumb Code   100  touch.o(i.TP_Read_XOY)
    TP_Read_XY                               0x08005fa5   Thumb Code    34  touch.o(i.TP_Read_XY)
    TP_Read_XY2                              0x08005fcd   Thumb Code   122  touch.o(i.TP_Read_XY2)
    TP_Save_Adjdata                          0x08006049   Thumb Code   110  touch.o(i.TP_Save_Adjdata)
    TP_Scan                                  0x080060c1   Thumb Code   172  touch.o(i.TP_Scan)
    TP_Write_Byte                            0x08006175   Thumb Code    64  touch.o(i.TP_Write_Byte)
    Touch_Test                               0x080061bd   Thumb Code  1270  show_lcd.o(i.Touch_Test)
    USART1_IRQHandler                        0x08006995   Thumb Code     6  stm32f4xx_it.o(i.USART1_IRQHandler)
    UsageFault_Handler                       0x080069a1   Thumb Code     2  stm32f4xx_it.o(i.UsageFault_Handler)
    WIZCHIP_READ                             0x080069a5   Thumb Code     6  w5300.o(i.WIZCHIP_READ)
    WIZCHIP_WRITE                            0x080069b1   Thumb Code     6  w5300.o(i.WIZCHIP_WRITE)
    Yl69_Read                                0x080069bd   Thumb Code   118  yl_69.o(i.Yl69_Read)
    __0printf                                0x08006a59   Thumb Code    22  printfa.o(i.__0printf)
    __1printf                                0x08006a59   Thumb Code     0  printfa.o(i.__0printf)
    __2printf                                0x08006a59   Thumb Code     0  printfa.o(i.__0printf)
    __c89printf                              0x08006a59   Thumb Code     0  printfa.o(i.__0printf)
    printf                                   0x08006a59   Thumb Code     0  printfa.o(i.__0printf)
    __aeabi_errno_addr                       0x08006a99   Thumb Code     4  errno.o(i.__aeabi_errno_addr)
    __rt_errno_addr                          0x08006a99   Thumb Code     0  errno.o(i.__aeabi_errno_addr)
    free                                     0x08006aa1   Thumb Code    88  mallocr.o(i.__free$realloc)
    __hardfp_sqrt                            0x08006afd   Thumb Code   122  sqrt.o(i.__hardfp_sqrt)
    malloc                                   0x08006b79   Thumb Code    64  mallocr.o(i.__malloc$realloc)
    __scatterload_copy                       0x08006bc9   Thumb Code    14  handlers.o(i.__scatterload_copy)
    __scatterload_null                       0x08006bd7   Thumb Code     2  handlers.o(i.__scatterload_null)
    __scatterload_zeroinit                   0x08006bd9   Thumb Code    14  handlers.o(i.__scatterload_zeroinit)
    __set_errno                              0x08006be9   Thumb Code     6  errno.o(i.__set_errno)
    _draw_circle_8                           0x08006bf5   Thumb Code   152  gui.o(i._draw_circle_8)
    aly_sensor                               0x08007521   Thumb Code   186  tcp_client.o(i.aly_sensor)
    check_DHCP_leasedIP                      0x08007625   Thumb Code    80  dhcp.o(i.check_DHCP_leasedIP)
    check_DHCP_timeout                       0x080076ad   Thumb Code   102  dhcp.o(i.check_DHCP_timeout)
    check_DNS_timeout                        0x08007719   Thumb Code    36  dns.o(i.check_DNS_timeout)
    close                                    0x08007741   Thumb Code   232  socket.o(i.close)
    connect                                  0x08007839   Thumb Code   276  socket.o(i.connect)
    default_ip_assign                        0x08007955   Thumb Code   290  dhcp.o(i.default_ip_assign)
    default_ip_conflict                      0x08007aed   Thumb Code    68  dhcp.o(i.default_ip_conflict)
    default_ip_update                        0x08007b39   Thumb Code    72  dhcp.o(i.default_ip_update)
    dhcp_timer_init                          0x08007b89   Thumb Code    16  w5300_conf.o(i.dhcp_timer_init)
    dns_answer                               0x08007b9d   Thumb Code   174  dns.o(i.dns_answer)
    dns_makequery                            0x08007c4d   Thumb Code   176  dns.o(i.dns_makequery)
    dns_question                             0x08007d01   Thumb Code    30  dns.o(i.dns_question)
    do_mqtttcp_client                        0x08007d21   Thumb Code   348  tcp_client.o(i.do_mqtttcp_client)
    fputc                                    0x08007ee1   Thumb Code    20  usart.o(i.fputc)
    g5516_Read                               0x08007ef9   Thumb Code    68  g5516.o(i.g5516_Read)
    get16                                    0x08007f65   Thumb Code    12  dns.o(i.get16)
    getRMSR                                  0x08007f71   Thumb Code    34  w5300.o(i.getRMSR)
    getSn_RX_RSR                             0x08007f95   Thumb Code    60  w5300.o(i.getSn_RX_RSR)
    getSn_TX_FSR                             0x08007fd9   Thumb Code    48  w5300.o(i.getSn_TX_FSR)
    getTMSR                                  0x0800800d   Thumb Code    34  w5300.o(i.getTMSR)
    gui_circle                               0x0800802f   Thumb Code   132  gui.o(i.gui_circle)
    main                                     0x08008105   Thumb Code    74  main.o(i.main)
    makeDHCPMSG                              0x08008161   Thumb Code   190  dhcp.o(i.makeDHCPMSG)
    mypow                                    0x08008225   Thumb Code    16  gui.o(i.mypow)
    parseDHCPMSG                             0x08008235   Thumb Code   474  dhcp.o(i.parseDHCPMSG)
    parseDNSMSG                              0x080084b5   Thumb Code   214  dns.o(i.parseDNSMSG)
    parse_name                               0x0800858d   Thumb Code   114  dns.o(i.parse_name)
    put16                                    0x080085ff   Thumb Code    12  dns.o(i.put16)
    recv                                     0x0800860d   Thumb Code   424  socket.o(i.recv)
    recvfrom                                 0x080087c1   Thumb Code   716  socket.o(i.recvfrom)
    reset_DHCP_timeout                       0x08008a99   Thumb Code    14  dhcp.o(i.reset_DHCP_timeout)
    reset_w5300                              0x08008aad   Thumb Code    44  w5300_conf.o(i.reset_w5300)
    send                                     0x08008add   Thumb Code   302  socket.o(i.send)
    send_DHCP_DECLINE                        0x08008c15   Thumb Code   256  dhcp.o(i.send_DHCP_DECLINE)
    send_DHCP_DISCOVER                       0x08008d31   Thumb Code   472  dhcp.o(i.send_DHCP_DISCOVER)
    send_DHCP_REQUEST                        0x08008f25   Thumb Code   656  dhcp.o(i.send_DHCP_REQUEST)
    sendto                                   0x080091d1   Thumb Code   612  socket.o(i.sendto)
    setRMSR                                  0x08009441   Thumb Code    50  w5300.o(i.setRMSR)
    setTMSR                                  0x08009473   Thumb Code    50  w5300.o(i.setTMSR)
    set_w5300_mac                            0x080094a5   Thumb Code   152  w5300_conf.o(i.set_w5300_mac)
    set_w5300_netinfo                        0x08009575   Thumb Code   400  w5300_conf.o(i.set_w5300_netinfo)
    socket                                   0x08009749   Thumb Code   308  socket.o(i.socket)
    sysinit                                  0x0800988d   Thumb Code    36  w5300_conf.o(i.sysinit)
    timer2_isr                               0x080098b5   Thumb Code    58  w5300_conf.o(i.timer2_isr)
    uBinaryToAscii                           0x08009901   Thumb Code    80  serial_studio.o(i.uBinaryToAscii)
    uart_insert                              0x08009951   Thumb Code   232  tcp_client.o(i.uart_insert)
    wiz_recv_data                            0x08009a39   Thumb Code    62  w5300.o(i.wiz_recv_data)
    wiz_recv_ignore                          0x08009a81   Thumb Code    28  w5300.o(i.wiz_recv_ignore)
    wiz_send_data                            0x08009aa1   Thumb Code    44  w5300.o(i.wiz_send_data)
    wizchip_bus_readdata                     0x08009ad1   Thumb Code     4  wizchip_conf.o(i.wizchip_bus_readdata)
    wizchip_bus_writedata                    0x08009ad5   Thumb Code     4  wizchip_conf.o(i.wizchip_bus_writedata)
    wizchip_cris_enter                       0x08009ad9   Thumb Code     2  wizchip_conf.o(i.wizchip_cris_enter)
    wizchip_cris_exit                        0x08009adb   Thumb Code     2  wizchip_conf.o(i.wizchip_cris_exit)
    wizchip_cs_deselect                      0x08009add   Thumb Code     2  wizchip_conf.o(i.wizchip_cs_deselect)
    wizchip_cs_select                        0x08009adf   Thumb Code     2  wizchip_conf.o(i.wizchip_cs_select)
    AHBPrescTable                            0x08009ae0   Data          16  system_stm32f4xx.o(.constdata)
    APBPrescTable                            0x08009af0   Data           8  system_stm32f4xx.o(.constdata)
    asc2_1206                                0x08009af8   Data        1140  gui.o(.constdata)
    asc2_1608                                0x08009f6c   Data        1520  gui.o(.constdata)
    tfont16                                  0x0800a55c   Data        2108  gui.o(.constdata)
    tfont24                                  0x0800ad98   Data         518  gui.o(.constdata)
    tfont32                                  0x0800af9e   Data         520  gui.o(.constdata)
    __ctype_table                            0x0800b1a6   Data         129  ctype_o.o(.constdata)
    Region$$Table$$Base                      0x0800b328   Number         0  anon$$obj.o(Region$$Table)
    Region$$Table$$Limit                     0x0800b348   Number         0  anon$$obj.o(Region$$Table)
    uwTickFreq                               0x20000008   Data           1  stm32f4xx_hal.o(.data)
    uwTickPrio                               0x2000000c   Data           4  stm32f4xx_hal.o(.data)
    uwTick                                   0x20000010   Data           4  stm32f4xx_hal.o(.data)
    SystemCoreClock                          0x20000014   Data           4  system_stm32f4xx.o(.data)
    sock_pack_info                           0x2000001e   Data           8  socket.o(.data)
    sock_remained_byte                       0x20000026   Data           8  socket.o(.data)
    ip_from                                  0x20000030   Data           1  w5300_conf.o(.data)
    s                                        0x20000031   Data           1  w5300_conf.o(.data)
    MQTT_ping_time                           0x20000032   Data           1  w5300_conf.o(.data)
    local_ip                                 0x20000033   Data           4  w5300_conf.o(.data)
    subnet                                   0x20000037   Data           4  w5300_conf.o(.data)
    gateway                                  0x2000003b   Data           4  w5300_conf.o(.data)
    dns_server                               0x2000003f   Data           4  w5300_conf.o(.data)
    ms                                       0x20000044   Data           4  w5300_conf.o(.data)
    mac                                      0x20000048   Data           6  w5300_conf.o(.data)
    txsize                                   0x2000004e   Data           8  w5300_conf.o(.data)
    rxsize                                   0x20000056   Data           8  w5300_conf.o(.data)
    local_port                               0x2000005e   Data           2  w5300_conf.o(.data)
    WIZCHIP                                  0x20000068   Data          44  wizchip_conf.o(.data)
    dhcp_state                               0x20000094   Data           1  dhcp.o(.data)
    dhcp_retry_count                         0x20000095   Data           1  dhcp.o(.data)
    DHCP_SOCKET                              0x20000096   Data           1  dhcp.o(.data)
    OLD_allocated_ip                         0x20000097   Data           4  dhcp.o(.data)
    DHCP_allocated_ip                        0x2000009b   Data           4  dhcp.o(.data)
    DHCP_allocated_gw                        0x2000009f   Data           4  dhcp.o(.data)
    DHCP_allocated_sn                        0x200000a3   Data           4  dhcp.o(.data)
    DHCP_allocated_dns                       0x200000a7   Data           4  dhcp.o(.data)
    dhcp_lease_time                          0x200000ac   Data           4  dhcp.o(.data)
    dhcp_tick_1s                             0x200000b0   Data           4  dhcp.o(.data)
    dhcp_tick_next                           0x200000b4   Data           4  dhcp.o(.data)
    dhcp_ip_assign                           0x200000b8   Data           4  dhcp.o(.data)
    dhcp_ip_update                           0x200000bc   Data           4  dhcp.o(.data)
    dhcp_ip_conflict                         0x200000c0   Data           4  dhcp.o(.data)
    DHCP_SIP                                 0x200000c4   Data           4  dhcp.o(.data)
    DHCP_REAL_SIP                            0x200000c8   Data           4  dhcp.o(.data)
    DHCP_XID                                 0x200000cc   Data           4  dhcp.o(.data)
    pDHCPMSG                                 0x200000d0   Data           4  dhcp.o(.data)
    DHCP_CHADDR                              0x200000d4   Data           6  dhcp.o(.data)
    HOST_NAME                                0x200000da   Data           8  dhcp.o(.data)
    DNS_SOCKET                               0x200000e4   Data           1  dns.o(.data)
    DNS_MSGID                                0x200000e6   Data           2  dns.o(.data)
    pDNSMSG                                  0x200000e8   Data           4  dns.o(.data)
    dns_1s_tick                              0x200000ec   Data           4  dns.o(.data)
    flag                                     0x200000f4   Data           4  mqtt_client.o(.data)
    mqtt_connect                             0x200000f8   Data           1  tcp_client.o(.data)
    temperature                              0x200000f9   Data           1  tcp_client.o(.data)
    humidity                                 0x200000fa   Data           1  tcp_client.o(.data)
    yl69_humidity                            0x200000fb   Data           1  tcp_client.o(.data)
    BD_TG_server_port                        0x200000fc   Data           2  tcp_client.o(.data)
    BD_TG_ping_pak                           0x200000fe   Data           2  tcp_client.o(.data)
    g5516_LightLux                           0x20000100   Data           2  tcp_client.o(.data)
    BD_TG_server_ip                          0x20000102   Data           4  tcp_client.o(.data)
    MQTT_STATE                               0x20000108   Data           4  tcp_client.o(.data)
    data_ptr                                 0x2000010c   Data           4  tcp_client.o(.data)
    device_set_topics                        0x20000110   Data         600  tcp_client.o(.data)
    device_set_topics1                       0x20000368   Data         600  tcp_client.o(.data)
    aly_sensor_arr                           0x200005c0   Data         200  tcp_client.o(.data)
    POINT_COLOR                              0x20000688   Data           2  lcd.o(.data)
    BACK_COLOR                               0x2000068a   Data           2  lcd.o(.data)
    CMD_RDX                                  0x2000068c   Data           1  touch.o(.data)
    CMD_RDY                                  0x2000068d   Data           1  touch.o(.data)
    tp_dev                                   0x20000690   Data          40  touch.o(.data)
    __stdout                                 0x200006b8   Data           4  stdout.o(.data)
    __microlib_freelist                      0x200006bc   Data           4  mvars.o(.data)
    __microlib_freelist_initialised          0x200006c0   Data           4  mvars.o(.data)
    hadc1                                    0x200006c8   Data          72  adc.o(.bss)
    hadc2                                    0x20000710   Data          72  adc.o(.bss)
    hsram1                                   0x20000758   Data          80  fsmc.o(.bss)
    htim6                                    0x200007a8   Data          72  tim.o(.bss)
    huart1                                   0x200007f0   Data          68  usart.o(.bss)
    pFlash                                   0x20000834   Data          32  stm32f4xx_hal_flash.o(.bss)
    ConfigMsg                                0x20000864   Data          28  w5300_conf.o(.bss)
    EXTERN_DHCPBUF                           0x20000880   Data        1000  dhcp.o(.bss)
    DNSBUF                                   0x20000c68   Data        1024  dns.o(.bss)
    w5500_buf                                0x20001068   Data         128  mqtt_client.o(.bss)
    publish_buf                              0x200010e8   Data          64  mqtt_client.o(.bss)
    tcp_client_buff                          0x20001128   Data        2048  tcp_client.o(.bss)
    lcddev                                   0x20001928   Data          14  lcd.o(.bss)
    __heap_base                              0x20001938   Data           0  startup_stm32f407xx.o(HEAP)
    __heap_limit                             0x20001d38   Data           0  startup_stm32f407xx.o(HEAP)
    __initial_sp                             0x20002538   Data           0  startup_stm32f407xx.o(STACK)



==============================================================================

Memory Map of the image

  Image Entry point : 0x08000189

  Load Region LR_IROM1 (Base: 0x08000000, Size: 0x0000ba10, Max: 0x00080000, ABSOLUTE, COMPRESSED[0x0000b478])

    Execution Region ER_IROM1 (Base: 0x08000000, Size: 0x0000b348, Max: 0x00080000, ABSOLUTE)

    Base Addr    Size         Type   Attr      Idx    E Section Name        Object

    0x08000000   0x00000188   Data   RO            3    RESET               startup_stm32f407xx.o
    0x08000188   0x00000000   Code   RO         6354  * .ARM.Collect$$$$00000000  mc_w.l(entry.o)
    0x08000188   0x00000004   Code   RO         6712    .ARM.Collect$$$$00000001  mc_w.l(entry2.o)
    0x0800018c   0x00000004   Code   RO         6715    .ARM.Collect$$$$00000004  mc_w.l(entry5.o)
    0x08000190   0x00000000   Code   RO         6717    .ARM.Collect$$$$00000008  mc_w.l(entry7b.o)
    0x08000190   0x00000000   Code   RO         6719    .ARM.Collect$$$$0000000A  mc_w.l(entry8b.o)
    0x08000190   0x00000008   Code   RO         6720    .ARM.Collect$$$$0000000B  mc_w.l(entry9a.o)
    0x08000198   0x00000000   Code   RO         6722    .ARM.Collect$$$$0000000D  mc_w.l(entry10a.o)
    0x08000198   0x00000000   Code   RO         6724    .ARM.Collect$$$$0000000F  mc_w.l(entry11a.o)
    0x08000198   0x00000004   Code   RO         6713    .ARM.Collect$$$$00002712  mc_w.l(entry2.o)
    0x0800019c   0x00000024   Code   RO            4    .text               startup_stm32f407xx.o
    0x080001c0   0x00000062   Code   RO         6357    .text               mc_w.l(uldiv.o)
    0x08000222   0x00000024   Code   RO         6361    .text               mc_w.l(memcpya.o)
    0x08000246   0x00000024   Code   RO         6363    .text               mc_w.l(memseta.o)
    0x0800026a   0x00000018   Code   RO         6365    .text               mc_w.l(strcat.o)
    0x08000282   0x00000024   Code   RO         6367    .text               mc_w.l(strstr.o)
    0x080002a6   0x00000018   Code   RO         6369    .text               mc_w.l(strncpy.o)
    0x080002be   0x00000014   Code   RO         6371    .text               mc_w.l(strchr.o)
    0x080002d2   0x0000000e   Code   RO         6373    .text               mc_w.l(strlen.o)
    0x080002e0   0x0000001a   Code   RO         6377    .text               mc_w.l(memcmp.o)
    0x080002fa   0x00000028   Code   RO         6379    .text               mc_w.l(strncat.o)
    0x08000322   0x00000012   Code   RO         6381    .text               mc_w.l(strcpy.o)
    0x08000334   0x0000001a   Code   RO         6688    .text               mc_w.l(atoi.o)
    0x0800034e   0x0000014e   Code   RO         6690    .text               mf_w.l(dadd.o)
    0x0800049c   0x000000e4   Code   RO         6692    .text               mf_w.l(dmul.o)
    0x08000580   0x000000de   Code   RO         6694    .text               mf_w.l(ddiv.o)
    0x0800065e   0x0000001a   Code   RO         6698    .text               mf_w.l(dfltui.o)
    0x08000678   0x00000032   Code   RO         6702    .text               mf_w.l(dfixui.o)
    0x080006aa   0x00000026   Code   RO         6704    .text               mf_w.l(f2d.o)
    0x080006d0   0x00000030   Code   RO         6706    .text               mf_w.l(cdcmple.o)
    0x08000700   0x00000030   Code   RO         6708    .text               mf_w.l(cdrcmple.o)
    0x08000730   0x00000038   Code   RO         6710    .text               mf_w.l(d2f.o)
    0x08000768   0x0000002c   Code   RO         6727    .text               mc_w.l(uidiv.o)
    0x08000794   0x0000001e   Code   RO         6729    .text               mc_w.l(llshl.o)
    0x080007b2   0x00000020   Code   RO         6731    .text               mc_w.l(llushr.o)
    0x080007d2   0x00000024   Code   RO         6733    .text               mc_w.l(llsshr.o)
    0x080007f6   0x00000070   Code   RO         6750    .text               mc_w.l(strtol.o)
    0x08000866   0x00000000   Code   RO         6752    .text               mc_w.l(iusefp.o)
    0x08000866   0x0000006e   Code   RO         6753    .text               mf_w.l(fepilogue.o)
    0x080008d4   0x000000ba   Code   RO         6755    .text               mf_w.l(depilogue.o)
    0x0800098e   0x000000a2   Code   RO         6757    .text               mf_w.l(dsqrt.o)
    0x08000a30   0x00000030   Code   RO         6761    .text               mf_w.l(dfixul.o)
    0x08000a60   0x00000024   Code   RO         6763    .text               mc_w.l(init.o)
    0x08000a84   0x00000008   Code   RO         6767    .text               mc_w.l(ctype_o.o)
    0x08000a8c   0x0000009e   Code   RO         6797    .text               mc_w.l(_strtoul.o)
    0x08000b2a   0x0000001c   Code   RO         6802    .text               mc_w.l(_chval.o)
    0x08000b46   0x00000056   Code   RO         6812    .text               mc_w.l(__dczerorl2.o)
    0x08000b9c   0x00000128   Code   RO          582    i.ADC_Init          stm32f4xx_hal_adc.o
    0x08000cc4   0x00000004   Code   RO         5739    i.AT24CXX_Init      24cxx.o
    0x08000cc8   0x0000002a   Code   RO         5741    i.AT24CXX_ReadLenByte  24cxx.o
    0x08000cf2   0x00000042   Code   RO         5742    i.AT24CXX_ReadOneByte  24cxx.o
    0x08000d34   0x0000002a   Code   RO         5744    i.AT24CXX_WriteLenByte  24cxx.o
    0x08000d5e   0x0000003e   Code   RO         5745    i.AT24CXX_WriteOneByte  24cxx.o
    0x08000d9c   0x0000021c   Code   RO         4555    i.BD_TG_DevLink     mqtt_client.o
    0x08000fb8   0x00000074   Code   RO         4556    i.BD_TG_Publish     mqtt_client.o
    0x0800102c   0x00000414   Code   RO         4557    i.BD_TG_RevPro      mqtt_client.o
    0x08001440   0x00000080   Code   RO         4558    i.BD_TG_Subscribe   mqtt_client.o
    0x080014c0   0x00000002   Code   RO          467    i.BusFault_Handler  stm32f4xx_it.o
    0x080014c2   0x00000002   PAD
    0x080014c4   0x0000010c   Code   RO         4163    i.DHCP_init         dhcp.o
    0x080015d0   0x0000022c   Code   RO         4164    i.DHCP_run          dhcp.o
    0x080017fc   0x0000005c   Code   RO         5495    i.DHT11_CheckExist  dht11.o
    0x08001858   0x00000040   Code   RO         5496    i.DHT11_IO_IN       dht11.o
    0x08001898   0x0000004c   Code   RO         5497    i.DHT11_IO_OUT      dht11.o
    0x080018e4   0x0000000e   Code   RO         5498    i.DHT11_Init        dht11.o
    0x080018f2   0x00000002   PAD
    0x080018f4   0x0000005c   Code   RO         5499    i.DHT11_Read_Bit    dht11.o
    0x08001950   0x0000001a   Code   RO         5500    i.DHT11_Read_Byte   dht11.o
    0x0800196a   0x00000050   Code   RO         5501    i.DHT11_Read_Data   dht11.o
    0x080019ba   0x00000002   PAD
    0x080019bc   0x00000034   Code   RO         5502    i.DHT11_Reset       dht11.o
    0x080019f0   0x00000014   Code   RO         4330    i.DNS_init          dns.o
    0x08001a04   0x000001a0   Code   RO         4331    i.DNS_run           dns.o
    0x08001ba4   0x00000002   Code   RO          468    i.DebugMon_Handler  stm32f4xx_it.o
    0x08001ba6   0x00000002   PAD
    0x08001ba8   0x00000220   Code   RO         6154    i.English_Font_test  show_lcd.o
    0x08001dc8   0x00000004   Code   RO           13    i.Error_Handler     main.o
    0x08001dcc   0x00000050   Code   RO         1131    i.FLASH_Erase_Sector  stm32f4xx_hal_flash_ex.o
    0x08001e1c   0x00000054   Code   RO         1132    i.FLASH_FlushCaches  stm32f4xx_hal_flash_ex.o
    0x08001e70   0x00000028   Code   RO         1133    i.FLASH_MassErase   stm32f4xx_hal_flash_ex.o
    0x08001e98   0x00000020   Code   RO         1013    i.FLASH_Program_Byte  stm32f4xx_hal_flash.o
    0x08001eb8   0x0000002c   Code   RO         1014    i.FLASH_Program_DoubleWord  stm32f4xx_hal_flash.o
    0x08001ee4   0x00000024   Code   RO         1015    i.FLASH_Program_HalfWord  stm32f4xx_hal_flash.o
    0x08001f08   0x00000024   Code   RO         1016    i.FLASH_Program_Word  stm32f4xx_hal_flash.o
    0x08001f2c   0x00000068   Code   RO         1017    i.FLASH_SetErrorCode  stm32f4xx_hal_flash.o
    0x08001f94   0x00000050   Code   RO         1018    i.FLASH_WaitForLastOperation  stm32f4xx_hal_flash.o
    0x08001fe4   0x0000003c   Code   RO         2003    i.FSMC_NORSRAM_Extended_Timing_Init  stm32f4xx_ll_fsmc.o
    0x08002020   0x00000068   Code   RO         2004    i.FSMC_NORSRAM_Init  stm32f4xx_ll_fsmc.o
    0x08002088   0x00000044   Code   RO         2005    i.FSMC_NORSRAM_Timing_Init  stm32f4xx_ll_fsmc.o
    0x080020cc   0x00000010   Code   RO         5563    i.Fan1_Relay_Close  relay.o
    0x080020dc   0x00000010   Code   RO         5564    i.Fan1_Relay_Open   relay.o
    0x080020ec   0x00000010   Code   RO         5565    i.Fan2_Relay_Close  relay.o
    0x080020fc   0x00000010   Code   RO         5566    i.Fan2_Relay_Open   relay.o
    0x0800210c   0x00000010   Code   RO         5567    i.Fan3_Relay_Close  relay.o
    0x0800211c   0x00000010   Code   RO         5568    i.Fan3_Relay_Open   relay.o
    0x0800212c   0x00000018   Code   RO         5569    i.Fan_State         relay.o
    0x08002144   0x000000ec   Code   RO         5815    i.GUI_DrawFont16    gui.o
    0x08002230   0x000000f0   Code   RO         5816    i.GUI_DrawFont24    gui.o
    0x08002320   0x000000ec   Code   RO         5817    i.GUI_DrawFont32    gui.o
    0x0800240c   0x00000012   Code   RO         5818    i.GUI_DrawPoint     gui.o
    0x0800241e   0x00000002   PAD
    0x08002420   0x00000044   Code   RO         5820    i.Gui_StrCenter     gui.o
    0x08002464   0x0000014c   Code   RO          584    i.HAL_ADC_ConfigChannel  stm32f4xx_hal_adc.o
    0x080025b0   0x00000006   Code   RO          591    i.HAL_ADC_GetValue  stm32f4xx_hal_adc.o
    0x080025b6   0x00000054   Code   RO          593    i.HAL_ADC_Init      stm32f4xx_hal_adc.o
    0x0800260a   0x00000002   PAD
    0x0800260c   0x00000090   Code   RO          276    i.HAL_ADC_MspInit   adc.o
    0x0800269c   0x000000aa   Code   RO          597    i.HAL_ADC_PollForConversion  stm32f4xx_hal_adc.o
    0x08002746   0x00000002   PAD
    0x08002748   0x000000fc   Code   RO          599    i.HAL_ADC_Start     stm32f4xx_hal_adc.o
    0x08002844   0x0000003c   Code   RO          602    i.HAL_ADC_Stop      stm32f4xx_hal_adc.o
    0x08002880   0x00000092   Code   RO         1319    i.HAL_DMA_Abort     stm32f4xx_hal_dma.o
    0x08002912   0x00000024   Code   RO         1320    i.HAL_DMA_Abort_IT  stm32f4xx_hal_dma.o
    0x08002936   0x00000002   PAD
    0x08002938   0x00000024   Code   RO         1738    i.HAL_Delay         stm32f4xx_hal.o
    0x0800295c   0x00000030   Code   RO         1739    i.HAL_Delay_us      stm32f4xx_hal.o
    0x0800298c   0x00000098   Code   RO         1134    i.HAL_FLASHEx_Erase  stm32f4xx_hal_flash_ex.o
    0x08002a24   0x00000014   Code   RO         1022    i.HAL_FLASH_Lock    stm32f4xx_hal_flash.o
    0x08002a38   0x0000007c   Code   RO         1027    i.HAL_FLASH_Program  stm32f4xx_hal_flash.o
    0x08002ab4   0x0000002c   Code   RO         1029    i.HAL_FLASH_Unlock  stm32f4xx_hal_flash.o
    0x08002ae0   0x000000a4   Code   RO          323    i.HAL_FSMC_MspInit  fsmc.o
    0x08002b84   0x000001f0   Code   RO         1212    i.HAL_GPIO_Init     stm32f4xx_hal_gpio.o
    0x08002d74   0x0000000a   Code   RO         1214    i.HAL_GPIO_ReadPin  stm32f4xx_hal_gpio.o
    0x08002d7e   0x0000000a   Code   RO         1216    i.HAL_GPIO_WritePin  stm32f4xx_hal_gpio.o
    0x08002d88   0x0000000c   Code   RO         1745    i.HAL_GetTick       stm32f4xx_hal.o
    0x08002d94   0x00000010   Code   RO         1751    i.HAL_IncTick       stm32f4xx_hal.o
    0x08002da4   0x00000034   Code   RO         1752    i.HAL_Init          stm32f4xx_hal.o
    0x08002dd8   0x00000040   Code   RO         1753    i.HAL_InitTick      stm32f4xx_hal.o
    0x08002e18   0x00000030   Code   RO          555    i.HAL_MspInit       stm32f4xx_hal_msp.o
    0x08002e48   0x0000001a   Code   RO         1601    i.HAL_NVIC_EnableIRQ  stm32f4xx_hal_cortex.o
    0x08002e62   0x00000002   PAD
    0x08002e64   0x00000040   Code   RO         1607    i.HAL_NVIC_SetPriority  stm32f4xx_hal_cortex.o
    0x08002ea4   0x00000024   Code   RO         1608    i.HAL_NVIC_SetPriorityGrouping  stm32f4xx_hal_cortex.o
    0x08002ec8   0x00000134   Code   RO          858    i.HAL_RCC_ClockConfig  stm32f4xx_hal_rcc.o
    0x08002ffc   0x0000000c   Code   RO          863    i.HAL_RCC_GetHCLKFreq  stm32f4xx_hal_rcc.o
    0x08003008   0x00000020   Code   RO          865    i.HAL_RCC_GetPCLK1Freq  stm32f4xx_hal_rcc.o
    0x08003028   0x00000020   Code   RO          866    i.HAL_RCC_GetPCLK2Freq  stm32f4xx_hal_rcc.o
    0x08003048   0x00000060   Code   RO          867    i.HAL_RCC_GetSysClockFreq  stm32f4xx_hal_rcc.o
    0x080030a8   0x0000036c   Code   RO          870    i.HAL_RCC_OscConfig  stm32f4xx_hal_rcc.o
    0x08003414   0x0000005c   Code   RO         2125    i.HAL_SRAM_Init     stm32f4xx_hal_sram.o
    0x08003470   0x00000004   Code   RO          325    i.HAL_SRAM_MspInit  fsmc.o
    0x08003474   0x00000028   Code   RO         1612    i.HAL_SYSTICK_Config  stm32f4xx_hal_cortex.o
    0x0800349c   0x00000002   Code   RO         2962    i.HAL_TIMEx_BreakCallback  stm32f4xx_hal_tim_ex.o
    0x0800349e   0x00000002   Code   RO         2963    i.HAL_TIMEx_CommutCallback  stm32f4xx_hal_tim_ex.o
    0x080034a0   0x00000090   Code   RO         2981    i.HAL_TIMEx_MasterConfigSynchronization  stm32f4xx_hal_tim_ex.o
    0x08003530   0x0000005a   Code   RO         2258    i.HAL_TIM_Base_Init  stm32f4xx_hal_tim.o
    0x0800358a   0x00000002   PAD
    0x0800358c   0x0000003c   Code   RO          372    i.HAL_TIM_Base_MspInit  tim.o
    0x080035c8   0x00000080   Code   RO         2263    i.HAL_TIM_Base_Start_IT  stm32f4xx_hal_tim.o
    0x08003648   0x00000002   Code   RO         2292    i.HAL_TIM_IC_CaptureCallback  stm32f4xx_hal_tim.o
    0x0800364a   0x00000166   Code   RO         2306    i.HAL_TIM_IRQHandler  stm32f4xx_hal_tim.o
    0x080037b0   0x00000002   Code   RO         2309    i.HAL_TIM_OC_DelayElapsedCallback  stm32f4xx_hal_tim.o
    0x080037b2   0x00000002   Code   RO         2336    i.HAL_TIM_PWM_PulseFinishedCallback  stm32f4xx_hal_tim.o
    0x080037b4   0x00000014   Code   RO          373    i.HAL_TIM_PeriodElapsedCallback  tim.o
    0x080037c8   0x00000002   Code   RO         2349    i.HAL_TIM_TriggerCallback  stm32f4xx_hal_tim.o
    0x080037ca   0x00000002   Code   RO         3240    i.HAL_UARTEx_RxEventCallback  stm32f4xx_hal_uart.o
    0x080037cc   0x00000002   Code   RO         3254    i.HAL_UART_ErrorCallback  stm32f4xx_hal_uart.o
    0x080037ce   0x00000002   PAD
    0x080037d0   0x00000268   Code   RO         3257    i.HAL_UART_IRQHandler  stm32f4xx_hal_uart.o
    0x08003a38   0x00000062   Code   RO         3258    i.HAL_UART_Init     stm32f4xx_hal_uart.o
    0x08003a9a   0x00000002   PAD
    0x08003a9c   0x0000007c   Code   RO          420    i.HAL_UART_MspInit  usart.o
    0x08003b18   0x00000002   Code   RO         3264    i.HAL_UART_RxCpltCallback  stm32f4xx_hal_uart.o
    0x08003b1a   0x00000002   PAD
    0x08003b1c   0x000000b2   Code   RO         3266    i.HAL_UART_Transmit  stm32f4xx_hal_uart.o
    0x08003bce   0x00000002   Code   RO         3269    i.HAL_UART_TxCpltCallback  stm32f4xx_hal_uart.o
    0x08003bd0   0x00000002   Code   RO          469    i.HardFault_Handler  stm32f4xx_it.o
    0x08003bd2   0x00000002   PAD
    0x08003bd4   0x00000040   Code   RO         6087    i.IIC_Ack           myiic.o
    0x08003c14   0x0000005c   Code   RO         6088    i.IIC_Init          myiic.o
    0x08003c70   0x00000040   Code   RO         6089    i.IIC_NAck          myiic.o
    0x08003cb0   0x00000068   Code   RO         6090    i.IIC_Read_Byte     myiic.o
    0x08003d18   0x00000060   Code   RO         6091    i.IIC_Send_Byte     myiic.o
    0x08003d78   0x00000040   Code   RO         6092    i.IIC_Start         myiic.o
    0x08003db8   0x00000044   Code   RO         6093    i.IIC_Stop          myiic.o
    0x08003dfc   0x00000054   Code   RO         6094    i.IIC_Wait_Ack      myiic.o
    0x08003e50   0x0000005c   Code   RO         5991    i.LCD_Clear         lcd.o
    0x08003eac   0x0000009a   Code   RO         5822    i.LCD_DrawLine      gui.o
    0x08003f46   0x00000002   PAD
    0x08003f48   0x00000018   Code   RO         5992    i.LCD_DrawPoint     lcd.o
    0x08003f60   0x0000024c   Code   RO         5993    i.LCD_Init          lcd.o
    0x080041ac   0x00000028   Code   RO         5994    i.LCD_RESET         lcd.o
    0x080041d4   0x00000008   Code   RO         5995    i.LCD_SetCursor     lcd.o
    0x080041dc   0x0000005c   Code   RO         5996    i.LCD_SetWindows    lcd.o
    0x08004238   0x00000108   Code   RO         5825    i.LCD_ShowChar      gui.o
    0x08004340   0x00000084   Code   RO         5826    i.LCD_ShowNum       gui.o
    0x080043c4   0x00000060   Code   RO         5827    i.LCD_ShowString    gui.o
    0x08004424   0x00000020   Code   RO         5997    i.LCD_WR_DATA       lcd.o
    0x08004444   0x00000020   Code   RO         5998    i.LCD_WR_REG        lcd.o
    0x08004464   0x0000000c   Code   RO         5999    i.LCD_WriteRAM_Prepare  lcd.o
    0x08004470   0x00000012   Code   RO         6000    i.LCD_WriteReg      lcd.o
    0x08004482   0x00000002   PAD
    0x08004484   0x0000004c   Code   RO         6001    i.LCD_direction     lcd.o
    0x080044d0   0x0000002c   Code   RO         6002    i.Lcd_WriteData_16Bit  lcd.o
    0x080044fc   0x0000001c   Code   RO         4615    i.MQTT_DeleteBuffer  mqttkit.o
    0x08004518   0x00000026   Code   RO         4616    i.MQTT_DumpLength   mqttkit.o
    0x0800453e   0x00000052   Code   RO         4617    i.MQTT_NewBuffer    mqttkit.o
    0x08004590   0x0000007c   Code   RO         4618    i.MQTT_PacketCmdResp  mqttkit.o
    0x0800460c   0x00000264   Code   RO         4619    i.MQTT_PacketConnect  mqttkit.o
    0x08004870   0x00000108   Code   RO         4622    i.MQTT_PacketPublish  mqttkit.o
    0x08004978   0x00000046   Code   RO         4623    i.MQTT_PacketPublishAck  mqttkit.o
    0x080049be   0x00000046   Code   RO         4624    i.MQTT_PacketPublishComp  mqttkit.o
    0x08004a04   0x00000046   Code   RO         4625    i.MQTT_PacketPublishRec  mqttkit.o
    0x08004a4a   0x00000046   Code   RO         4626    i.MQTT_PacketPublishRel  mqttkit.o
    0x08004a90   0x000000da   Code   RO         4628    i.MQTT_PacketSubscribe  mqttkit.o
    0x08004b6a   0x00000002   PAD
    0x08004b6c   0x000000ce   Code   RO         4629    i.MQTT_PacketUnSubscribe  mqttkit.o
    0x08004c3a   0x0000003e   Code   RO         4630    i.MQTT_ReadLength   mqttkit.o
    0x08004c78   0x00000076   Code   RO         4631    i.MQTT_UnPacketCmd  mqttkit.o
    0x08004cee   0x0000001a   Code   RO         4632    i.MQTT_UnPacketConnectAck  mqttkit.o
    0x08004d08   0x00000134   Code   RO         4633    i.MQTT_UnPacketPublish  mqttkit.o
    0x08004e3c   0x00000018   Code   RO         4634    i.MQTT_UnPacketPublishAck  mqttkit.o
    0x08004e54   0x00000018   Code   RO         4635    i.MQTT_UnPacketPublishComp  mqttkit.o
    0x08004e6c   0x00000018   Code   RO         4636    i.MQTT_UnPacketPublishRec  mqttkit.o
    0x08004e84   0x0000001e   Code   RO         4637    i.MQTT_UnPacketPublishRel  mqttkit.o
    0x08004ea2   0x00000002   PAD
    0x08004ea4   0x00000060   Code   RO         4638    i.MQTT_UnPacketRecv  mqttkit.o
    0x08004f04   0x0000002c   Code   RO         4639    i.MQTT_UnPacketSubscribe  mqttkit.o
    0x08004f30   0x00000012   Code   RO         4640    i.MQTT_UnPacketUnSubscribe  mqttkit.o
    0x08004f42   0x00000002   PAD
    0x08004f44   0x00000068   Code   RO         4559    i.MQTT_UnSubscribe  mqtt_client.o
    0x08004fac   0x00000064   Code   RO          277    i.MX_ADC1_Init      adc.o
    0x08005010   0x00000064   Code   RO          278    i.MX_ADC2_Init      adc.o
    0x08005074   0x00000084   Code   RO          326    i.MX_FSMC_Init      fsmc.o
    0x080050f8   0x000001b0   Code   RO          251    i.MX_GPIO_Init      gpio.o
    0x080052a8   0x00000048   Code   RO          374    i.MX_TIM6_Init      tim.o
    0x080052f0   0x00000038   Code   RO          421    i.MX_USART1_UART_Init  usart.o
    0x08005328   0x00000002   Code   RO          470    i.MemManage_Handler  stm32f4xx_it.o
    0x0800532a   0x00000002   Code   RO          471    i.NMI_Handler       stm32f4xx_it.o
    0x0800532c   0x00000010   Code   RO         4167    i.NibbleToHex       dhcp.o
    0x0800533c   0x00000002   Code   RO          472    i.PendSV_Handler    stm32f4xx_it.o
    0x0800533e   0x00000002   PAD
    0x08005340   0x0000000c   Code   RO         4107    i.ReadFlashNBtye    bsp_flash.o
    0x0800534c   0x00000034   Code   RO         6202    i.SPIv_WriteData    spi.o
    0x08005380   0x000000a0   Code   RO         4108    i.STMFLASH_GetFlashSector  bsp_flash.o
    0x08005420   0x00000014   Code   RO         4109    i.STMFLASH_Read     bsp_flash.o
    0x08005434   0x00000098   Code   RO         4111    i.STMFLASH_Write    bsp_flash.o
    0x080054cc   0x00000002   Code   RO          473    i.SVC_Handler       stm32f4xx_it.o
    0x080054ce   0x00000002   PAD
    0x080054d0   0x000000cc   Code   RO         5828    i.Show_Str          gui.o
    0x0800559c   0x00000004   Code   RO          474    i.SysTick_Handler   stm32f4xx_it.o
    0x080055a0   0x00000098   Code   RO           14    i.SystemClock_Config  main.o
    0x08005638   0x00000010   Code   RO         3587    i.SystemInit        system_stm32f4xx.o
    0x08005648   0x0000000c   Code   RO          475    i.TIM6_DAC_IRQHandler  stm32f4xx_it.o
    0x08005654   0x000000c8   Code   RO         2351    i.TIM_Base_SetConfig  stm32f4xx_hal_tim.o
    0x0800571c   0x00000154   Code   RO         6229    i.TP_Adj_Info_Show  touch.o
    0x08005870   0x0000043c   Code   RO         6230    i.TP_Adjust         touch.o
    0x08005cac   0x0000007c   Code   RO         6232    i.TP_Drow_Touch_Point  touch.o
    0x08005d28   0x0000008c   Code   RO         6233    i.TP_Get_Adjdata    touch.o
    0x08005db4   0x00000100   Code   RO         6234    i.TP_Init           touch.o
    0x08005eb4   0x0000008c   Code   RO         6235    i.TP_Read_AD        touch.o
    0x08005f40   0x00000064   Code   RO         6236    i.TP_Read_XOY       touch.o
    0x08005fa4   0x00000028   Code   RO         6237    i.TP_Read_XY        touch.o
    0x08005fcc   0x0000007a   Code   RO         6238    i.TP_Read_XY2       touch.o
    0x08006046   0x00000002   PAD
    0x08006048   0x00000078   Code   RO         6239    i.TP_Save_Adjdata   touch.o
    0x080060c0   0x000000b4   Code   RO         6240    i.TP_Scan           touch.o
    0x08006174   0x00000048   Code   RO         6241    i.TP_Write_Byte     touch.o
    0x080061bc   0x00000534   Code   RO         6155    i.Touch_Test        show_lcd.o
    0x080066f0   0x00000010   Code   RO         3271    i.UART_DMAAbortOnError  stm32f4xx_hal_uart.o
    0x08006700   0x0000004e   Code   RO         3281    i.UART_EndRxTransfer  stm32f4xx_hal_uart.o
    0x0800674e   0x000000c0   Code   RO         3283    i.UART_Receive_IT   stm32f4xx_hal_uart.o
    0x0800680e   0x00000002   PAD
    0x08006810   0x0000010c   Code   RO         3284    i.UART_SetConfig    stm32f4xx_hal_uart.o
    0x0800691c   0x00000078   Code   RO         3287    i.UART_WaitOnFlagUntilTimeout  stm32f4xx_hal_uart.o
    0x08006994   0x0000000c   Code   RO          476    i.USART1_IRQHandler  stm32f4xx_it.o
    0x080069a0   0x00000002   Code   RO          477    i.UsageFault_Handler  stm32f4xx_it.o
    0x080069a2   0x00000002   PAD
    0x080069a4   0x0000000c   Code   RO         3713    i.WIZCHIP_READ      w5300.o
    0x080069b0   0x0000000c   Code   RO         3714    i.WIZCHIP_WRITE     w5300.o
    0x080069bc   0x0000009c   Code   RO         5626    i.Yl69_Read         yl_69.o
    0x08006a58   0x00000020   Code   RO         6626    i.__0printf         mc_w.l(printfa.o)
    0x08006a78   0x00000020   Code   RO         1614    i.__NVIC_SetPriority  stm32f4xx_hal_cortex.o
    0x08006a98   0x00000008   Code   RO         6737    i.__aeabi_errno_addr  mc_w.l(errno.o)
    0x08006aa0   0x0000005c   Code   RO         6658    i.__free$realloc    mc_w.l(mallocr.o)
    0x08006afc   0x0000007a   Code   RO         6336    i.__hardfp_sqrt     m_wm.l(sqrt.o)
    0x08006b76   0x00000002   PAD
    0x08006b78   0x00000050   Code   RO         6659    i.__malloc$realloc  mc_w.l(mallocr.o)
    0x08006bc8   0x0000000e   Code   RO         6806    i.__scatterload_copy  mc_w.l(handlers.o)
    0x08006bd6   0x00000002   Code   RO         6807    i.__scatterload_null  mc_w.l(handlers.o)
    0x08006bd8   0x0000000e   Code   RO         6808    i.__scatterload_zeroinit  mc_w.l(handlers.o)
    0x08006be6   0x00000002   PAD
    0x08006be8   0x0000000c   Code   RO         6739    i.__set_errno       mc_w.l(errno.o)
    0x08006bf4   0x00000098   Code   RO         5829    i._draw_circle_8    gui.o
    0x08006c8c   0x00000164   Code   RO         6633    i._fp_digits        mc_w.l(printfa.o)
    0x08006df0   0x000006dc   Code   RO         6634    i._printf_core      mc_w.l(printfa.o)
    0x080074cc   0x00000024   Code   RO         6635    i._printf_post_padding  mc_w.l(printfa.o)
    0x080074f0   0x0000002e   Code   RO         6636    i._printf_pre_padding  mc_w.l(printfa.o)
    0x0800751e   0x00000002   PAD
    0x08007520   0x00000104   Code   RO         4788    i.aly_sensor        tcp_client.o
    0x08007624   0x00000088   Code   RO         4168    i.check_DHCP_leasedIP  dhcp.o
    0x080076ac   0x0000006c   Code   RO         4169    i.check_DHCP_timeout  dhcp.o
    0x08007718   0x00000028   Code   RO         4333    i.check_DNS_timeout  dns.o
    0x08007740   0x000000f8   Code   RO         3621    i.close             socket.o
    0x08007838   0x0000011c   Code   RO         3622    i.connect           socket.o
    0x08007954   0x00000198   Code   RO         4170    i.default_ip_assign  dhcp.o
    0x08007aec   0x0000004c   Code   RO         4171    i.default_ip_conflict  dhcp.o
    0x08007b38   0x00000050   Code   RO         4172    i.default_ip_update  dhcp.o
    0x08007b88   0x00000014   Code   RO         3788    i.dhcp_timer_init   w5300_conf.o
    0x08007b9c   0x000000ae   Code   RO         4334    i.dns_answer        dns.o
    0x08007c4a   0x00000002   PAD
    0x08007c4c   0x000000b4   Code   RO         4335    i.dns_makequery     dns.o
    0x08007d00   0x0000001e   Code   RO         4336    i.dns_question      dns.o
    0x08007d1e   0x00000002   PAD
    0x08007d20   0x000001c0   Code   RO         4789    i.do_mqtttcp_client  tcp_client.o
    0x08007ee0   0x00000018   Code   RO          422    i.fputc             usart.o
    0x08007ef8   0x0000006c   Code   RO         5711    i.g5516_Read        g5516.o
    0x08007f64   0x0000000c   Code   RO         4337    i.get16             dns.o
    0x08007f70   0x00000022   Code   RO         3715    i.getRMSR           w5300.o
    0x08007f92   0x00000002   PAD
    0x08007f94   0x00000044   Code   RO         3716    i.getSn_RX_RSR      w5300.o
    0x08007fd8   0x00000034   Code   RO         3717    i.getSn_TX_FSR      w5300.o
    0x0800800c   0x00000022   Code   RO         3718    i.getTMSR           w5300.o
    0x0800802e   0x00000084   Code   RO         5830    i.gui_circle        gui.o
    0x080080b2   0x00000002   PAD
    0x080080b4   0x00000050   Code   RO         6660    i.internal_alloc    mc_w.l(mallocr.o)
    0x08008104   0x0000005c   Code   RO           15    i.main              main.o
    0x08008160   0x000000c4   Code   RO         4178    i.makeDHCPMSG       dhcp.o
    0x08008224   0x00000010   Code   RO         5831    i.mypow             gui.o
    0x08008234   0x00000280   Code   RO         4179    i.parseDHCPMSG      dhcp.o
    0x080084b4   0x000000d6   Code   RO         4338    i.parseDNSMSG       dns.o
    0x0800858a   0x00000002   PAD
    0x0800858c   0x00000072   Code   RO         4339    i.parse_name        dns.o
    0x080085fe   0x0000000c   Code   RO         4340    i.put16             dns.o
    0x0800860a   0x00000002   PAD
    0x0800860c   0x000001b4   Code   RO         3627    i.recv              socket.o
    0x080087c0   0x000002d8   Code   RO         3628    i.recvfrom          socket.o
    0x08008a98   0x00000014   Code   RO         4181    i.reset_DHCP_timeout  dhcp.o
    0x08008aac   0x00000030   Code   RO         3792    i.reset_w5300       w5300_conf.o
    0x08008adc   0x00000138   Code   RO         3629    i.send              socket.o
    0x08008c14   0x0000011c   Code   RO         4182    i.send_DHCP_DECLINE  dhcp.o
    0x08008d30   0x000001f4   Code   RO         4183    i.send_DHCP_DISCOVER  dhcp.o
    0x08008f24   0x000002ac   Code   RO         4184    i.send_DHCP_REQUEST  dhcp.o
    0x080091d0   0x00000270   Code   RO         3630    i.sendto            socket.o
    0x08009440   0x00000032   Code   RO         3719    i.setRMSR           w5300.o
    0x08009472   0x00000032   Code   RO         3720    i.setTMSR           w5300.o
    0x080094a4   0x000000d0   Code   RO         3793    i.set_w5300_mac     w5300_conf.o
    0x08009574   0x000001d4   Code   RO         3794    i.set_w5300_netinfo  w5300_conf.o
    0x08009748   0x00000144   Code   RO         3632    i.socket            socket.o
    0x0800988c   0x00000028   Code   RO         3795    i.sysinit           w5300_conf.o
    0x080098b4   0x0000004c   Code   RO         3797    i.timer2_isr        w5300_conf.o
    0x08009900   0x00000050   Code   RO         5660    i.uBinaryToAscii    serial_studio.o
    0x08009950   0x000000e8   Code   RO         4791    i.uart_insert       tcp_client.o
    0x08009a38   0x00000048   Code   RO         3721    i.wiz_recv_data     w5300.o
    0x08009a80   0x00000020   Code   RO         3722    i.wiz_recv_ignore   w5300.o
    0x08009aa0   0x00000030   Code   RO         3723    i.wiz_send_data     w5300.o
    0x08009ad0   0x00000004   Code   RO         3920    i.wizchip_bus_readdata  wizchip_conf.o
    0x08009ad4   0x00000004   Code   RO         3921    i.wizchip_bus_writedata  wizchip_conf.o
    0x08009ad8   0x00000002   Code   RO         3923    i.wizchip_cris_enter  wizchip_conf.o
    0x08009ada   0x00000002   Code   RO         3924    i.wizchip_cris_exit  wizchip_conf.o
    0x08009adc   0x00000002   Code   RO         3925    i.wizchip_cs_deselect  wizchip_conf.o
    0x08009ade   0x00000002   Code   RO         3926    i.wizchip_cs_select  wizchip_conf.o
    0x08009ae0   0x00000010   Data   RO         3588    .constdata          system_stm32f4xx.o
    0x08009af0   0x00000008   Data   RO         3589    .constdata          system_stm32f4xx.o
    0x08009af8   0x000016ae   Data   RO         5832    .constdata          gui.o
    0x0800b1a6   0x00000081   Data   RO         6768    .constdata          mc_w.l(ctype_o.o)
    0x0800b227   0x00000001   PAD
    0x0800b228   0x00000004   Data   RO         6769    .constdata          mc_w.l(ctype_o.o)
    0x0800b22c   0x00000092   Data   RO         4561    .conststring        mqtt_client.o
    0x0800b2be   0x00000002   PAD
    0x0800b2c0   0x00000065   Data   RO         4793    .conststring        tcp_client.o
    0x0800b325   0x00000003   PAD
    0x0800b328   0x00000020   Data   RO         6804    Region$$Table       anon$$obj.o


    Execution Region RW_IRAM1 (Base: 0x20000000, Size: 0x00002538, Max: 0x0001c000, ABSOLUTE, COMPRESSED[0x00000130])

    Base Addr    Size         Type   Attr      Idx    E Section Name        Object

    0x20000000   0x00000008   Data   RW          328    .data               fsmc.o
    0x20000008   0x0000000c   Data   RW         1759    .data               stm32f4xx_hal.o
    0x20000014   0x00000004   Data   RW         3590    .data               system_stm32f4xx.o
    0x20000018   0x00000016   Data   RW         3634    .data               socket.o
    0x2000002e   0x00000002   PAD
    0x20000030   0x0000002e   Data   RW         3802    .data               w5300_conf.o
    0x2000005e   0x00000002   Data   RW         3803    .data               w5300_conf.o
    0x20000060   0x00000034   Data   RW         3944    .data               wizchip_conf.o
    0x20000094   0x0000004e   Data   RW         4186    .data               dhcp.o
    0x200000e2   0x00000002   PAD
    0x200000e4   0x0000000c   Data   RW         4342    .data               dns.o
    0x200000f0   0x00000008   Data   RW         4562    .data               mqtt_client.o
    0x200000f8   0x00000590   Data   RW         4794    .data               tcp_client.o
    0x20000688   0x00000002   Data   RW         6004    .data               lcd.o
    0x2000068a   0x00000002   Data   RW         6005    .data               lcd.o
    0x2000068c   0x0000002c   Data   RW         6243    .data               touch.o
    0x200006b8   0x00000004   Data   RW         6726    .data               mc_w.l(stdout.o)
    0x200006bc   0x00000004   Data   RW         6735    .data               mc_w.l(mvars.o)
    0x200006c0   0x00000004   Data   RW         6736    .data               mc_w.l(mvars.o)
    0x200006c4   0x00000004   Data   RW         6740    .data               mc_w.l(errno.o)
    0x200006c8   0x00000090   Zero   RW          279    .bss                adc.o
    0x20000758   0x00000050   Zero   RW          327    .bss                fsmc.o
    0x200007a8   0x00000048   Zero   RW          375    .bss                tim.o
    0x200007f0   0x00000044   Zero   RW          423    .bss                usart.o
    0x20000834   0x00000020   Zero   RW         1030    .bss                stm32f4xx_hal_flash.o
    0x20000854   0x00000010   Zero   RW         3633    .bss                socket.o
    0x20000864   0x0000001c   Zero   RW         3798    .bss                w5300_conf.o
    0x20000880   0x000003e8   Zero   RW         4185    .bss                dhcp.o
    0x20000c68   0x00000400   Zero   RW         4341    .bss                dns.o
    0x20001068   0x000000c0   Zero   RW         4560    .bss                mqtt_client.o
    0x20001128   0x00000800   Zero   RW         4792    .bss                tcp_client.o
    0x20001928   0x0000000e   Zero   RW         6003    .bss                lcd.o
    0x20001936   0x00000002   PAD
    0x20001938   0x00000400   Zero   RW            2    HEAP                startup_stm32f407xx.o
    0x20001d38   0x00000800   Zero   RW            1    STACK               startup_stm32f407xx.o


    Execution Region RW_IRAM2 (Base: 0x2001c000, Size: 0x00000000, Max: 0x00004000, ABSOLUTE)

    **** No section assigned to this execution region ****


==============================================================================

Image component sizes


      Code (inc. data)   RO Data    RW Data    ZI Data      Debug   Object Name

       216          0          0          0          0       2749   24cxx.o
       344         42          0          0        144       2362   adc.o
       344         56          0          0          0       3246   bsp_flash.o
      3972        676          0         78       1000      13252   dhcp.o
       496         30          0          0          0       5002   dht11.o
      1212        204          0         12       1024       8300   dns.o
       300         32          0          8         80       2263   fsmc.o
       108         40          0          0          0        577   g5516.o
       432         28          0          0          0       1207   gpio.o
      1948         90       5806          0          0      10393   gui.o
      1058         52          0          4         14       8210   lcd.o
       248         28          0          0          0     730584   main.o
      1932        940        146          8        192       6365   mqtt_client.o
      2626         36          0          0          0      19860   mqttkit.o
       636         74          0          0          0       4618   myiic.o
       120         36          0          0          0       3195   relay.o
        80          0          0          0          0        709   serial_studio.o
      1876        300          0          0          0       2389   show_lcd.o
      2956         86          0         22         16       7981   socket.o
        52          6          0          0          0        545   spi.o
        36          8        392          0       3072        832   startup_stm32f407xx.o
       228         32          0         12          0       9888   stm32f4xx_hal.o
      1200         52          0          0          0       5549   stm32f4xx_hal_adc.o
       198         14          0          0          0      33571   stm32f4xx_hal_cortex.o
       182          0          0          0          0       1963   stm32f4xx_hal_dma.o
       520         66          0          0         32       6126   stm32f4xx_hal_flash.o
       356         24          0          0          0       3734   stm32f4xx_hal_flash_ex.o
       516         46          0          0          0       2619   stm32f4xx_hal_gpio.o
        48          6          0          0          0        850   stm32f4xx_hal_msp.o
      1356         78          0          0          0       5492   stm32f4xx_hal_rcc.o
        92          0          0          0          0       1116   stm32f4xx_hal_sram.o
       784         72          0          0          0       6641   stm32f4xx_hal_tim.o
       148         28          0          0          0       2397   stm32f4xx_hal_tim_ex.o
      1574         16          0          0          0       9472   stm32f4xx_hal_uart.o
        44         12          0          0          0       5088   stm32f4xx_it.o
       232         14          0          0          0       3719   stm32f4xx_ll_fsmc.o
        16          4         24          4          0       1123   system_stm32f4xx.o
       940        174        101       1424       2048       4285   tcp_client.o
       152         24          0          0         72       2110   tim.o
      2718        228          0         44          0       9853   touch.o
       204         26          0          0         68       2190   usart.o
       464         42          0          0          0       6659   w5300.o
       860        154          0         48         28       5735   w5300_conf.o
        16          0          0         52          0       7050   wizchip_conf.o
       156         38          0          0          0        604   yl_69.o

    ----------------------------------------------------------------------
     34056       3914       6506       1720       7792     972473   Object Totals
         0          0         32          0          0          0   (incl. Generated)
        60          0          5          4          2          0   (incl. Padding)

    ----------------------------------------------------------------------

      Code (inc. data)   RO Data    RW Data    ZI Data      Debug   Library Member Name

       122          0          0          0          0        148   sqrt.o
        86          0          0          0          0          0   __dczerorl2.o
        28          0          0          0          0         68   _chval.o
       158          0          0          0          0         92   _strtoul.o
        26          0          0          0          0         80   atoi.o
         8          4        133          0          0         68   ctype_o.o
         0          0          0          0          0          0   entry.o
         0          0          0          0          0          0   entry10a.o
         0          0          0          0          0          0   entry11a.o
         8          4          0          0          0          0   entry2.o
         4          0          0          0          0          0   entry5.o
         0          0          0          0          0          0   entry7b.o
         0          0          0          0          0          0   entry8b.o
         8          4          0          0          0          0   entry9a.o
        20         10          0          4          0        136   errno.o
        30          0          0          0          0          0   handlers.o
        36          8          0          0          0         68   init.o
         0          0          0          0          0          0   iusefp.o
        30          0          0          0          0         68   llshl.o
        36          0          0          0          0         68   llsshr.o
        32          0          0          0          0         68   llushr.o
       252         24          0          0          0        252   mallocr.o
        26          0          0          0          0         80   memcmp.o
        36          0          0          0          0         68   memcpya.o
        36          0          0          0          0        108   memseta.o
         0          0          0          8          0          0   mvars.o
      2226         90          0          0          0        444   printfa.o
         0          0          0          4          0          0   stdout.o
        24          0          0          0          0         68   strcat.o
        20          0          0          0          0         68   strchr.o
        18          0          0          0          0         68   strcpy.o
        14          0          0          0          0         68   strlen.o
        40          0          0          0          0         76   strncat.o
        24          0          0          0          0         76   strncpy.o
        36          0          0          0          0         80   strstr.o
       112          0          0          0          0         88   strtol.o
        44          0          0          0          0         80   uidiv.o
        98          0          0          0          0         92   uldiv.o
        48          0          0          0          0         68   cdcmple.o
        48          0          0          0          0         68   cdrcmple.o
        56          0          0          0          0         88   d2f.o
       334          0          0          0          0        148   dadd.o
       222          0          0          0          0        100   ddiv.o
       186          0          0          0          0        176   depilogue.o
        50          0          0          0          0         76   dfixui.o
        48          0          0          0          0         68   dfixul.o
        26          0          0          0          0         76   dfltui.o
       228          0          0          0          0         96   dmul.o
       162          0          0          0          0        100   dsqrt.o
        38          0          0          0          0         68   f2d.o
       110          0          0          0          0        168   fepilogue.o

    ----------------------------------------------------------------------
      5200        144        134         16          0       3880   Library Totals
         6          0          1          0          0          0   (incl. Padding)

    ----------------------------------------------------------------------

      Code (inc. data)   RO Data    RW Data    ZI Data      Debug   Library Name

       122          0          0          0          0        148   m_wm.l
      3516        144        133         16          0       2432   mc_w.l
      1556          0          0          0          0       1300   mf_w.l

    ----------------------------------------------------------------------
      5200        144        134         16          0       3880   Library Totals

    ----------------------------------------------------------------------

==============================================================================


      Code (inc. data)   RO Data    RW Data    ZI Data      Debug   

     39256       4058       6640       1736       7792     949457   Grand Totals
     39256       4058       6640        304       7792     949457   ELF Image Totals (compressed)
     39256       4058       6640        304          0          0   ROM Totals

==============================================================================

    Total RO  Size (Code + RO Data)                45896 (  44.82kB)
    Total RW  Size (RW Data + ZI Data)              9528 (   9.30kB)
    Total ROM Size (Code + RO Data + RW Data)      46200 (  45.12kB)

==============================================================================

