:020000040800F2
:10000000382500209D0100082B530008D13B000833
:1000100029530008C1140008A1690008000000006D
:10002000000000000000000000000000CD540008A7
:10003000A51B0008000000003D5300089D55000866
:10004000B7010008B7010008B7010008B7010008B0
:10005000B7010008B7010008B7010008B7010008A0
:10006000B7010008B7010008B7010008B701000890
:10007000B7010008B7010008B7010008B701000880
:10008000B7010008B7010008B7010008B701000870
:10009000B7010008B7010008B7010008B701000860
:1000A000B7010008B7010008B7010008B701000850
:1000B000B7010008B7010008B7010008B701000840
:1000C000B7010008B7010008B7010008B701000830
:1000D000B701000895690008B7010008B7010008DA
:1000E000B7010008B7010008B7010008B701000810
:1000F000B7010008B7010008B7010008B701000800
:10010000B7010008B7010008B7010008B7010008EF
:10011000B7010008B701000849560008B7010008F8
:10012000B7010008B7010008B7010008B7010008CF
:10013000B7010008B7010008B7010008B7010008BF
:10014000B7010008B7010008B7010008B7010008AF
:10015000B7010008B7010008B7010008B70100089F
:10016000B7010008B7010008B7010008B70100088F
:10017000B7010008B7010008B7010008000000003F
:10018000B7010008B7010008DFF80CD000F068FCE8
:1001900000480047058100083825002006488047B0
:1001A00006480047FEE7FEE7FEE7FEE7FEE7FEE75C
:1001B000FEE7FEE7FEE7FEE7395600088901000882
:1001C0002DE9F05F0546002092469B46884606468C
:1001D000814640241BE0284641464746224600F01F
:1001E000E8FA53465A46C01A914110D311461846B0
:1001F000224600F0CFFA2D1A67EB01084F4622463F
:100200000120002100F0C6FA17EB00094E41201E24
:10021000A4F10104DFDC484631462A464346BDE8E6
:10022000F09F40EA01039B0703D009E008C9121FB1
:1002300008C0042AFAD203E011F8013B00F8013BA0
:10024000521EF9D27047D2B201E000F8012B491ECC
:10025000FBD270470022F6E710B513460A46044663
:100260001946FFF7F0FF204610BD421E12F8013F6D
:10027000002BFBD111F8013B02F8013B002BF9D117
:10028000704730B505462A460B4612F8010B13F8A5
:10029000014B08B1A042F8D01CB1002802D06D1C5F
:1002A000F1E7284630BD10B5044604E00B7800F8AD
:1002B000013B03B1491C521EF8D2204610BDCAB200
:1002C000401E10F8011F8A4202D00029F9D10020F7
:1002D0007047421C10F8011B0029FBD1801A70479F
:1002E00030B504460020034600E05B1C934203D275
:1002F000E05CCD5C401BF8D030BD10B5044600E09A
:10030000401C0378002BFBD100E0401C521E04D39C
:1003100011F8013B0370002BF7D10021017020463A
:1003200010BD034611F8012B00F8012B002AF9D16A
:100330001846704770B5064606F0AEFB04680546E1
:100340000A220021304600F056FA2C6070BD2DE9DB
:10035000FE4F804681EA0300C00F0C46009021F05A
:10036000004123F00045B8EB0200A94105D2404608
:10037000214690461C460B46024623F0004010439F
:1003800047D0270DC7F30A00C3F30A510290401A61
:10039000019040286BDAC3F3130040F4801B0098EF
:1003A000924620B10023D2EB030A63EB0B0B0198BA
:1003B0005946C0F14002504600F0ECF906460D46A1
:1003C00050465946019A00F004FA10EB08006141CA
:1003D000002487EA115284EAE7731A4340D0009A56
:1003E00062B3019A012A4FEA075215DC001B61EB48
:1003F00002014FF0004202EA0752CDE90042001C20
:1004000041F5801132462B4600F073FA03B0BDE887
:10041000F08F40462146F9E7001B61EB0201001C0A
:1004200041F5801300185B412018A2F5001747EB37
:10043000030140EAD570B6196D4111E06D084FEA2D
:10044000360645EAC0754FEA0752001B61EB020110
:10045000001C41F5801149084FEA30000019514154
:1004600032462B4603B0BDE8F04F00F033BA009897
:10047000012240000023D0EB020263EBE0730098FE
:1004800021464FEAE074B8EB000061EB0401E9E7B4
:1004900083F000435BE781F0004158E72DE9FE4F10
:1004A00081EA030404F0004421F0004100944FF07D
:1004B000000B23F0004350EA01045ED052EA03042B
:1004C0005BD0C3F30A54C1F30A552C44A4F2F334AD
:1004D0000194A0FB0254C1F3130141F48011C3F352
:1004E000130343F4801301FB024400FB034E840A10
:1004F000970A44EA815447EA8357A4FB07680295A8
:100500008D0A05FB07854FEA932C04FB0C54270545
:10051000029D4FEA065847EA1637B5EB08056EEB21
:10052000070C870E920E47EA811742EA8312A7FB57
:100530000201B6EB0B0164EB00042B0D43EA0C3314
:100540005E1844EB1C50DA465146E7FB0201C5F346
:1005500013044FEA0B3343EA14534FEA0432019C6D
:1005600043EA0603A4F10C040294009CCDE900B414
:1005700000F0BFF903B0BDE8F08F00200146F9E7B5
:100580002DE9F04D81EA030404F0004B21F0004511
:1005900014464FF0000A23F0004150EA050220D033
:1005A00054EA01021DD0C5F30A570246C5F31303EE
:1005B000C1F31300C1F30A5640F4801543F48013CD
:1005C000A7EB0608101BD64608F2FD3873EB0500B2
:1005D00002D308F1010801E092185B41B8F1000F65
:1005E00003DA00200146BDE8F08D00204FF48011B1
:1005F000064684460EE0171B73EB050705D3121B56
:1006000063EB050306434CEA010C49084FEA30004E
:1006100092185B4150EA0107EDD152EA030012D073
:1006200082EA040083EA0501084305D0101BAB41B0
:1006300006D20122002306E000224FF0004302E030
:100640006FF0010253101AEB06004CEB085110EB4F
:100650000A0041EB0B01BDE8F04D00F03BB90EB5CF
:1006600040F2334102910021CDE900110A460B46C8
:1006700000F03FF903B000BDC1F30A5210B5C1F359
:10068000130140F2FF3341F480119A4201DA002055
:1006900010BD40F233439A42A2F2334203DC52428D
:1006A00000F087F810BD904010BD00F0004230F01F
:1006B00000400AD0C10D01F56071C0F3160042EA96
:1006C0000151C2084007114370470020014670479E
:1006D00030B5041E71F1000404DB4FF000444042C9
:1006E00064EB0101141E73F1000405DB1C464FF09E
:1006F0000043524263EB04038B4208BF824230BD89
:1007000030B5041E71F1000404DB4FF00044404298
:1007100064EB0101141E73F1000405DB1C464FF06D
:100720000043524263EB0403994208BF904230BD3C
:1007300001F0004330B421F0004150EA010206D03C
:100740000A0DA2F56072C1F31301002A02DC30BC6D
:1007500000207047440F44EAC104C100E01830BCD7
:1007600000EBC25000F07FB830B50B4601460020C8
:100770002022012409E021FA02F59D4205D303FA63
:1007800002F5491B04FA02F52844151EA2F10102E4
:10079000F1DC30BD202A04DB203A00FA02F100200F
:1007A00070479140C2F1200320FA03F319439040AF
:1007B0007047202A04DB203A21FA02F0002170471A
:1007C00021FA02F3D040C2F12002914008431946B9
:1007D0007047202A06DBCB17203A41FA02F043EAA1
:1007E000E07306E041FA02F3D040C2F120029140EA
:1007F0000843194670472DE9F04791460F46804659
:100800000446002614F8015B2DB100F03BF90068A6
:10081000405DC007F6D12B2D02D02D2D18D0641EBF
:100820004A463946204600F031F927B13968A142DD
:1008300001D1C7F8008071054FF002040BD540428A
:10084000002803DD06F028F90460A007BDE8F08762
:1008500046F48066E4E70028F8DA06F01DF9046043
:100860006FF00040F2E70029A8BF7047401C490024
:1008700008BF20F00100704710B4B0FA80FC00FA05
:100880000CF050EA010404BF10BC704749B1CCF130
:10089000200421FA04F411FA0CF118BF01212143BC
:1008A0000843A3EB0C01CB1D4FEA00614FEA102077
:1008B00042BF002010BC704700EBC3501044002919
:1008C000A4BF10BC7047401C490008BF20F00100C5
:1008D00010BC704710B5141E73F1000408DA401CF8
:1008E00041F1000192185B411A4301D120F001004F
:1008F00010BD2DE9F04D92469B4611B1B1FA81F23F
:1009000002E0B0FA80F220329046FFF743FF04463F
:100910000F4640EA0A0041EA0B0153465A46084393
:1009200013D0114653EA010019D0C8F140025046D5
:10093000FFF73FFF05460E46504659464246FFF731
:1009400029FF084305D0012004E020463946BDE8D0
:10095000F08D0020054346EAE0762C4337430A98A1
:100960006305E40AA0EB08000022FD0A44EA4754AC
:100970000A3002D500200146E9E701051019694156
:10098000DDE9084500196941BDE8F04DA2E72DE910
:10099000F04D00231A461B1A8A4103DB0020014652
:1009A000BDE8F08DC1F30A52C1F3130141F4801583
:1009B0004FF0000BD10702D100186D41521E0027E5
:1009C000044640F2FF11384601EB620A3E4680467B
:1009D000024600204FF48011FFF7EBFEC21971416F
:1009E000BB1846EB0100B4EB030C75EB000C04D311
:1009F000E41A65EB000517460E46241908F10100BC
:100A00006D4180463428E3DDF91946EB0600091BE9
:100A1000A84103D24FF0FF32134601E000221346F3
:100A20001BEB070046EB0A51BDE8F04DFFF752BF44
:100A3000C1F30A52C1F3130140F2FF3341F48011B4
:100A40009A4202DA00200146704740F233439A424C
:100A5000A2F2334202DC5242FFF7ABBEFFF79ABE6E
:100A6000064C074D06E0E06840F0010394E80700FB
:100A700098471034AC42F6D3FFF78AFB28B300083E
:100A800048B300080048704728B200082DE9F05F1D
:100A900082460078002715468B460AF10104B946C4
:100AA000302801D09DB113E014F8010B01277828FC
:100AB00003D0582801D045B10AE00DB1102D07D15F
:100AC0000027102514F8010B02E0082500E00A2594
:100AD0000026B0460EE005FB080005FB06F10127E5
:100AE00001EB10461FFA80F8B6F5803F00D3B946F7
:100AF00014F8010B294600F018F80028EBDABBF1D6
:100B0000000F05D00FB1641E00E05446CBF8004042
:100B1000B9F1000F06D005F0BFFF02210160C81E29
:100B2000BDE8F09F48EA0640FAE73A2800D230389C
:100B300020F02002412A01D3A2F13700884201D3DC
:100B40004FF0FF30704770B58C1810F8015B15F04E
:100B5000070301D110F8013B2A1106D110F8012B2F
:100B600003E010F8016B01F8016B5B1EF9D12B0754
:100B700005D40023521E0DD401F8013BFAE710F80A
:100B8000013BCB1A921C03E013F8015B01F8015BF7
:100B9000521EF9D5A142D8D3002070BD464910B5E8
:100BA0004A6822F440324A604A6843681A434A60FD
:100BB00001684A6822F480724A6001684A680369E1
:100BC00042EA03224A6001684A6822F040724A60A1
:100BD00001684A6883681A434A6001688A6822F497
:100BE00000628A6001688A68C3681A438A60816A01
:100BF0006FF07062D14201688A6822F070628A6088
:100C000001688A680CD0836A1A438A6001688A681E
:100C100022F040528A6001688A68C36A1A4301E080
:100C200022F040528A6001688A6822F002028A60DB
:100C300001688A68037E42EA43028A6090F82010C5
:100C4000002901684A680FD042F400624A600168D6
:100C50004A6822F460424A6001684A68174C436A55
:100C600004EB43331A4301E022F400624A60016856
:100C7000CA6A22F47002CA620168CA6A838B104C85
:100C800004EB03531A43CA6201688A6822F40072B3
:100C90008A6001688A6890F8303042EA43228A60AC
:100CA00001688A6822F480628A6001688A68406903
:100CB00042EA8020886010BD0023014000E0FFFF71
:100CC0000000F0FF02F0A6BF2DE9F0410D460146FD
:100CD000002004464E1908E00702301B401E80B277
:100CE00000F007F8641C3844E4B2AC42F4D3BDE829
:100CF000F08110B5044603F03FF8200AA02101EB73
:100D00004000C0B203F008F803F078F8E0B203F056
:100D100003F803F073F803F02FF8A12002F0FCFFB2
:100D200003F06CF8002002F0C3FF044603F044F81F
:100D3000204610BD2DE9F04116460D460746002419
:100D400009E0E00025FA00F0C1B2381980B200F0E5
:100D500006F8641CE4B2B442F3D3BDE8F08170B588
:100D60000D46044603F008F8200AA02101EB4000DC
:100D7000C0B202F0D1FF03F041F8E0B202F0CCFFC4
:100D800003F03CF8284602F0C7FF03F037F803F001
:100D900013F8BDE870400A2001F0CEBD10B58AB04E
:100DA00000240694079408942C4B2D4A2DA132A0C0
:100DB000099405F051FE06A8CDE90440029403947D
:100DC00000944FF48073254A254926A0019403F02E
:100DD0001DFC20B135A005F03FFE0AB010BD4FF458
:100DE000FA740798069982B2012007F077FE204630
:100DF00001F0A2FD012007F0CDF80028F1DD82B25C
:100E00003349012007F002FC012007F0C3F8304C01
:100E1000204604F047F8022819D1204603F067FF66
:100E2000062818D2DFE800F003080A0C0E10294942
:100E30000120087028A008E02CA006E032A004E001
:100E40003AA002E041A000E049A005F005FE06A896
:100E500003F054FBC1E751A0F7E7000070B20008AF
:100E60002CB200084D51545431266878727A794278
:100E7000457A524A7A0000000D0A4D5154545F449D
:100E800065764C696E6B0D0A50524F4944A3BA25E2
:100E9000732C0D0A41554946A3BA25732C0D0A44FB
:100EA00045564944A3BA25730D0A00005741524ED6
:100EB0003A094D5154545F5061636B6574436F6ED2
:100EC0006E656374204661696C65640D0A000000FC
:100ED00068100020F8000020546970733A09C1AC12
:100EE000BDD3B3C9B9A60D0A000000005741524E48
:100EF0003A09C1ACBDD3CAA7B0DCA3BAD0ADD2E920
:100F0000B4EDCEF30D0A00005741524E3A09C1AC80
:100F1000BDD3CAA7B0DCA3BAB7C7B7A8B5C4636CC2
:100F200069656E7469640D0A000000005741524EF5
:100F30003A09C1ACBDD3CAA7B0DCA3BAB7FECEF1A3
:100F4000C6F7CAA7B0DC0D0A000000005741524E98
:100F50003A09C1ACBDD3CAA7B0DCA3BAD3C3BBA7FF
:100F6000C3FBBBF2C3DCC2EBB4EDCEF30D0A000051
:100F70005741524E3A09C1ACBDD3CAA7B0DCA3BA9F
:100F8000B7C7B7A8C1B4BDD328B1C8C8E7746F6BE1
:100F9000656EB7C7B7A8290D0A0000004552523A3E
:100FA00009C1ACBDD3CAA7B0DCA3BACEB4D6AAB42B
:100FB000EDCEF30D0A00000070B588B000240D4698
:100FC0000A46064601460494059406940FA0079429
:100FD00005F042FD2846FFF77CF9034604A80121ED
:100FE000CDE9021000942A46019431460A2003F00C
:100FF0003FFC002808D10598049982B2012007F02F
:101000006DFD04A803F07AFA08B070BD5075626CEB
:1010100069736820546F7069633A2025732C204DE2
:1010200073673A2025730D0A000000002DE9F04196
:101030008046002092B004460290019003900490F4
:10104000059006908DF81C000646404603F02AFFE6
:101050000546C01E804F0D287ED2DFE800F01B98A9
:10106000A0B0CCFAD5FADDFAFAFA070001AA06A96F
:10107000404603F001FE040016D178A0019A0699BB
:1010800005F0EAFC02AA0199069803F081FA68B912
:1010900078A0A4E07048009007AB01AA06A94046DA
:1010A00003F032FE04000CD0601C55D07D21019865
:1010B000FFF705F9002871D0641CFCD00DAA401C74
:1010C000B5E072A0019A069905F0C6FC76A10698D3
:1010D000FFF7D7F800283AD074A10198FFF7D1F8AC
:1010E00068B10E30FFF726F9C1B28DF82C1073A04D
:1010F00005F0B2FC02220BA9754804F09BF975A11A
:101100000198FFF7BEF868B10D30FFF713F9C1B2CF
:101110008DF8281072A005F09FFC02220AA97548DC
:1011200004F088F962A10198FFF7ABF868B10A30C2
:10113000FFF700F9C1B28DF8301061A005F08CFC0A
:1011400002220CA96C4804F075F90120786001981E
:10115000FFF7BFF8024600E07BE068480199FFF71F
:1011600060F89DF81C00012809D002289ED102A930
:10117000388803F047FC002898D161A02FE002A92D
:10118000388803F0F9FB002890D163A027E040469F
:1011900003F054FE002889D165A032E04FE04046BC
:1011A00003F064FE002881D169A005F055FC02A976
:1011B0000A2003F04AFC0028D8D16BA00FE0398840
:1011C000404603F05FFE0028D0D16DA005F044FC3E
:1011D00002A90A2003F0F3FB0028C7D16EA005F096
:1011E0003BFC0398029982B2012007F077FC02A829
:1011F00003F084F95AE7404603F02CFE0028F9D1A9
:101200006CA005F029FC51E7404603F07BFE08B1D5
:101210006EA0F6E774A0F4E7404603F089FE08B13B
:1012200078A0EEE77FA0ECE79155401C761C017892
:10123000A1F13003092BF7D91046FFF77BF80F2DEA
:1012400001D0032D05D1069805F02AFC019805F080
:1012500027FC12B0BDE8F081F0000020636D6469E6
:10126000643A2025732C207265713A2025730D0A8B
:1012700000000000546970733A0953656E6420439E
:101280006D64526573700D0A00000000746F706920
:10129000633A2025730D0A7061796C6F61643A209E
:1012A00025730D0A0000000073657400736F696C8C
:1012B00048756D696469747900000000736F696C2A
:1012C00048756D69646974793D25640D0A000000F4
:1012D0000000060874656D70657261747572650052
:1012E00074656D70657261747572653D25640D0A73
:1012F0000000000000000A0800000808E8100020B4
:10130000546970733A0953656E64205075626C6954
:1013100073685265630D0A00546970733A09536526
:101320006E64205075626C69736841636B0D0A00CE
:10133000546970733A094D515454205075626C6968
:1013400073682053656E64204F4B0D0A0000000047
:10135000546970733A09526576205075626C6973EE
:10136000685265630D0A0000546970733A09536549
:101370006E64205075626C69736852656C0D0A006A
:10138000546970733A09526576205075626C6973BE
:101390006852656C0D0A0000546970733A09536510
:1013A0006E64205075626C697368436F6D700D0ACE
:1013B00000000000546970733A0952657620507538
:1013C000626C697368436F6D700D0A0054697073C5
:1013D0003A094D51545420537562736372696265C2
:1013E000204572720D0A0000546970733A094D511C
:1013F000545420537562736372696265204F4B0DBC
:101400000A000000546970733A094D515454205534
:101410006E537562736372696265204572720D0A5C
:1014200000000000546970733A094D51545420551E
:101430006E537562736372696265204F4B0D0A00CB
:1014400070B586B000240D460646019402940394BC
:10145000049406E056F8241012A005F0FDFA641C6E
:10146000E4B2AC42F6D301A800902B4632460021EC
:10147000142003F00DFB40B90298019982B20120BB
:1014800007F02CFB01A803F039F8642001F054FAAE
:10149000012006F07FFD82B20849012007F0B6F86E
:1014A00006B070BD53756273637269626520546FD4
:1014B0007069633A2025730D0A000000681000204F
:1014C000FEE700002DE9F047DFF8F88081468A4604
:1014D00000254646404605F065FA3B4C000A207060
:1014E000304605F05FFA08F1020760703E46384664
:1014F00005F058FA000AA070304605F053FAE07083
:10150000BE1C304605F04EFA000A2071304605F048
:1015100049FAC1B2617120786278E3781043A27809
:101520001A4310432279104308431AD12570082129
:101530006170DC22A270E57025716571404605F08E
:1015400037FAE078A17800EB012081B2384605F047
:101550002FFA6079217900EB012081B2304605F045
:1015600027FA194E1949403E86F80290C6F83CA069
:10157000E078227901445318617950400B44484087
:101580001844B063290A0F4801EB052421461030A6
:1015900005F00EFA290E280C01EB00270948394600
:1015A000123005F005FA07482146083005F000FA28
:1015B000044839460A3005F0FBF907F06DFA35703A
:1015C000BDE8F08708000068D40000207856341287
:1015D0002DE9F047574D2878062825D0564805F0C4
:1015E000E1F9C0B222280BD0002344220221184680
:1015F00008F0AAF851490020FFF764FF06F0C4FA8A
:10160000012606F017FE4B4C2978E41D0027C0B2D6
:10161000B0464FF0030AA4F1040905295FD2DFE8C0
:1016200001F0060D1F3556000520BDE8F087277034
:101630006770A770E77007F07BFB78E002284BD15A
:101640003FA005F009FAE86B017C2170417C6170D4
:10165000817CA170C07CE07007F064FC022034E063
:10166000052802D006280FD036E03BA005F0F4F99B
:1016700005F0D8FF10B1686A80474EE007F00CFA19
:10168000E86A80472F702AE039A04CE0A869042658
:10169000411C24D0E969B1EB500F20D93AA005F0E4
:1016A000DBF9217889F80010617889F80110A178B8
:1016B00089F80210E17889F80310A86B401CA86330
:1016C00007F030FC07F0E8F90420287007E0042652
:1016D000052806D0062825D005F0E8FF0646304646
:1016E000A3E76F7099F800102278484691420CD118
:1016F00041786278914208D18178A278914204D1F0
:1017000099F80300E178884204D0A86A032680474C
:1017100025A000E028A005F09FF907F0BDF985F8A5
:1017200000A0DCE729A005F097F907F0B5F985F8E6
:101730000080D4E7940000200802006880080020A0
:101740003E205265636569766520444843505F4F8B
:10175000464645520D0A00003E2052656365697693
:101760006520444843505F41434B0D0A0000000090
:101770003E205265636569766520444843505F4E5C
:1017800041434B0D0A0000003E204D61696E7461BB
:10179000696E7320746865204950206164647265C5
:1017A0007373200D0A0000003E4950206368616E8B
:1017B0006765642E0D0A00003E495020697320635E
:1017C0006F6E74696E7565642E0D0A003E20526559
:1017D000636569766520444843505F4E41434B2C16
:1017E000204661696C656420746F206D61696E7458
:1017F00061696E2069700D0A0000000070B5002458
:1018000000F02AF84FF48055124E04E0641CE4B254
:10181000012001F0A3F82946304601F0ABFA10B1DF
:10182000642CF3D30FE0642C0DD2002404E0641C7C
:10183000E4B2012001F092F82946304601F09AFA0C
:1018400018B1642C04D3012070BD642CEFD3FAE7E7
:10185000002070BD000C024000B587B0142168461E
:10186000FEF7F8FC0A480021026842F020020260FC
:10187000006800F0200005904FF48050CDE9000191
:10188000012002906946034801F07CF907B000BDD1
:1018900030380240000C024070B586B01421684612
:1018A000FEF7D8FC0D480025016841F020010160D9
:1018B0000068012200F02000094E14030590214623
:1018C000304601F05CFA0121CDE90041CDE9021575
:1018D0006946304601F056F906B070BD3038024016
:1018E000000C024010B500F069F8BDE81040FFF7A9
:1018F00085BF000070B500244FF48055134E04E0FE
:10190000641CE4B2012001F029F82946304601F0B8
:1019100031FA08B1642CF3D3002404E0641CE4B26F
:10192000012001F01BF82946304601F023FA08B9DE
:10193000642CF3D3282001F011F82946304601F039
:1019400019FA002800D0012070BD0000000C0240F0
:1019500070B5002004464006050EFFF7CBFF641C5F
:101960002843E4B2082CF6D370BD2DE9FC410D46A6
:10197000064600F023F8FFF741FF10B10120BDE853
:10198000FC8100246F46FFF7E3FF3855641CE4B286
:10199000052CF8D39DF800109DF801009DF8033048
:1019A0000A189DF8020003441A449DF804309A4234
:1019B00001D1297030700020E1E7000070B5FFF719
:1019C0006BFF0A4D4FF4805400222146284601F057
:1019D000D6F9142000F0B0FF01222146284601F07C
:1019E000CEF9BDE870401E2000F0B8BF000C0240E8
:1019F000034A107041F2221051605080704700007D
:101A0000E40000202DE9F0433B4D04468BB000205C
:101A10000F46687091463949A860FFF7E9FF002337
:101A20001A460221287807F08FFEE0780090A3780C
:101A30006278217832A005F00FF84FF480763346B3
:101A4000394600206A6806F001F93527009782B20E
:101A500023462878696807F0BBFBB846287806F06B
:101A600099FA07043F0C28D0B74200D9374604A89A
:101A7000009003AB3A462878696806F0A1FE9DF80D
:101A80000F1080B2BDF810200091CDE901209DF823
:101A90000E309DF80D209DF80C1024A004F0DCFF02
:101AA0004A4605A8696806F005FD0446287805F051
:101AB00047FE20460BB0BDE8F08305F02DFE002860
:101AC0000CDAE0780090A3786278217825A004F001
:101AD000C3FF287805F034FE0020EBE7BED12DA02F
:101AE00004F0BAFFCDF8008023463A4628786968AA
:101AF00007F06EFBB2E70000E4000020680C002055
:101B00003E20444E5320517565727920746F2044F5
:101B10004E5320536572766572203A2025642E2537
:101B2000642E25642E25640D0A0000003E205265B7
:101B3000636569766520444E53206D6573736167F4
:101B4000652066726F6D2025642E25642E25642E17
:101B50002564282564292E206C656E203D2025648F
:101B60000D0A00003E20444E532053657276657284
:101B7000206973206E6F7420726573706F6E646974
:101B80006E67203A2025642E25642E25642E256458
:101B90000D0A00003E20444E532054696D656F7558
:101BA000740D0A00704700002DE9FE43102560A067
:101BB000CDE9000500244FF6FF761F2332460221AF
:101BC0000294204600F02CFC5FA0CDE9000564489B
:101BD00002941F2340883246123881B2002000F060
:101BE0001FFC0C265FA0CDE900064FF6E0784346C7
:101BF0001F221E2102940A2003F06AFC5DA0CDE999
:101C0000000643461F2232210294502003F060FC5C
:101C10005AA0CDE900051F23DF023A463221029483
:101C20006E2003F055FC56A0CDE900051F233A466F
:101C300032210294A52003F04BFC52A0CDE900060E
:101C400043461F2232210294B42003F041FC46A0F7
:101C5000CDE9000643461F22502102940A2003F0DA
:101C600037FC4AA0CDE9000643461F2264210294B6
:101C7000502003F02DFC41A0CDE900051F233A467A
:101C8000642102946E2003F023FC3DA0CDE9000501
:101C90001F233A4664210294A52003F019FC3DA0BD
:101CA000CDE9000643461F2264210294B42003F0CC
:101CB0000FFC3AA0CDE9000643461F228221029480
:101CC0000A2003F005FC39A0CDE9000643461F2297
:101CD00096210294502003F0FBFB28A0CDE90005DB
:101CE0001F233A46962102946E2003F0F1FB24A0B4
:101CF000CDE900051F233A4696210294A52003F062
:101D0000E7FB2CA0CDE9000643461F229621029452
:101D1000B42003F0DDFB29A0CDE9000543461F22D6
:101D2000B42102940A2003F0D3FBBDE8FE83000037
:101D3000494E54454C4C4947454E20414752494332
:101D4000554C545552450000687474703A2F2F77E3
:101D500077772E77697A6E65742E636F6D00000059
:101D600028190020736F696C48756D69646974790E
:101D70003A00000056616C313A0000002D0000006E
:101D80002B00000066616E313A00000056616C3233
:101D90003A00000066616E323A00000074656D70B2
:101DA000657261747572653A0000000056616C33AB
:101DB0003A00000066616E333A0000004C696768C3
:101DC000744C75783A00000072B6FEE7002229B123
:101DD00001291AD002291BD04FF440720E490B681A
:101DE00023F440730B600B6813430B600A6822F006
:101DF000F8020A600A68022303EBC00002430A608B
:101E0000086840F48030086070474FF48072E5E75E
:101E10004FF40072E2E70000103C024013480168F2
:101E200089050FD5016821F400710160016841F452
:101E300000610160016821F400610160016841F402
:101E400000710160016849050FD5016821F48061C6
:101E50000160016841F480510160016821F4805102
:101E60000160016841F4806101607047003C0240FC
:101E700008490A6822F440720A600A6842F00402C3
:101E80000A600A684FF4803343EA002002430A6084
:101E900070470000103C0240064A136823F4407368
:101EA000136013681360136843F00103136001703B
:101EB00070470000103C0240094910B50C6824F43A
:101EC00040740C600C6844F440740C600C6844F07E
:101ED00001040C600260BFF36F8F436010BD00000F
:101EE000103C0240074A136823F4407313601368E0
:101EF00043F480731360136843F00103136001809F
:101F000070470000103C0240074A136823F44073F6
:101F10001360136843F400731360136843F0010304
:101F20001360016070470000103C024017490868C8
:101F3000C206174805D5C26942F01002C2611022DC
:101F40000A600A68920605D5C26942F00802C261B9
:101F500020220A600A68520605D5C26942F00402CE
:101F6000C26140220A600A68120605D5C26942F0C1
:101F70000202C26180220A600A68920705D5C2691E
:101F800042F02002C2610220086070470C3C02400F
:101F90003408002070B5114904460020C86100F0E3
:101FA000F3FE06460E4D09E0601C07D024B100F098
:101FB000EBFE801BA04201D9032070BD2868C0033E
:101FC000F2D42868C00701D001202860286810F0EA
:101FD000F200F2D0FFF7AAFF012070BD3408002004
:101FE0000C3C024030B5B3F5804F05D06FF0704126
:101FF00040F82210002030BD8C690B688D682343A7
:102000004C688989240144EA0524234343EA0141B9
:1020100050F82230014C23401943E9E70000F0CF8B
:1020200010B50A6850F8223023F0010340F822303E
:102030008C68082C23D000234A682243CC681C43B8
:102040000B6922431A434B690E4C1A43CB691A435E
:102050000B6A1A434B6A1A438B6A1A43CB6A1A43B8
:102060000B6B1A438B691343CA6B09681A4350F808
:102070002130A343134340F82130002010BD4023FA
:10208000DAE700007FFF0F0030B5D1E9003443EA02
:1020900004138C688D89240244EA054423430C8A86
:1020A000094D00EB820005EB045423430C7D6D01C8
:1020B00005EB0464896923430B43416801F0404107
:1020C0000B434360002030BD0000F0FF01220221DD
:1020D000014800F054BE0000001802400022022116
:1020E000014800F04CBE0000001802400122D1025D
:1020F000014800F044BE00000008024000224FF4F6
:102100000061014800F03BBE0008024001221103BB
:10211000014800F034BE00000008024000224FF4E5
:102120008051014800F02BBE0008024010B502218A
:10213000034800F01FFE08B1002010BD012010BDB3
:10214000001802402DE9FF4F83B004463E20CDE940
:102150000040DDF844B000274FF080093148109A64
:1021600007EB071110F811301278934240D100EBC1
:10217000410A10989AF801104078814238D10498A9
:1021800004990F3083B204F10F0082B2204602F0AE
:1021900025F8002600250AEB060800BFBBF1000F5A
:1021A00013D021490598088098F8021029FA05F003
:1021B000014203D02046049901F0C6FE641C009839
:1021C000A4B2201A102826D00AE098F8021029FAA2
:1021D00005F0014201D0059800E0069802F078F978
:1021E0006D1CEDB2082DD9D3761CF6B2202ED1D3BA
:1021F0007F1C0198BFB28742B0D30C484188008849
:1022000007B0491EBDE8F04F401E8BB282B20021DC
:10221000084601F0E3BF0498009C401C80B2049083
:10222000E2E700005CA500088806002028190020CD
:102230002DE9FF4F83B004460720CDE90040DDF8CB
:1022400044B000274FF0800907EB870000EB4711EF
:102250003048109A10F811301278934240D100EBB8
:10226000410A10989AF801104078814238D10498B8
:102270000499173083B204F1170082B2204601F0AE
:10228000ADFF002600250AEB060800BFBBF1000FDA
:1022900013D021490598088098F8021029FA05F012
:1022A000014203D02046049901F04EFE641C0098C0
:1022B000A4B2201A182826D00AE098F8021029FAA9
:1022C00005F0014201D0059800E0069802F000F9FF
:1022D0006D1CEDB2082DD9D3761CF6B2482ED1D3A1
:1022E0007F1C0198BFB28742AED30C48418800885A
:1022F00007B0491EBDE8F04F401E8BB282B20021EC
:10230000084601F06BBF0498009C401C80B204900A
:10231000E2E7000098AD0008880600202819002098
:102320002DE9FF4F83B004460420CDE90040DDF8DD
:1023300044B000274FF080093148109A07EB87110D
:1023400010F811301278934240D100EB410A1098F6
:102350009AF801104078814238D1049804991F30CE
:1023600083B204F11F0082B2204601F037FF00263D
:1023700000250AEB060800BFBBF1000F13D021496E
:102380000598088098F8021029FA05F0014203D058
:102390002046049901F0D8FD641C0098A4B2201ACC
:1023A000202826D00AE098F8021029FA05F0014208
:1023B00001D0059800E0069802F08AF86D1CEDB295
:1023C000082DD9D3761CF6B2802ED1D37F1C01986C
:1023D000BFB28742B0D30C484188008807B0491E7D
:1023E000BDE8F04F401E8BB282B20021084601F0DA
:1023F000F5BE0498009C401C80B20490E2E7000007
:102400009EAF0008880600202819002010B5144649
:1024100001F0E0FE2046BDE8104002F059B800008F
:102420002DE9FE431F46DDE90A46904689462046CF
:102430000C9DFDF74EFF0A4980B240420988CDE964
:10244000004601EBC00000EBD070C0F34F003B46EC
:1024500042464946029503F03BF8BDE8FE83000082
:102460002819002078B50024009490F83C20012A17
:1024700019D0012280F83C200A6807230568092A40
:1024800013D9EE680A3A02EB420293409E43EE6093
:102490000B788A680A3B03EB43039A400368DD68C4
:1024A0002A43DA6010E0022078BD2E6902EB420276
:1024B00093409E432E610B788A6803EB43039A4056
:1024C00003681D692A431A614A681F23072A13D229
:1024D00005686E6B521E02EB820293409E436E6350
:1024E0000B790A885B1E92B203EB83039A40036860
:1024F0005D6B2A435A6327E005680D2A12D22E6BC2
:10250000D21F02EB820293409E432E630B790A880E
:10251000DB1F92B203EB83039A4003681D6B2A43CF
:102520001A6311E0EE6A0D3A02EB820293409E4379
:10253000EE620B790A880D3B92B203EB83039A405B
:102540000368DD6A2A43DA62164B0568144A9D4225
:1025500006D10D68122D03D1556845F480055560EC
:1025600005689D4218D10B68102B01D0112B13D197
:10257000536843F400035360096810290CD10A49D9
:102580000A4A0968B1FBF2F101EB8101490000E060
:10259000491E00910029FBD180F83C40002078BD05
:1025A00000230140002001401400002040420F00A1
:1025B0000068C06C704770B504004FF0000503D090
:1025C000206C002610B107E0012070BD204600F00D
:1025D0001DF8666484F83C60206CC00610D4206C42
:1025E00020F4885040F0020020642046FEF7D6FA1E
:1025F0006664206C20F0020040F00100206400E0DE
:10260000012584F83C60284670BD000070B586B096
:10261000044614216846FDF71DFE1D491B4E256822
:1026200000231B4A143903241A48B54211D11568F6
:1026300045F480751560126802F4807205920A688C
:1026400042F004020A60096801F0040105911021BA
:1026500013E0114EB54216D1156845F400751560AA
:10266000126802F4007205920A6842F004020A60DD
:10267000096801F0040105911821CDE900140293C5
:10268000694600F07FFA06B070BD000000200140EE
:102690004438024000080240002101402DE9F04189
:1026A000044600680D4681684FF0000749050BD5C8
:1026B0008068C00508D5206C40F02000206484F8B4
:1026C0003C700120BDE8F08100F05EFB064613E09F
:1026D000681C11D025B100F057FB801BA8420BD914
:1026E00020680068800707D4206C40F00400206454
:1026F00084F83C700320E5E7206800688007E7D590
:1027000021686FF012000860206C40F400702064B3
:102710002068816811F0405F13D1217E89B9C16AB8
:1027200011F4700F02D0806840050AD4206C20F4A8
:1027300080702064206CC00403D4206C40F0010041
:1027400020640020BEE7000018B50021009190F839
:102750003C20012A07D0012280F83C2002689368BF
:10276000DB0702D011E0022018BD936843F001039B
:1027700093602E4A2E4B1268B2FBF3F202EB420238
:1027800000E0521E0092002AFBD102689368DB072A
:1027900042D0036C40F20164A34343F480730364AA
:1027A00053685B0505D5036C23F4005343F4805351
:1027B0000364036CDB0404D5436C23F00603436419
:1027C00000E0416480F83C101A496FF02203136066
:1027D00049680068CA06184906D0884224D1816831
:1027E00011F0405F13D01FE08842F8D0134A9042A6
:1027F00003D1D1F80423D206F1D0114A904213D16B
:10280000D1F8041301F01F011029E8D30CE081680E
:1028100041F08041816007E0016C41F010010164EA
:10282000416C41F001014164002018BD14000020FA
:1028300040420F00002301400020014000210140E0
:102840000022014090F83C1001290CD0012180F8B1
:102850003C1001688A6822F001028A600168896878
:10286000C90702D007E002207047016C21F48851AB
:1028700041F001010164002180F83C1008467047D6
:102880002DE9F0410446876D00F07EFA064694F883
:1028900035000025022806D08020606584F8345079
:1028A0000120BDE8F0812068016821F01601016077
:1028B0002068416921F080014161206C08B9A06C59
:1028C00020B12068016821F00801016020680168DA
:1028D00021F0010101600CE000F056FA801B052890
:1028E00007D920206065032084F8350084F834502F
:1028F000D7E720680068C007EED194F85C103F204D
:102900008840B860012084F8350084F834500020F5
:10291000C7E790F83510022903D0802141650120D6
:102920007047052180F835100068016821F0010129
:10293000016000207047000070B5044600F024FAE2
:102940000546601C02D004480078044400F01CFADC
:10295000401BA042FAD370BD0800002010B5044609
:1029600000F04CFB0849B0FBF1F000F083FD601E65
:10297000FFF7E2FF00F042FB4FF47A71B0FBF1F099
:10298000BDE8104000F076BD40420F002DE9F04751
:10299000044622480F46017E01290AD001218046C3
:1029A00001764CF250394846FFF7F4FA020003D0A2
:1029B0002FE00220BDE8F0874FF0FF30386020683C
:1029C000174D012801D0A6681CE0207C6168FFF744
:1029D0004FFA4846FFF7DEFA0246286820F0040066
:1029E000286014E0217C3046FFF7F0F94846FFF7F5
:1029F000D1FA0200286820F0FA00286001D03E6079
:102A000005E0761CD4E902100844B042EAD8FFF78A
:102A100005FA002188F818101046CBE7340800208A
:102A2000103C02400348016841F000410160002071
:102A300070470000103C02402DE9F0471B4E054650
:102A40001446307E1F468946012808D00120307682
:102A50004CF250384046FFF79DFA18B114E00220BE
:102A6000BDE8F0879DB1012D16D0022D19D0224668
:102A70003B464846FFF720FA4046FFF78BFA0C49E1
:102A80000A6822F001020A6000213176E8E7E1B22B
:102A90004846FFF701FAEFE7A1B24846FFF722FAEE
:102AA000EAE721464846FFF72FFAE5E73408002019
:102AB000103C0240074900200A68002A09DA054A4A
:102AC000054B0C3A1360054B13600968002900DAC6
:102AD00001207047103C024023016745AB89EFCDD0
:102AE000F0B587B014216846FDF7B4FB1F480168B4
:102AF000002939D1012101601D480024016841F0FD
:102B0000010101600068022500F00100059047F214
:102B10003F00CDE9000502AA03260C2782E8D00079
:102B20006946144800F02EF84FF68070CDE9000594
:102B300002AA694682E8D0000F4800F023F84CF260
:102B40003370CDE9000502AA694682E8D0000B483F
:102B500000F018F86802CDE9000502AA694682E88B
:102B6000D000074800F00EF807B0F0BD00000020CC
:102B7000383802400014024000100240000C0240AD
:102B8000001802402DE9F84FDFF8BCA10022012512
:102B900003264FF00F090AF1040BAAF1040E00BF3F
:102BA0000B6805FA02F42340A34270D10F7907F0B5
:102BB0000307012F01D0022F16D187684FEA420880
:102BC00006FA08FC27EA0C07D1F80CC00CFA08FC3E
:102BD0004CEA070CC0F808C04768A7430C79C4F357
:102BE000001494403C4344600C79E443A4070AD0A9
:102BF000C4684FEA420C06FA0CF7BC438F6807FA28
:102C00000CF72743C7600C7904F00304022C12D19F
:102C1000D40800EB840CDCF820405707FF0E09FABB
:102C200007F824EA0804D1F8108008FA07F848EAFF
:102C30000408CCF8208004684FEA420C06FA0CF72E
:102C4000BC430F7907F0030707FA0CF72743076027
:102C50004C6814F4403F70D03C4C276847F48047E0
:102C60002760246822F0030704F480440094384C61
:102C700007EB040CDCF8084897074FEA177809FAC5
:102C800008F7BC43334FB84202D1002724E054E098
:102C9000314FB84201D101271EE0304FB84201D177
:102CA000022719E02E4FB84201D1032714E02D4F1F
:102CB000B84201D104270FE02B4FB84201D10527BC
:102CC0000AE02A4FB84201D1062705E0284FB84252
:102CD00001D1072700E0082707FA08F72743CCF8B7
:102CE0000878DAF800405746D1F804C09C435FEA00
:102CF000CC2C00D51C433C60DBF800405F46D1F88B
:102D000004C09C435FEA8C2C00D51C433C60DEF879
:102D100000407746D1F804C09C435FEA8C3C00D564
:102D20001C433C60084F083F3C68D1F804C09C43FA
:102D30005FEACC3C00D51C433C60521C102AFFF4D7
:102D40002FAFBDE8F88F0000083C01404438024036
:102D50000030014000000240000402400008024030
:102D6000000C024000100240001402400018024013
:102D7000001C02400069084000D0012070470AB1E1
:102D8000816170470904FBE70148806870470000D3
:102D90000800002002488168027811448160704771
:102DA000080000200B4810B5016841F40071016073
:102DB000016841F480610160016841F48071016043
:102DC000032000F06FF80F2000F006F800F024F860
:102DD000002010BD003C024070B50D4D04464FF47C
:102DE0007A712878B1FBF0F00A490968B1FBF0F07C
:102DF00000F040FB48B9102C07D200222146501E9B
:102E000000F030F800206C6070BD012070BD000043
:102E100008000020140000200A4808B5016841F4A9
:102E200080410160006800F4804000900548001F68
:102E3000016841F080510160006800F0805000900E
:102E400008BD000044380240002809DB00F01F02E2
:102E5000012191404009800000F1E020C0F80011FC
:102E600070470000F0B40E4B1B680C46C3F30223FE
:102E7000C3F10705042D00D90425191D072901D226
:102E8000002300E0DB1E012606FA05F1491E214061
:102E900099409E40761E16403143F0BC03F0ECBDD5
:102EA0000CED00E0064900F0070208684FF6FF034A
:102EB000184040EA0220034A1043086070470000AF
:102EC0000CED00E00000FA052DE9F0470E46050084
:102ED00065D0DFF81481D8F80000F7B200F00700E1
:102EE000B04207D288F80070D8F8000000F0070060
:102EF000B04254D128683D4C810712D5400703D514
:102F0000206840F4E05020602878000703D520684E
:102F100040F4604020602068A96820F0F000084379
:102F200020602878C0072DD030496868083901280A
:102F300012D0022813D0032811D00968890700296C
:102F40002DDA216821F0030101432160FFF71CFF06
:102F5000814641F2883A0EE009688903EFE7096883
:102F60008901ECE7FFF710FFA0EB0901514502D9F9
:102F70000320BDE8F0872068696800F00C00B0EB22
:102F8000810FEFD1D8F80010404601F00701B1429F
:102F900007D90770006800F00700B04201D0012097
:102FA000E7E72878400705D52068E96820F4E05075
:102FB000084320602878000706D52068296920F496
:102FC000604040EAC100206000F03EF82168084AF5
:102FD000C1F30311515CC840064908600648006807
:102FE000FFF7FAFE0020C4E7003C02400838024028
:102FF000E09A0008140000200C000020014800683E
:103000007047000014000020044805490068096862
:10301000044AC1F38221515CC8407047140000206B
:1030200008380240F09A0008044805490068096819
:10303000044AC1F34231515CC8407047140000207B
:1030400008380240F09A0008154810B5006810F0E2
:103050000C02144813D04110042A0FD0082A0ED1B4
:103060000F4C241F2268236802F03F025B0207D541
:103070002068C0F38810A0FB010106E0084610BDDF
:103080002168C1F38811A1FB00010023FDF798F826
:103090002168C1F30141491C4900B0FBF1F010BDAA
:1030A000083802400024F4002DE9F84F04006ED0E7
:1030B0002078DFF84C93C007A9F104054AD009F144
:1030C00004000168C1F38101012908D00068C0F340
:1030D000810002280AD1D9F80000400206D52868EC
:1030E000800337D560680028E1D033E06068B0F530
:1030F000803F10D0B0F5A02F286810D020F4803089
:103100002860286820F4802028606068A8B1FFF754
:103110003BFE06460DE0286840F48030F4E740F4BA
:1031200080202860F7E700BFFFF72EFE801B642891
:1031300073D828688003F7D50CE0FFF725FE064614
:1031400005E000BFFFF720FE801B6428F0D8286848
:103150008003F7D42078DFF8AC8280074FF0000AB4
:103160003ED5A748001D016811F00C0F08D000687B
:10317000C0F3810002280BD1D9F80000400207D427
:103180002868800716D5E068012800D112E033E1F5
:10319000E068B8B10120C8F80000FFF7F5FD064669
:1031A00005E000BFFFF7F0FD801B0228C0D82868AB
:1031B0008007F7D52868216920F0F80040EAC100AF
:1031C00028600DE0C8F800A0FFF7DEFD064604E029
:1031D000FFF7DAFD801B02281FD828688007F7D484
:1031E0002078000722D5864F87486169703771B112
:1031F00001210160FFF7C8FD064604E0FFF7C4FDAA
:10320000801B022809D838688007F7D50EE0C0F87F
:1032100000A0FFF7B9FD064605E082E0FFF7B4FD28
:10322000801B02287DD838688007F7D420784007B3
:1032300068D5DFF8CCB100270BF13C0BDBF80000C0
:10324000C0000BD4DBF8001041F08051CBF8001027
:10325000DBF80000012700F0805000906B4E3068D2
:10326000C00510D4306840F480703060FFF78CFDEA
:10327000009005E0FFF788FD0099401A022850D819
:103280003068C005F6D55E4EA0686C3601280FD0B8
:103290000528306810D020F001003060306820F040
:1032A00004003060A068B8B1FFF76EFD00900FE039
:1032B000306840F00100F4E740F004003060F7E7C8
:1032C000FFF762FD0099411A41F28830814266D8C9
:1032D00030688007F4D50EE0FFF756FD009007E058
:1032E000FFF752FD0099411A41F28830814256D8C9
:1032F00030688007F4D42FB1DBF8001021F0805142
:10330000CBF80010A069C8B33D49091D0968C1F395
:10331000810102294AD00228504607D0C8F860002F
:1033200000E03CE0FFF730FD04463BE04746C8F8CC
:103330006000FFF729FD064605E000BFFFF724FD0A
:10334000801B02282BD828688001F7D4D4E9070114
:103350000843A16A2E4A490802EB0141626A41EA28
:103360008211084394F82C1040EA0161C9F800105A
:1033700001203866FFF708FD044606E03EE000BF86
:10338000FFF702FD001B022809D828688001F7D545
:1033900034E000BFFFF7F8FC001B022802D903202D
:1033A000BDE8F88F28688001F4D427E00128F7D021
:1033B000D9F80000E26900F4800191421CD1226A30
:1033C00000F03F01914217D147F6C071626A014097
:1033D000B1EB821F10D1A26A4FF0FF3300F44031ED
:1033E00003EB5202B1EB024F06D194F82C1000F01F
:1033F0007060B0EB016F01D00120D1E70020CFE772
:103400000438024000004742800E474200700040EE
:103410000000FFFF70B515460E46040003D094F877
:10342000490010B107E0012070BD002084F8480079
:10343000204600F01DF804F108012068FEF7F0FDB9
:103440003146A2682068FEF71FFED4E90102294632
:10345000236BFEF7C7FD2168A06851F8202042F0D9
:10346000010241F82020012084F84900002070BDAD
:10347000FFF736BB10B5401EB0F1807F01D30120AD
:1034800010BD4FF0E02460610F21601703F0F4FAE3
:103490000020A06107202061002010BD7047704708
:1034A00070B590F83C20012A32D0012480F83C40CD
:1034B000022280F83D2003685A689D6822F0700659
:1034C0000A6832435A60134B02689A4214D0B2F130
:1034D000804F11D0104B9A420ED0104B9A420BD015
:1034E0000F4B9A4208D00F4B9A4205D00E4B9A428E
:1034F00002D00E4B9A4204D1496825F0800319434B
:10350000916080F83D40002180F83C10084670BD75
:10351000022070BD0000014000040040000800408F
:10352000000C004000040140004001400018004031
:1035300010B5040003D094F83D0010B107E001205D
:1035400010BD002084F83C00204600F01FF8022047
:1035500084F83D00211D206802F07CF8012084F8E9
:10356000460084F83E0084F83F0084F8400084F868
:10357000410084F8420084F8430084F8440084F851
:10358000450084F83D00002010BD000008B500682B
:103590000B49884212D10B48016841F010010160CB
:1035A0000068002200F01000009011463620FFF75E
:1035B00059FCBDE808403620FFF746BC08BD0000B6
:1035C000001000404038024090F83D10012901D021
:1035D00001207047022180F83D100168CA6842F05E
:1035E0000102CA6000681149884214D0B0F1804FCE
:1035F00011D00F4988420ED00E4988420BD00E4997
:10360000884208D00D49884205D00D49884202D031
:103610000C49884204D1816801F00701062903D0D2
:10362000016841F001010160002070470000014085
:103630000004004000080040000C0040000401406D
:103640000040014000180040704770B50446006813
:1036500001694FF00005C943890715D4C168C94302
:10366000890711D4E91E0161012020772068806953
:103670008007204602D0FFF7E7FF04E000F098F84B
:10368000204600F096F8257720680169C94349076C
:1036900017D4C168C943490713D46FF0040101610D
:1036A000022020772068806910F4407F204602D0F5
:1036B000FFF7CAFF04E000F07BF8204600F079F83D
:1036C000257720680169C943090716D4C168C94331
:1036D000090712D46FF008010161042020772068E7
:1036E000C0698007204602D0FFF7AEFF04E000F07B
:1036F0005FF8204600F05DF8257720680169C9432E
:10370000C90617D4C168C943C90613D46FF01001A4
:103710000161082020772068C06910F4407F2046AE
:1037200002D0FFF791FF04E000F042F8204600F0DD
:1037300040F8257720680169C943C90708D1C168E5
:10374000C943C90704D1891E0161204600F032F83F
:1037500020680169C943090609D4C168C94309063B
:1037600005D46FF0800101612046FFF797FE2068C5
:103770000169C943490609D4C168C943490605D44A
:103780006FF040010161204600F01EF820680169D9
:10379000C94389060BD4C168C943890607D46FF0B1
:1037A000200101612046BDE87040FFF778BE70BD82
:1037B00070477047034900680968884201D106F0E4
:1037C00079B87047A807002070477047704700001D
:1037D000F8B5016804460868CA684B6910F00F0F15
:1037E0004FF000055AD003F0010602F490773743FA
:1037F00065D0C10705D0D10503D5216C41F0010189
:103800002164410705D5D90703D0216C41F002019D
:103810002164810705D5D90703D0216C41F004014B
:103820002164010707D502F02001314303D0216C48
:1038300041F008012164216C00293BD0800604D5A9
:10384000900602D5204602F082FF20684069216C74
:10385000C0F3801001F00801014320462BD002F094
:103860004FFF20684069400621D52068143050E899
:10387000001F21F0400140E80012002AF5D1A06BA2
:10388000A8B16C490165A06BFFF743F8002811D07F
:10389000A06B016D01B0BDE8F040084783060ED56E
:1038A00093060CD52046BDE8F84002F050BF2046F4
:1038B000FFF78CFFF8BDFFF789FF2564F8BD266B85
:1038C0002023012E79D1C60677D5D60675D508688E
:1038D000486800904869400640D5A16B0868406878
:1038E0000004000CEAD0A28D8242E7D9E085C869C5
:1038F000B0F5807F2DD020680C3050E8001F21F4F7
:10390000807140E80012002AF5D12068143050E898
:10391000001F21F0010140E80012002AF5D12068C3
:10392000143050E8001F21F0400140E80012002A46
:10393000F5D184F83E30256320680C3050E8001F34
:1039400021F0100140E80012002AF5D1A06BFEF72B
:1039500097FFA08DE18D401A81B229E0A08DE18D05
:10396000401A81B2E08D0028A8D00029A6D0206896
:103970000C3050E8002F22F4907240E80026002E10
:10398000F5D12068143050E8002F22F0010240E801
:103990000026002EF5D184F83E30256320680C30D7
:1039A00050E8002F22F0100240E80023002BF5D150
:1039B0002046FFF70AFFF8BDFFE705062BD51506E1
:1039C00029D594F83D002128F5D1A068B0F5805F95
:1039D00001D12069B0B1206A411C216221680078C0
:1039E0004860E08C401E0004000CE084E3D12068B5
:1039F000C16821F08001C1602068C16841F04001C8
:103A0000C160D8E7206A0088C0F308004860206AD7
:103A1000801C2062E5E74006CDD55006CBD5CA68AC
:103A2000204622F04002CA6084F83D3000F0CFF812
:103A3000C1E70000F166000870B5040004D094F8F6
:103A40003D00002510B106E0012070BD84F83C5017
:103A5000204600F023F8242084F83D002068C16847
:103A600021F40051C160204602F0D2FE20680169B5
:103A700021F4904101612068416921F02A014161EE
:103A80002068C16841F40051C1602564202084F899
:103A90003D0084F83E00002070BD000010B586B0E7
:103AA000044614216846FCF7D5FB18492068884273
:103AB00029D117480021026842F010020260006814
:103AC00000F01000059012481438026842F001021C
:103AD0000260006800F0010005904FF4C0600090A3
:103AE0000220CDE9010103200390072004906946DC
:103AF0000848FFF747F8002211462520FFF7B2F9E2
:103B00002520FFF7A1F906B010BD0000001001400C
:103B10004438024000000240704700002DE9F8439D
:103B2000044690F83D001F4616460D4620284CD10D
:103B3000C5B1BEB194F83C00012846D0012084F8FC
:103B40003C004FF00008C4F84080212084F83D007C
:103B5000FFF71AF9A6848146E684A068B0F5805F75
:103B600003D004E00120BDE8F883206928B12E4687
:103B70005FF0000584F83C800EE00026FAE7802123
:103B8000204602F0CBFEA0B9AEB116F8010B2168B9
:103B90004860E08C401EE084E08C4B464FF0000211
:103BA00000970028EBD14FF04001204602F0B6FE0E
:103BB00030B10320D7E735F8020BC0F30800E6E781
:103BC000202084F83D000020CDE70220CBE770479D
:103BD000FEE7000070B50D4C0025C4F8A0520C485B
:103BE000016821F440210160016841F480210160F5
:103BF000C4F8A452022004F52874FEF7AFFE012099
:103C000020600220FEF7AAFE256070BD00804042C1
:103C10000004024030B587B014216846FCF71AFB57
:103C20001048016841F00201016000680E4D00F08B
:103C300002004FF440740590002221462846FFF709
:103C40009EF8009401240220CDE9024069460194C7
:103C50002846FEF797FF0548C0F8A042C0F8A442E6
:103C600007B030BD303802400004024000804042BE
:103C700070B50D4C0025C4F8A0520C48016821F421
:103C800040210160016841F4802101600126C4F8EF
:103C9000A462022004F52874FEF760FE266002206C
:103CA000FEF75CFE256070BD0080404200040240CB
:103CB0002DE9F047814616480024016821F440218F
:103CC000016001680160134E254627464FF0010848
:103CD000C6F8A0720220FEF741FEC6F8A082600678
:103CE000040ED6F8240208B1641CE4B20120FEF7E9
:103CF00035FE6D1CEDB2082DEAD3B9F1000F04D0EA
:103D0000FFF768FF2046BDE8F087FFF7B1FFF9E74E
:103D100000040240008040422DE9F041064614486C
:103D2000016821F440210160016841F480210160B3
:103D3000104C0027C4F8A0723D464FF00108F0096E
:103D4000C4F8A4027006060E0220FEF707FEC4F8AF
:103D5000A0820220FEF702FEC4F8A0720220FEF745
:103D6000FDFD6D1CEDB2082DE9D3BDE8F08100002A
:103D7000000402400080404270B50D48016821F403
:103D800040210160016841F480210160094C01205B
:103D9000C4F8A402C4F8A002042004F52874FEF7B5
:103DA000DDFD002565600420FEF7D8FD256070BDAF
:103DB00000040240008040420E4810B5016821F422
:103DC00040210160016841F4802101600A4C00201B
:103DD000C4F8A002C4F8A402042004F52874FEF775
:103DE000BDFD012020606060BDE810400420FEF7AA
:103DF000B5BD0000000402400080404270B512488A
:103E00000024016821F440210160016801600F4D28
:103E10000126C5F8A4623046FEF7A0FDC5F8A062F1
:103E20000120FEF79BFD07E0641CE4B2FA2C03D9E5
:103E3000FFF7C2FF012070BDD5F824020028F3D19E
:103E4000C5F8A00270BD000000040240008040429E
:103E50002DE9F047134C814600216088401E83B253
:103E60002088401E82B2084600F0B8F90E4E0020AD
:103E7000C6F8BC024FF00108C6F8B882054609E052
:103E8000002703E0484600F023FB7F1C2088B8424F
:103E9000F8D86D1C6088A842F2D8C6F8BC82BDE88C
:103EA000F087000028190020008040422DE9FE4FD5
:103EB000161ACDE900104FF000085D1A47464FF082
:103EC000FF30002E02DD4FF0010102E003D14FF080
:103ED00000018B4602E08346C6F10006002D02DD9C
:103EE0004FF0010002E003D14FF00000824602E0F3
:103EF0008246C5F10005AE4201DD344600E02C46A5
:103F0000601C4FF00009029018E0009881B20198FF
:103F100080B200F019F8B0442F44A04504DD0198A8
:103F2000A8EB040858440190A74203DD00983F1B0A
:103F30005044009009F101001FFA80F90299894567
:103F4000E3DDBDE8FE8F000010B500F043F9034843
:103F50000088BDE8104000F0BBBA000088060020D1
:103F600010B500F023F9CF2000F06CFA002000F02B
:103F700059FAD92000F056FA302000F053FAED201B
:103F800000F060FA642000F04DFA032000F04AFAD5
:103F9000122000F047FA812000F044FAE82000F0F7
:103FA00051FA852000F03EFA102000F03BFA7A200A
:103FB00000F038FACB2000F045FA392000F032FA50
:103FC0002C2000F02FFA002000F02CFA342000F012
:103FD00029FA022000F026FAF72000F033FA202018
:103FE00000F020FAEA2000F02DFA002000F01AFA82
:103FF000002000F017FAC02000F024FA1B2000F087
:1040000011FAC12000F01EFA122000F00BFAC520B0
:1040100000F018FA262000F005FA262000F002FA37
:10402000C72000F00FFAB02000F0FCF9362000F0B5
:1040300009FA082000F0F6F93A2000F003FA5520BA
:1040400000F0F0F9B12000F0FDF9002000F0EAF9ED
:104050001A2000F0E7F9B62000F0F4F90A2000F089
:10406000E1F9A22000F0DEF9F22000F0EBF90020E7
:1040700000F0D8F9262000F0E5F9012000F0D2F98F
:10408000E02000F0DFF91F2000F0CCF9242000F040
:10409000C9F9242000F0C6F90D2000F0C3F9122060
:1040A00000F0C0F9092000F0BDF9522000F0BAF983
:1040B000B72000F0B7F93F2000F0B4F90C2000F071
:1040C000B1F9152000F0AEF9062000F0ABF90E2092
:1040D00000F0A8F9082000F0A5F9002000F0A2F9EE
:1040E000E12000F0AFF9002000F09CF91B2000F067
:1040F00099F91B2000F096F9022000F093F90E20A8
:1041000000F090F9062000F08DF92E2000F08AF9D9
:10411000482000F087F93F2000F084F9032000F0E8
:1041200081F90A2000F07EF9092000F07BF93120A6
:1041300000F078F9372000F075F91F2000F072F9CF
:104140002B2000F07FF9002000F06CF9002000F037
:1041500069F9012000F066F93F2000F063F92A2098
:1041600000F070F9002000F05DF9002000F05AF92D
:10417000002000F057F9EF2000F054F9112000F072
:1041800061F97820FEF7D8FB292000F05BF90020C8
:1041900000F078F904490120C1F8B402BDE81040EC
:1041A0004FF6FF70FFF754BE0080404210B5084C38
:1041B0000020C4F8B002642004F52C74FEF7BCFBA8
:1041C00001202060BDE810403220FEF7B5BB0000A2
:1041D000008040420B460246AFF300802DE9F041DB
:1041E000DFF8508007461C4615460E4698F80A0030
:1041F00000F028F9380A00F015F9F8B200F012F9C9
:10420000280A00F00FF9E8B200F00CF998F80C0059
:1042100000F018F9300A00F005F9F0B200F002F9E8
:10422000200A00F0FFF8E0B200F0FCF8BDE8F04131
:1042300000F018B9281900202DE9FF4F81B08A46F7
:104240000EA9DFF8EC9091E83100203800F0FF086B
:104250000AEB0400401E83B20198B9F800B000EBED
:104260005400401E82B251460198FFF7B7FF002D5F
:104270004FF0000549D12F4808EB480100EB810AB7
:1042800000F2744000EB081817E00C2C03D018F86B
:10429000057000260CE01AF80570FAE7F80701D05F
:1042A000039800E0049800F013F97F08761CF6B23A
:1042B000B6EB540FF2D36D1CEDB2A542E5D326E068
:1042C0000C2C08D01C4901EB08100026475D0AEBB6
:1042D0000500009014E0174808EB480100EB81004E
:1042E000F3E70398A9F80000F80706D0009881B218
:1042F0000198304480B2FFF727FE7F08761CF6B2A3
:10430000B6EB540FEDD36D1CEDB2A542D8D30B48DC
:10431000A9F800B04188008805B0491EBDE8F04FFB
:10432000401E8BB282B200210846FFF757BF000043
:1043300088060020F89A00086C9F000828190020C1
:104340002DE9FF4F83B00026DDF840801D468346EF
:104350003446B1464FEA5807DFF864A02AE0281B2C
:10436000401EC1B20A2003F05DFF0599B1FBF0F0D9
:104370000A21B0FBF1F201FB120026B9691E8C4242
:1043800001DA40B101263030C0B28DE8010307FBED
:1043900004B080B205E0202207FB04B08DE80403DE
:1043A00080B2BAF800304FF478420499FFF744FF26
:1043B000641CE4B2AC42D2D307B0BDE8F08F000079
:1043C0008A0600202DE9FE4F1C4691468A46054686
:1043D000114E124FDFF84880DDF830B014E031881C
:1043E000491EA94215DB7188491E514511DB8DE834
:1043F000010A3B88B8F8002051462846FFF71CFF09
:1044000005EB590085B2641C2078A0F120015E29DB
:10441000E5D9BDE8FE8F0000281900208A0600209B
:104420008806002070B5064C0021C4F8BC12012596
:10443000C4F8B85204F52E7400F088FF656070BDB2
:104440000080404210B5064C0021C4F8BC12C4F8EC
:10445000B81204F52E7400F079FF0120606010BDE1
:10446000008040420148007AFFF7ECBF2819002085
:1044700010B50C46FFF7E6FFE0B2BDE81040FFF7CD
:10448000D1BF000011492A224FF4A0734A812B2288
:104490008A812C220A81F02258B101280DD00228ED
:1044A0000FD0032811D10B804A80A8213620FFF7B6
:1044B000DFBF0A804B800821F8E70B804A80682123
:1044C000F4E70A804B80C821F0E7704728190020E4
:1044D00070B5094C05460020C4F8BC020126C4F89A
:1044E000B862280A04F52E7400F030FFE8B200F03C
:1044F0002DFF666070BD00000080404210B504468C
:10450000007B012802D1206802F0CAFA0020206056
:104510006060A060207310BD5FF0010200F07F03B7
:104520000B70C00909D043F08003521C01F8013B15
:10453000042AF3DD4FF0FF307047104670472DE935
:10454000F0410446002500680F462E4610B10220B7
:10455000207315E001202073084602F00DFB206057
:10456000002808D0C4E9016702E0206846556D1CA8
:10457000A068A842F9D8BDE8F081206846556D1CB6
:10458000A068A842F9D866608842F4D22660F2E7B3
:104590002DE9FF47174688468146FBF79AFE84B20D
:1045A0004046FBF796FE0026A01D02F0E5FA050046
:1045B00025D0A11DFBF74EFE12A0224601682960FE
:1045C0008088A88049462846FBF797FE4046FBF7BF
:1045D00080FE034600200DF1040A012100908AE8C4
:1045E0008300424629460A2000F042F900B1012624
:1045F000284602F055FA304604B0BDE8F0870120A5
:10460000FAE7000024637273702F00002DE9FF5F4A
:104610009A46934600251046DDF844900E9F139C61
:10462000FBF757FE06B2BBF1000F1FD006F11100D9
:104630001FFA80F807B10225109868B145F004050B
:10464000FBF747FEC7B24846FBF743FEC11901EB33
:104650000800001D1FFA80F80F9870B1012807D0DC
:10466000022808D0022004B0BDE8F09F0120FAE73C
:1046700045F00C0501E045F01405129808B145F02D
:104680002405009860B3019850B345F0C007009826
:10469000FBF71FFE05460198FBF71BFE291801EBEF
:1046A0000800001D85B229462046FFF748FF206814
:1046B000C0B12946FBF7CEFDD4E90030411C1022E1
:1046C00061601A54D4E900010144681FFFF724FF18
:1046D00000B2002808DA2046FFF710FF0520C2E7E5
:1046E0000320C0E70420BEE7616823680844411C3A
:1046F000616000221A54D4E90030421C0421626037
:104700001954D4E90050421C4D2362602B54D4E963
:104710000050421C626051232B54D4E90030451CE8
:10472000542265601A54D4E90050431C63602A5433
:10473000D4E90030421C62601954D4E90020411CC5
:1047400061601754D4E90030411C4FEA1A226160BD
:104750001A54D4E90030421C626003F800A0D4E986
:104760000030411C320A61601A54D4E90020411C17
:1047700061601654D4E90001084432465946FBF7FB
:10478000BCFD606830446060780736D5B9F1000F31
:1047900001D10FF2D8091098FBF79BFD85B2D4E93F
:1047A0000030411C2A0A61601A54D4E90020411CDF
:1047B00061601554D4E9000108442A461099FBF7BA
:1047C0009CFD6068284460604846FBF782FD85B226
:1047D000D4E90030411C2A0A61601A54D4E900204F
:1047E000411C61601554D4E9000108442A46494639
:1047F000FBF783FD606828446060380618D5009890
:10480000FBF767FD85B2D4E90030411C2A0A6160DC
:104810001A54D4E90020411C61601554D4E9000108
:1048200008442A460099FBF768FD606828446060E8
:10483000780618D50198FBF74CFD85B2D4E9003015
:10484000411C2A0A61601A54D4E90020411C6160AD
:104850001554D4E9000108442A460199FBF74DFD9F
:104860006068284460600020FDE600000000000051
:104870002DE9FF5F8B46DDE90EA24FF00005119C8C
:1048800099465FEA0008294608D1012004B0BDE836
:10489000F09F232817D02B2815D06D1C1BF905007D
:1048A0000028F6D141F030070AB147F0010705EBC7
:1048B0000906B61C5FEA0A000DD0012805D00228BF
:1048C00006D00320E2E70220E0E747F0020701E01C
:1048D00047F00407B61CF11C2046FFF730FE2068A5
:1048E000A0B1F11CFBF7B6FCD4E90020411C6160CB
:1048F0001754D4E9000101443046FFF70DFE0028AB
:1049000006DA2046FFF7FAFD0520BFE70420BDE7E1
:10491000616823680844411C2A0A61601A54D4E97A
:104920000020411C61601554D4E9000108442A4666
:104930005946FBF7E2FC6068BAF1000F284460605A
:104940000BD02368411C4FEA182261601A54D4E945
:104950000030421C626003F80080029850B1D4E934
:10496000000108444A460299FBF7C7FC616801EB65
:1049700009006060002089E770B50C4605460421F7
:104980002046FFF7DCFD2168B9B160686223421C54
:1049900062600B54D4E90030411C022261601A5459
:1049A000D4E90030411C2A0A61601A54D4E900207D
:1049B000411C61601554002070BD012070BD70B5B0
:1049C0000C46054604212046FFF7B9FD2168B9B120
:1049D00060686223421C62600B54D4E90030411CC1
:1049E000022261601A54D4E90030411C2A0A616035
:1049F0001A54D4E90020411C61601554002070BD98
:104A0000012070BD70B50C46054604212046FFF715
:104A100096FD2168B9B160685023421C62600B5456
:104A2000D4E90030411C022261601A54D4E90030FC
:104A3000411C2A0A61601A54D4E90020411C6160BB
:104A40001554002070BD012070BD70B50C460546A0
:104A500004212046FFF773FD2168B9B16068622325
:104A6000421C62600B54D4E90030411C0222616098
:104A70001A54D4E90030411C2A0A61601A54D4E95E
:104A80000020411C61601554002070BD012070BDE4
:104A90002DE9F0474FF00008089C1F4691468A46D2
:104AA000060045460AD10120BDE8F08759F82500E7
:104AB00020B3FBF70EFC6D1C8044EDB2BD42F5D374
:104AC00007EB470101EB0805E91D2046AD1CFFF788
:104AD00036FD2168A1B160688222431C63600A54DC
:104AE000D4E9000101442846FFF716FD00B2002872
:104AF00008DA2046FFF702FD0420D5E70220D3E7BD
:104B00000320D1E7616823680844411C320A6160D0
:104B10001A54D4E90020411C61601654002520E09D
:104B200059F82500FBF7D5FB0646020AD4E9003008
:104B3000411C61601A54D4E900314A1C62605E5421
:104B4000D4E90001084459F825103246FBF7D5FB9B
:104B5000606823683044411C61606D1C03F800A04C
:104B6000EDB2BD42DCD300209EE700002DE9F04706
:104B70004FF000081C4617468946060045460BD1F3
:104B80000120BDE8F08700BF59F8250010B3FBF7FE
:104B9000A0FB6D1C8044EDB2BD42F5D308EB470588
:104BA000E91D2046AD1CFFF7CAFC2168A1B1606871
:104BB000A222431C63600A54D4E900010144284640
:104BC000FFF7AAFC00B2002808DA2046FFF796FC9F
:104BD0000420D6E70220D4E70320D2E761682368E7
:104BE0000844411C320A61601A54D4E90020411C77
:104BF0006160165400251CE059F82500FBF769FB9D
:104C00000646020AD4E90030411C61601A54D4E916
:104C100000314A1C62605E54D4E90001084459F82E
:104C200025103246FBF769FB60686D1C3044EDB21D
:104C30006060BD42E0D30020A3E7F0B50446002049
:104C400001235D05106012E0275C166807F07F07FE
:104C500007FB03661660265C360601D4401CF0BDD7
:104C6000DB01AB4202D36FF00100F0BD401C884273
:104C7000EADB4FF0FF30F0BDF8B50D4607461646AB
:104C80002F21C01CFBF71BFB0021009130B3441CFB
:104C90006A460421781CFFF7D0FF252001F06CFF45
:104CA0002860E8B12521FBF7D5FA2422214628689F
:104CB000FBF7B7FA009804F124072C3884B2601C83
:104CC00001F05AFF306068B1611CFBF7C3FA22465D
:104CD00039463068FBF7A5FA0020F8BD0120F8BD81
:104CE0000220F8BD286801F0DBFE0320F8BD417802
:104CF000022901D001207047817819B1012901D022
:104D0000FF207047C07870472DE9F84F05460078BE
:104D1000DDF828B000F00F0400200E460090C4F328
:104D2000410117461970984604F0080A6A460421A2
:104D3000681CFFF782FF054400986D1C022876D39B
:104D4000E10774D129884CBAA11C894688426ED3E8
:104D500038A1A81CFBF795FA10B10F20BDE8F88F19
:104D600098F8000020B1012828D002285FD125E062
:104D7000BAF1000F5BD1601C01F0FEFE3060E0B3C1
:104D8000611CFBF767FA2246A91C3068FBF749FA59
:104D90000098001BA0F10208401E01F0EDFE3860F3
:104DA00040B108F10101FBF755FA29194246891C67
:104DB00038682FE0306801F073FE38E000998945CB
:104DC00035D805EB0408BBF1000FB8F8020040BA73
:104DD000ABF800002BD0601C01F0CEFE306060B15B
:104DE000611CFBF737FA2246A91C3068FBF719FA59
:104DF0000098041BE01E241F00E018E001F0BCFE38
:104E000038600028D6D0611CFBF724FA08F10401B1
:104E100022463868FBF705FA2B213046FBF74FFA9C
:104E200028B923213046FBF74AFA002896D0FF2004
:104E300094E7000024637265710000004178022944
:104E400004D1817811B9C0780A2801D001207047B7
:104E5000002070474178022904D1817811B9C078C7
:104E60000A2801D0012070470020704741780229AC
:104E700004D1817811B9C0780A2801D00120704787
:104E8000002070474278022A09D18278B2EB112FB4
:104E900005D1C078C9B2884201D1002070470120F5
:104EA0007047000038B504460078FF210009421E13
:104EB0000E2A01D3084638BD0328FCD100200090FB
:104EC0006A460421601CFFF7B8FE20440099401C8C
:104ED000022907D32278D20704D1028852BA921C41
:104EE0008A4201D9FF2038BD04A1801CFBF7C9F913
:104EF00008B10F2038BD032038BD0000246372655F
:104F0000710000000146FF208A78002A0BD1CA7880
:104F1000142A08D1087938B1012805D0022803D015
:104F2000802803D00220704700207047012070477E
:104F3000827801211AB9C0781E2800D100210846C4
:104F4000704700001FB50022009201920292039266
:104F50000A4601466B460A20FFF708FE002819D1D1
:104F60000198009982B2012003F0B8FD6420FDF79A
:104F7000E3FC012003F00EF882B20749012003F0A0
:104F800045FB05480B210078B1EB101F02D103A0AF
:104F900001F062FD1FBD000068100020B3C9B9A672
:104FA000C8A1CFFBB6A9D4C40D0A00007FB5002468
:104FB00015480094019402941249039401604FF43F
:104FC0008031C0E901140461047680F820400F4963
:104FD000C0E90A140125C561C46080F8304045610C
:104FE000FDF7E9FA08B1FCF7EFFE0E20CDE9000568
:104FF000694602940448FDF735FA002801D0FCF711
:10500000E3FE7FBD00200140C80600200100000F24
:105010007FB500241548009401940294124903942A
:1050200001604FF48031C0E9011401250461057667
:1050300080F820400E49C0E90A14C561C46080F8B8
:1050400030404561FDF7B7FA08B1FCF7BDFE0D2011
:10505000CDE90005694602940448FDF703FA0028EB
:1050600001D0FCF7B1FE7FBD0021014010070020F8
:105070000100000F00B58FB01C216846FBF7EAF86D
:105080001C2107A8FBF7E6F819484FF02041102231
:10509000016018494160042181600021C160C0E9BC
:1050A00004128161C16113020162C0E90913930214
:1050B000C0E90B134163816341640F200DF1080CBB
:1050C0000090112301908CE80F00CDE906100DF13E
:1050D000240C08908CE80F000D9107AA694604483B
:1050E000FEF798F9002801D0FCF76EFE0FB000BD66
:1050F00058070020040100A02DE9F04F87B01421CB
:105100006846FBF7A7F861480024016841F02001D8
:105110000160016801F020010591016841F0800102
:105120000160016801F080010591016841F004010E
:105130000160016801F004010591016841F001017D
:105140000160016801F001010591016841F002016F
:105150000160016801F002010591016841F0400120
:105160000160016801F040010591016841F0100102
:105170000160016801F010010591016841F008012A
:1051800001600068DFF8089100F008004FF4C15595
:105190000590002229464846FDF7F1FD3D4F4FF2AC
:1051A0002906002231463846FDF7E9FD002202219A
:1051B0003948FDF7E4FDDFF8E4A000220221504663
:1051C000FDF7DDFDDFF8D8B04FF4825801224146EB
:1051D0005846FDF7D4FD8020CDE9000469465046CD
:1051E0000294FDF7CFFC00950125CDE901546946F5
:1051F00048460394FDF7C6FC0096CDE90154694684
:1052000038460394FDF7BEFC1620CDE9000469463C
:1052100038460294FDF7B6FCEF02CDE9007469460A
:1052200020480294FDF7AEFC0226CDE90065CDE9E9
:10523000026469461848FDF7A5FCCDE90065CDE993
:10524000026469465046FDF79DFCCDE90085CDE935
:10525000025469465846FDF795FC68028DE8310016
:1052600069460D48FDF78EFC012202210A48FDF730
:1052700086FD012239464846FDF781FD01221103D2
:105280004846FDF77CFD07B0BDE8F08F303802409E
:1052900000080240000402400018024000000240E2
:1052A000000C0240001402401CB500240F4800947A
:1052B0000D490194016042F2CF01C0E901140921B6
:1052C000C16080218161FEF733F908B1FCF77CFDF4
:1052D0000094694605480194FEF7E2F8002801D0E1
:1052E000FCF772FD1CBD000000100040A807002064
:1052F0000C4810B50A4901604FF4E13141600021CA
:1053000081600C22C160C0E904128161C161FEF7B5
:1053100093FB002803D0BDE81040FCF755BD10BD3D
:1053200000100140F0070020FEE7FEE700F00F004C
:10533000092801D830307047373070477047000077
:10534000014B184400F06CB800000C0830B508217F
:1053500000230A4A0124050602D5C2F8944201E05E
:10536000C2F89432C2F88C32C2F88C424006000E69
:10537000491E11F0FF01EED130BD00000080404217
:105380001C49884201D2002070471B49884201D243
:10539000012070471949884201D2022070471849FC
:1053A000884201D2032070471649884201D2042066
:1053B00070471549884201D2052070471349884239
:1053C00001D2062070471249884201D20720704757
:1053D0001049884201D2082070470F49884201D203
:1053E000092070470D49884201D20A2070470B20DE
:1053F00070470000004000080080000800C000085E
:10540000000001080000020800000408000006086F
:105410000000080800000A0800000C0800000E0840
:1054200010B5002303E010C841F823405B1C9342F1
:10543000F9D310BD2DE9F04F87B04FF000081746A3
:105440000E460446CDF81480B0F1006F38D3A007A3
:1054500036D1FDF72FFB1C48254604EB87074CF29D
:105460005039844215D24FF0010A4FF0020BBD4271
:105470000FD22868401C11D02846CDF80080FFF7D5
:105480007FFF02AA05A982E8010C6846FDF77EFAB3
:1054900028B14846FCF77EFD70B10FE02D1D48464F
:1054A000FCF778FDE3E70023214602203268FDF790
:1054B000C3FA18B9241D361DBC42F4D3FDF7B2FA65
:1054C00007B0BDE8F08F000000100C087047000026
:1054D0002DE9FF4F83B0884610A9044691E8600487
:1054E000814628782C4F9B46002852D03888A0EB64
:1054F0005601A1424DDB79888A1B424549DB297858
:10550000802915D9801BA04243DB424541DB202E78
:1055100033D0CDE9005A059A182E5B464146204605
:1055200034D0FCF70FFEA01984B215F8020FDBE7A8
:105530000D290DD0102E12D910228DE806045B46DD
:1055400041462046059AFEF777FE0834A4B211E0E2
:1055500008EB06001FFA80F84C466D1C0AE08DE847
:1055600042045B4641462046059AFEF765FE04EB81
:10557000560084B215F8010FB6E7CDE9005A5B4634
:1055800041462046059AFCF7CBFECCE7FCF750FEDF
:10559000C9E707B0BDE8F08F28190020FDF7FABB76
:1055A00030B593B030216846FAF754FE14210CA8A8
:1055B000FAF750FE1E480025016841F08051016055
:1055C000006800F0805011901A48016841F4804151
:1055D00001600068022400F48040119001200090D6
:1055E000000401908001CDE90640082008904FF4A6
:1055F000A870CDE9090404200B906846FDF754FD1E
:1056000008B172B6FEE70CA90F2081E831004FF413
:10561000A0500F904FF48050109005210CA8FDF77A
:1056200053FC002801D072B6FEE713B030BD000075
:1056300040380240007000400248016841F47001A7
:105640000160704788ED00E00148FDF7FEBF0000F3
:10565000A8070020F0B50268254C264D264E274F9E
:10566000274B4FF0804CA04209D0604507D0A8429C
:1056700005D0B04203D0B84201D0984204D122F004
:10568000700E4A6842EA0E02A0421BD0604519D053
:10569000A84217D0B04215D0B84213D0984211D0CA
:1056A000184DA8420ED0184DA8420BD0174DA84255
:1056B00008D0174DA84205D0164DA84202D0164D6D
:1056C000A84203D122F44075CA682A434D6922F0EA
:1056D00080022A4302608A68C2620A688262A0422B
:1056E00001D0984201D10969016301214161F0BDF6
:1056F000000001400004004000080040000C004091
:1057000000040140004001400044014000480140C5
:1057100000180040001C0040002000402DE9FF4F11
:1057200081B00D46DDE91087464906464FF47840C2
:10573000DDF838B0DDF8489008809246012442A395
:1057400010228C2128200094FEF73CFE3FA310225B
:105750008C2178200094FEF735FE3DA31022A02175
:1057600028200094FEF72EFE3AA31022A0217820D4
:105770000094FEF727FE38A31022B42128200094BD
:10578000FEF720FE35A31022B42178200094FEF706
:1057900019FE33A31022C82128200094FEF712FE20
:1057A00030A31022C82178200094FEF70BFE2EA310
:1057B0001022DC2128200094FEF704FE102404238C
:1057C00032468C2140200094FEF7BAFD04232A467D
:1057D0008C2190200094FEF7B3FD04235246A021B3
:1057E00040200094FEF7ACFD04230094A0219020FB
:1057F000049AFEF7A5FD04235A46B42140200094E4
:10580000FEF79EFD00940423B42190200F9AFEF72A
:1058100097FD04234246C82140200094FEF790FDE6
:1058200004233A46C82190200094FEF789FD032303
:105830004A46DC2160200094FEF782FD05B0BDE8F9
:10584000F08F00008806002078313A0079313A0064
:1058500078323A0079323A0078333A0079333A00B4
:1058600078343A0079343A006661632069733A000B
:105870002DE9F04FF4484FF000082DED0C8B85B06A
:105880004FEA000A9FEDF10A80F814809FEDF09B2B
:105890009FEDF1AB9FEDF2BBDFF8CCB380ED060AD4
:1058A00040F2CB1060F30F0440F6796060F31F44C0
:1058B00040F6D15060F30F0540F6866060F31F4557
:1058C0004FF4ED7060F30F0640F24B2060F31F467B
:1058D00040F6BC5060F30F0740F21D2060F31F47F5
:1058E0009AF8141008F10100C0B221F040018AF8C2
:1058F000141080460128D3D00228D1D00328CFD05D
:10590000B8F1040FCCD19FEDD90B01F0F7F851ECB1
:10591000100BFAF7B1FE1FFA80F840F6E2312E20A4
:1059200011FB01F110FB00F00844FAF798FE41EC7E
:10593000100B01F0E3F851EC100BFAF79DFE00EEAE
:10594000108A1FFA80F9B8EE401A00EE109AB8EEED
:10595000400AC1EE000A10EE900AFAF7A6FE41ECEA
:10596000180B53EC192BFAF7B3FE42D353EC1A2B56
:1059700051EC180BFAF7C4FE3BD3B8F1000F38D046
:10598000B9F1000F35D09FEDBB0B01F0B7F851EC2A
:10599000100BFAF771FE1FFA80F8152140F66940E6
:1059A00011FB01F110FB00F00844FAF758FE41EC3E
:1059B000100B01F0A3F851EC100BFAF75DFE00EEAE
:1059C000108A81B2B8EE401A00EE101AF8EE400AC2
:1059D00081EE200A10EE100AFAF767FEB0EE49CA0F
:1059E000F0EE69CA41EC180B53EC1C2BFAF770FE71
:1059F00023D2BBF80210BBF80000143914384FF062
:105A0000000889B280B24FF6FF7200F04FF91421FE
:105A10004FF47842084600F049F953EC1B2B51EC47
:105A2000180BFAF73BFDFAF727FE390CBAB280B231
:105A30000292CDE90310330C67E0B0EE4ADAF0EEE3
:105A40006ADA53EC1D2B51EC180BFAF759FED0D340
:105A50009FED8A0B01F052F851EC100BFAF70CFE97
:105A60001FFA80F840F6F13140F65C4011FB01F17D
:105A700010FB00F00844FAF7F2FD41EC100B01F0C6
:105A80003DF851EC100BFAF7F7FD00EE108A80B2EA
:105A9000F8EE400A00EE100AB8EE401A80EE810AD5
:105AA00010EE100AFAF701FE41EC180B53EC1C2B18
:105AB000FAF70EFE06D353EC1D2B51EC180BFAF738
:105AC0001FFE2CD2BBF80210BBF8000014391438AA
:105AD0004FF0000889B280B24FF6FF7200F0E6F88E
:105AE00014214FF47842084600F0E0F853EC1B2BE9
:105AF00051EC180BFAF7D2FCFAF7BEFD3A0CB9B22A
:105B000080B20291CDE90320330CB0B2CDE900039D
:105B10002B0CAAB2210CA0B2FFF700FEC0E69FED4D
:105B2000591ABBF80020A2F1280100EE101A5146C4
:105B3000B8EEC00AC0EE010ACAED060A9FED521A7D
:105B400000EE102AF6EE001AB8EE400A00EEC10A86
:105B500020EE210ABDEEC00A10EE103AAAF820305D
:105B60009FED4A1ABBF80200A0F1280300EE103A9C
:105B7000B8EEC02A82EE010A81ED070A9FED442AA1
:105B800001EE100AFDEEE00AB8EE411A10EE901A8E
:105B900000EE421A002921EE211ABDEEC11A11EEC3
:105BA000103AAAF8223000DA4942022908DCBDEE98
:105BB000C00A10EE101A002900DA494202292DDD30
:105BC000143881B2143A90B24FF000084FF6FF72C9
:105BD00000F06CF814214FF47842084600F066F8A3
:105BE000012000902BA310221A212820FEF7EAFBA7
:105BF0009AF8240048B100208AF8240038B11248ED
:105C00009021001F0170D02106E00120F4E70E482A
:105C1000D021001F01709021417041E622491F20D0
:105C20004FF6FF7408802046FEF712F94FF47A70A1
:105C3000FCF782FE00F008FA05B02046BDEC0C8BA4
:105C4000BDE8F04FFEF704B9900600200000000008
:105C5000666666666666EE3FCDCCCCCCCCCCF03FBB
:105C6000000000000000594028190020000000A09A
:105C700019126241000000A0248B6241000000A0C4
:105C8000DE4B72410060404500C0794500E042C5EE
:105C9000002086455450204E65656420726561641D
:105CA0006A75737421000000880600202DE9F8430E
:105CB000DFF8709004460D30A9F8002082B2A4F1FC
:105CC0000C000D4680B20B46FEF7F0F805F10D0012
:105CD00083B2193881B222461046FEF7E7F86E1CEF
:105CE00004F10108B1B21FFA88F0FEF72DF9B1B244
:105CF000661EB0B2FEF728F96F1EB9B21FFA88F01F
:105D0000FEF722F9B9B2B0B2FEF71EF900200090FA
:105D10000623B9F800202946204602F088F9BDE89C
:105D2000F88300008806002010B535202DED028B89
:105D3000FAF7DFFF0A2803D00020BDEC028B10BD6C
:105D400004212820FAF7C0FF00EE100A9FED178A01
:105D5000174CB8EEC00A04212C20C0EE080AC4ED8E
:105D6000060AFAF7B1FF00EE100A02213020B8EE61
:105D7000C00AC0EE080AC4ED070AFAF7A5FF20849E
:105D800002213220FAF7A0FF60843420FAF7B1FF35
:105D90009022211F84F82400D02310B10A704B7088
:105DA00001E00B704A700120C7E7000020BCBE4C28
:105DB000900600202DE9F04786B014216846FAF7D6
:105DC00049FA37480025016841F004010160016883
:105DD00001F004010591016841F0020101600168D0
:105DE00001F002010591016841F0200101600068A5
:105DF000DFF8B0A000F020000590002220215046DE
:105E0000FCF7BDFFDFF8A0804FF4006700223946A1
:105E10004046FCF7B4FFDFF8949000220121484689
:105E2000FCF7ADFF01240226CDE902460094694645
:105E300048460194FCF7A6FE0620CDE90005694618
:105E400002944846FCF79EFE01AA009782E8700083
:105E500069464046FCF796FE20208DE871006946B1
:105E60005046FCF78FFE1249881E00F09BF84FF653
:105E7000FF742046FDF7ECFFFAF724FFFFF754FF0D
:105E800018B1002006B0BDE8F0872046FDF7E0FF1E
:105E9000FFF7EEFC00F0D8F8FFF746FF0120F1E72E
:105EA0003038024000080240001402400004024062
:105EB000A20600202DE9F04700271E4D3C463E4635
:105EC000C5F880721C49C1F8AC72DFF870A0CAF83E
:105ED000947205F5207500F04DF90620FCF73EFDA3
:105EE0002E600120FCF73AFD4FF00108C5F8008054
:105EF0004046FCF733FD2E60B14646464FF6FF782C
:105F0000A5F5207508EA4404C5F880920120FCF745
:105F100025FDC5F88062D5F8080208B1641CA4B25A
:105F20007F1CFFB2102FEDD32009CAF89462BDE8A0
:105F3000F087000000804042008042420000414261
:105F4000FEB5064600256C463046FFF7B3FF24F841
:105F500015006D1CADB2052DF6D30020431C99B27F
:105F60000CE000BF34F8102034F81150AA4203D9D5
:105F700024F8105024F81120491C89B20529F1D3C6
:105F800098B20428EAD300215FF0010034F8102011
:105F9000401C114480B289B20428F7D30320B1FB1E
:105FA000F0F0FEBD2DE9F041074C06460D46207885
:105FB000FFF7C6FF07466078FFF7C2FF37802880EB
:105FC0000120BDE8F08100008C0600207FB50C4662
:105FD0000546694602A8FFF7E5FF00282FD001A972
:105FE00003A8FFF7DFFF002829D0BDF80C30BDF86B
:105FF0000820934203D803F13200824205D39A422B
:106000001FD802F1320083421BD2BDF80410BDF844
:106010000000814203D801F13206B04204D3884225
:106020000FD8323081420CD2D01840082880BDF8F9
:106030000000BDF80410084440082080012004B08E
:1060400070BD0020FBE7000010B51B4C04222DEDB5
:10605000028B282094ED060A9FED188A20EE080A8C
:10606000BDEEC00A10EE101AFAF764FE94ED070AAE
:1060700004222C2020EE080ABDEEC00A10EE101AF1
:10608000FAF758FEB4F9201002223020FAF752FE37
:10609000B4F9221002223220FAF74CFE94F82410B0
:1060A0003420FAF75CFEBDEC028B0A21BDE81040FB
:1060B0003520FAF754BE00009006002020BCBE4CEC
:1060C00002462A4810B5D0F80402294C30B1207D90
:1060D000010640D520F08000207543E0244800F1FF
:1060E0001201103012B1FFF771FF2AE0FFF76EFFC7
:1060F00038B3B4F9200094ED061A00EE100A208A95
:1061000000EE900AB8EEC00AF8EE600A01EE200A2E
:10611000BCEEC00A10EE100A2082B4F9220094ED01
:10612000071A00EE100A608A00EE900AB8EEC00A64
:10613000F8EE600A01EE200ABCEEC00A10EE100A6A
:106140006082207D00060DD4C0202075208AA081A9
:10615000608AE08106E00020A081E0814FF6FF70B8
:1061600020826082207D00F0800010BD00804042CF
:10617000900600202DE9F0470024DFF838900E4EFD
:10618000054627464FF00108280602D5C9F8AC821B
:1061900001E0C9F8AC726806050EC6F880720120ED
:1061A000FCF7DCFBC6F88082641CE4B2082CEBD35D
:1061B000BDE8F08700804242008040421FB50020C9
:1061C000039002220DF10C0BFE480DF10F01FFF7B9
:1061D00027F99DF80F00012823D0082203A9FA48C7
:1061E000FFF71EF95C460822611CF848FFF718F912
:1061F0000822A11CF648FFF713F99DF80D609DF8E1
:106200000C509DF80E7000BFFFF7D4FDDFF8C4936B
:106210004FF0010A5FF01004D9F80000012823D0E4
:106220003BE044208DF80C0055208DF80D0019201E
:106230008DF80E00022203A9E348FFF7FBF85C4645
:106240000222611CE148FFF7F5F80222A11CE04898
:10625000FFF7F0F89DF80D609DF80C509DF80E705A
:10626000DDA000F0F9FBCFE7082203A9D648FFF72D
:10627000D7F85D460822691CD448FFF7D1F80822F8
:10628000A91CD348FFF7CCF89DF80D609DF80C5081
:106290009DF80E700021C9F80010FBF785FCD2486C
:1062A00000940323027882216420FEF749F8DFF886
:1062B0003C830094032398F800201E216420FEF7FD
:1062C0003FF8CB4800940323027850216420FEF766
:1062D00037F800949DF80C20032332217820FEF734
:1062E0002FF800949DF80D20032364217820FEF7F9
:1062F00027F800949DF80E20032396217820FEF7BE
:106300001FF8BC48009404230288B4216420FEF7DF
:1063100017F8B9A18DE812044FF6E0731F22FA2195
:106320001E20FFF7D5F8B5A18DE812044FF6E073F3
:106330001F22FA219620FFF7CBF898F8000068B1E9
:106340009DF80C10814209D901231A463221D2202E
:106350000094FDF7F5FFFBF7C1FE08E001230022E2
:106360003221D2200094FDF7EBFFFBF7AFFEA048EF
:10637000007868B19DF80D10814209D901231A46B1
:106380006421D2200094FDF7DBFFFBF7B7FE08E0A5
:10639000012300226421D2200094FDF7D1FFFBF7F6
:1063A000A5FEDFF8448298F8000068B19DF80E1051
:1063B000814209D201231A469621D2200094FDF78A
:1063C000BFFFFBF7ABFE08E0012300229621D2209D
:1063D0000094FDF7B5FFFBF799FE9DF80E1098F8B5
:1063E000000081420DD38248007818B19DF80D104D
:1063F000814206D87D48007828B19DF80C10814272
:1064000001D9012200E0002202217E48FCF7B7FCFE
:10641000DFF8F4810020D8F80410884728B901F08B
:106420007FFC4FF4FA70FCF787FA98F8141009060D
:106430007FF5F2AEB8F8100097383B2815D2B8F8BF
:10644000120090B1322810D29DF80C000323401C9A
:10645000C2B28DF80C201546322178200094FDF749
:106460006FFF4FF4FA70FCF767FAB8F810003D3888
:106470003B2815D2B8F8120090B1322810D29DF8FE
:106480000C000323401EC2B28DF80C2015463221A9
:1064900078200094FDF754FF4FF4FA70FCF74CFAA3
:1064A000B8F8100097383B2816D2B8F812003C28EC
:1064B00012D96E2810D29DF80D000323401CC6B2DD
:1064C0008DF80D603246642178200094FDF738FF86
:1064D0004FF4FA70FCF730FAB8F810003D383B285A
:1064E00016D2B8F812003C2812D96E2810D29DF8A6
:1064F0000D000323401EC6B28DF80D6032466421A4
:1065000078200094FDF71CFF4FF4FA70FCF714FAA2
:10651000B8F8100097383B2816D2B8F8120078283F
:1065200012D9AA2810D29DF80E000323401CC2B233
:106530008DF80E201746962178200094FDF700FF75
:106540004FF4FA70FCF7F8F9B8F810003D383B2822
:1065500015D2B8F81200782811D9AA280FD29DF8C0
:106560000E000323401EC2B28DF80E209621782023
:106570000094FDF7E5FE4FF4FA70FCF7DDF9B8F88A
:1065800010001F3831284ED2B8F81200F0284AD92E
:10659000B0F5827F47D21DA000F05EFA8DF80FA003
:1065A0009DF80E7002220BF103010648FEF742FF30
:1065B00011A1CDE9001400204FF6E0734FF47842AA
:1065C000029029E000000408000006080000080806
:1065D00000000A08F4000020777269746520737562
:1065E00063636573730D0A00F9000020FB0000204F
:1065F000FA00002000010020524553005341564547
:1066000000000000000002409006002072657374D4
:106610002E2E2E2E0D0A0000FA211E20FEF758FF06
:1066200024A000F019FAB8F8101097395929BFF4CE
:10663000F3ADB8F81200F0287FF6EEADB0F5877F25
:10664000F5D28DF80D608DF80C508DF80E7000208D
:106650008DF80F001BA000F0FFF90222D8460BF1C5
:1066600003011B48FEF7E6FE022203A91948FEF7C4
:10667000E1FE022208F101011748FEF7DBFE0222CB
:1066800008F102011548FEF7D5FE0021AFF2940093
:10669000C9F800A00090CDE901414FF6E0734FF436
:1066A0007842FA219620FEF713FF0DA000F0D4F9EE
:1066B000B2E500007265737420737563636573736C
:1066C0000D0A0000736176652E2E2E2E0D0A000035
:1066D00000000408000006080000080800000A087E
:1066E0007361766520737563636573730D0A0000CB
:1066F00010B5806B0021C185C184FDF767F810BD1E
:1067000001680C3151E8002F22F4907241E8002317
:10671000002BF5D10168143151E8002F22F001025D
:1067200041E80023002BF5D1016B012909D1016853
:106730000C3151E8002F22F0100241E80023002B19
:10674000F5D1202180F83E1000210163704708B583
:1067500090F83E10222901D0022008BD82684FF433
:1067600080539A4201D1016921B1816A9A421BD0BA
:106770004AB10AE00268816A5268C2F308020A80DC
:10678000816A891C08E0026972B10268526802F0ED
:106790007F020A70816A491C8162C18D491E090409
:1067A000090CC18503D019E002685268F1E701685D
:1067B000CA6822F02002CA600168CA6822F48072A6
:1067C000CA6001684A6922F001024A61202180F80A
:1067D0003E10016B012903D0FDF79EF9002008BD92
:1067E0000021016301680C3151E8002F22F01002F2
:1067F00041E80023002BF5D101680A68D20602D5D2
:106800000A6849680091818DFCF7DFFFE6E7000028
:1068100070B5044600680169E26821F440511143F3
:1068200001612169A068E269084361691143084375
:106830002168CA6849F20C639A430243CA6020681F
:106840004169A26921F440711143416131492068D5
:10685000884202D03049884202D1FCF7E5FB01E0D2
:10686000FCF7D2FBE2690023192164253226B2F538
:10687000004F626828D0A0FB0101930F9200F9F746
:106880009FFC0146B0FBF5F06FF01802504301EB9E
:10689000800006EB0010B0FBF5F000F0F002B1FB59
:1068A000F5F002EB0012B1FBF5F06FF0180358435E
:1068B00001EB800006EB0010B0FBF5F000F00F00DC
:1068C00021681044886070BDA0FB010192185B41F3
:1068D000F9F776FC0146B0FBF5F00201B1FBF5F0EB
:1068E0006FF01803584301EB800006EBC000B0FBCB
:1068F000F5F000F0F80002EB4002B1FBF5F0584370
:1069000001EB800006EBC000B0FBF5F000F00700E3
:10691000D6E7000000100140001401402DE9F041CD
:10692000984617460E460446069D27E0681C25D06B
:106930002DB1FCF729FAA0EB0800A8421ED9206867
:106940000C3050E8001F21F4D07140E80012002AFA
:10695000F5D12068143050E8001F21F0010140E813
:106960000012002AF5D1202084F83D0084F83E0072
:10697000002084F83C000320BDE8F0812068006816
:1069800036EA000004D00020B842CFD00020F3E760
:106990000120F9E70148FCF71BBF0000F0070020C9
:1069A000FEE700000149C9690847000068000020AF
:1069B000014A126A104700006800002070B50025E7
:1069C0002C461C48FBF7C0FE64211A48FBF766FE04
:1069D0001848FBF7EDFD06461648FBF733FF641C2D
:1069E000E4B235440A2CECD30A20B5FBF0F0F9F7F9
:1069F00036FE9FED111B53EC112BF9F74FFDF9F704
:106A000097FEF9F752FE9FED0E1B53EC112BF9F791
:106A100042FD9FED0D1B53EC112BF9F7B1FD9FEDDE
:106A20000C1B53EC112BF9F739FDF9F725FEC0B219
:106A300070BD0000C80600206666666666664A3F4E
:106A40004E9A0645F3200440F41263997E89E33F91
:106A500000000000000059400FB4054B10B503A919
:106A6000044A029800F0C4F910BC5DF814FB000061
:106A7000E17E0008B80600200907090E002804DBA3
:106A800000F1E02080F80014704700F00F0000F1E2
:106A9000E02080F8141D704700487047C4060020AD
:106AA00030B528B1144C031F002021680A4605E0C8
:106AB000084630BD9A4203D810465268002AF9D1E0
:106AC000002800D041680BD00468A3EB0005A54264
:106AD00004D11B681C440346046002E0436000E0EC
:106AE00023603AB11C68D51AA54203D115682C441D
:106AF0001C6052685A6030BDBC06002000B52DED08
:106B0000048BB0EE409AF0EE609A83B051EC190B12
:106B1000F9F73DFF41EC180B18EE100A18EE901A29
:106B20008DED008B002818BF0120084320F00040A5
:106B3000C0F17F6000F1E040C00F14D019EE101AD0
:106B400019EE900A8DED009B002918BF0121084322
:106B500020F00040C0F17F6000F1E040C00F04BFB2
:106B6000012000F041F8B0EE480A03B0F0EE680AE8
:106B7000BDEC048B00BD00002DE9F04782460F4CB0
:106B800010480D4E0E4F001B4FF0000820F0070577
:106B90004FF0010900221146504601F08BFA0028FF
:106BA00002D1306810B10020BDE8F0873C60C4E934
:106BB0000058C6F80090EDE7C00600203C19002000
:106BC000BC060020381D002002E008C8121F08C1C2
:106BD000002AFAD170477047002001E001C1121F5E
:106BE000002AFBD17047000001490860704700008F
:106BF000C40600202DE9F05F15461C46DDF828B0DC
:106C00000E46074601EB040800EB050A1FFA88F15F
:106C10001FFA8AF05A46FBF7F9FBA7EB05091FFAA2
:106C200088F11FFA89F05A46FBF7F0FBA6EB04083F
:106C30001FFA88F11FFA8AF05A46FBF7E7FB1FFAA2
:106C400088F11FFA89F05A46FBF7E0FB06EB0508CE
:106C500007EB04091FFA88F11FFA89F05A46FBF77F
:106C6000D5FB3C1B1FFA88F1A0B25A46FBF7CEFBBE
:106C7000751BA9B21FFA89F05A46FBF7C7FBA9B2E8
:106C8000A0B25A46BDE8F05FFBF7C0BB2DE9FF5F3D
:106C9000DDE90220010DDDF838B0024318D044F6DA
:106CA0001050A1F2FF3141430D140F98012820D05C
:106CB000A5EB0B00401C5FEA000A4FF00004474EB2
:106CC000DFF81C91A046504616D5CAF1000728E00F
:106CD0000F98012443A2012808D0002100980F9B9F
:106CE000C0E90021C0E90243BDE8FF9F6FEA0B0144
:106CF000F4E7CBF10000DEE7074612E0F80707D023
:106D00002246334640464946F9F7C8FB8046894645
:106D10002246334610461946F9F7C0FB04460E4694
:106D20007F10002FEAD1DDE90201BAF1000F4246DF
:106D30004B4602DAF9F7B2FB01E0F9F721FC044611
:106D40000E460022284BF9F7DBFC03D84FF0FF304A
:106D5000014607E00022254B20463146F9F7F7FAB5
:106D6000F9F766FE102409E0002C0ADB0A22002352
:106D7000F9F726FA019B30321A55641E50EA0102D7
:106D8000F2D1641C019AC4F1110314440F9A012A30
:106D900003D0012208430DD10AE0084304D00020AB
:106DA0004FF0110B0F9080E7A3EB0B056D1E0DE06C
:106DB0005B4504DD4FF0000205F1010504E003DA54
:106DC0004FF00002A5F10105002AECD000980F99C0
:106DD000C0E90231C0E9004586E700000000244018
:106DE0000000F03F300000000000F0430000E03FF2
:106DF0002DE9FF4F95B09B468946064600250FE2D8
:106E0000252877D100242746F84A0121059400E07F
:106E1000044316F8013F203B01FA03F01042F7D17A
:106E200030782A2811D06FF02F033078A0F130028B
:106E3000092A16D8059A44F0020402EB820203EBF9
:106E400042021044761C0590EFE759F8042B059296
:106E5000002A03DA504244F40054059044F002043E
:106E6000761C30782E2816D116F8010F44F0040451
:106E70002A280DD06FF02F023078A0F13003092BB3
:106E800009D807EB870302EB4303C718761CF3E727
:106E900059F8047B761C30786C280FD006DC4C281F
:106EA00017D068280DD06A2814D104E0742810D0B7
:106EB0007A280FD10DE044F400140AE044F4801461
:106EC00001E044F440147278824202D104F5801447
:106ED000761C761C307866280BD013DC582877D0C7
:106EE00009DC002875D04528F6D04628F4D047287C
:106EF0001AD19DE118E0632835D0642879D065283F
:106F000012D195E1702873D008DC6728F1D0692888
:106F10006FD06E280DD06F2806D1B5E073282CD025
:106F2000752875D0782874D05A46179990476D1CEB
:106F300075E1C4F30250022809D003280DD0D9F816
:106F4000001004280DD00D6009F1040967E1D9F89B
:106F50000010EA17C1E90052F6E7D9F800100D80D9
:106F6000F2E70D70F0E719F8041B8DF8001000200F
:106F70008DF80100EA46012003E059F804AB4FF018
:106F8000FF3061074FF0000102D40DE008F101016C
:106F90008846B9420FDA8045F8DB1AF80810002954
:106FA000F4D108E008F1010188468142FADB1AF8C1
:106FB00008100029F6D105985B46A0EB080721468A
:106FC0003846179A00F094FA284400EB080507E0C9
:106FD0004DE029E10DE01AF8010B5A461799904748
:106FE000B8F10108F7D25B4621463846179A13E1FB
:106FF00042E00A220092C4F302524FF0000A022A31
:1070000008D059F804CB032A4FEAEC710AD00DE0FE
:1070100029E02AE009F1070121F00702F2E802C1A4
:10702000914609E00FFA8CFC4FEAEC71042A03D177
:107030004FFA8CFC4FEAEC71002907DA0A4600216E
:10704000DCF1000C61EB02012D2202E0220504D5E7
:107050002B228DF80420012203E0E20701D0202238
:10706000F7E7904659E00A2102E010220DE01021D6
:107070004FF0000A00910BE010224FF0000A44F09C
:1070800004040827009203E008224FF0000A00924F
:10709000C4F30252022A05D059F804CB0021032A76
:1070A00008D009E009F1070121F00702F2E802C166
:1070B000914605E01FFA8CFC042A01D10CF0FF0C6C
:1070C0004FF00008220728D5702806D0009B83F0D7
:1070D000100353EA0A0305D00EE040228DF8042085
:1070E000012208E05CEA010206D030228DF804207B
:1070F0008DF8050002229046009B83F0080353EAB6
:107100000A030AD15CEA010201D1620705D53022E7
:107110008DF804204FF001087F1E582804D034A0B9
:1071200003900EA802900DE036A0F9E753466046A2
:10713000009AF9F745F884460398825C0298401E4D
:10714000029002705CEA0100F0D1029806A9081AC8
:1071500000F1200A600702D524F4803400E0012702
:10716000574502DDA7EB0A0000E0002000EB0A0112
:10717000009005984144401A0590E00306D45B4610
:107180002146179A059800F0B3F90544002706E058
:1071900001A85A46C05D179990476D1C7F1C474552
:1071A000F6DBE0030CD55B462146179A059800F004
:1071B0009FF9054404E030205A46179990476D1C0A
:1071C0000099481E00900029F5DC08E00298029919
:1071D0005A460078491C0291179990476D1CBAF1E4
:1071E0000001AAF1010AF1DC65E1000009280100B3
:1071F000303132333435363738396162636465662D
:1072000000000000303132333435363738394142EE
:10721000434445460000000000F058F90544761C40
:10722000307800287FF4ECAD19B02846BDE8F08F27
:10723000620700D4062709F1070222F0070CFCE8D8
:107240000223E14603F000485FEA080C02D00FF287
:10725000702C0DE05FEA045C02D50FF2682C07E0A9
:107260005FEAC47C02D00FF2602C01E0AFF2700C38
:107270004FF0FF3823F00043CDF850C065280CD004
:1072800006DC452809D046281DD047283DD13DE0E1
:10729000662818D067287ED138E00021112F01DB45
:1072A000112000E0781CCDE9000106A90EA8FFF727
:1072B000EDFCDDE90F010E9A03910021009207F128
:1072C000010A04914DE04FF000400097CDE9011014
:1072D00006A90EA8FFF7DAFCDDE90F0203920E9B68
:1072E00011990022DDF80CA00093049211B9791CC9
:1072F00000EB010AB7EB0A0004D4C0F1FF3007F13C
:10730000010A0490AAEB0700019044E0012F00DA83
:1073100001270021112F01DD112000E03846CDE9C1
:10732000000106A90EA8FFF7B1FCDDE90F010E9AD6
:107330000391002104910092BA4621070CD40399CD
:10734000514500DA8A46BAF1010F05DD009AAAF12B
:107350000101515C302908D0B84202DA10F1040F63
:1073600006DA0121CDE9011015E0AAF10101E9E7F2
:10737000002805DC049901440491AAEB000102E015
:10738000411C514500DD8A460499401A401C019079
:107390004FF000400290200704D40198504501DBD3
:1073A000CDF8048000208DF84F0002980DF14F07B2
:1073B000B0F1004F25D02B200E9002984FF002081C
:1073C00000280CDA404202902D200E9007E00A219E
:1073D0000298F9F7C9F93031029007F8011DB8F1A8
:1073E0000001A8F10108F2DC02980028EFD1791E13
:1073F0000E980870307800F0200040F0450007F843
:10740000020D12A8C01B00F107081498007800B103
:10741000012000EB0A01019801EBE071059841445D
:10742000401A401E0590E00306D45B462146179A99
:10743000059800F05DF805441498007818B15A4694
:10744000179990476D1CE00324D55B462146179A97
:10745000059800F04DF805441CE00498002807DB6F
:10746000DDE90301884203DD0098405C179901E0E3
:10747000179930205A469047049805F10105401CA1
:1074800004900198401E019004D12E205A4617996D
:1074900090476D1CBAF10001AAF1010ADDDC05E09C
:1074A00017F8010B5A46179990476D1CB8F1000167
:1074B000A8F10108F4DC5B462146179A0598ABE673
:1074C0002D0000002B000000200000002DE9F041FD
:1074D000044600251E461746880404D405E03946B4
:1074E0002020B0476D1C641EF9D52846BDE8F08108
:1074F0002DE9F041044600251E469046C80301D5FB
:10750000302700E02027880404D505E041463846AE
:10751000B0476D1C641EF9D52846BDE8F081000017
:1075200070B586B014216846F8F794FE2B49481EC2
:10753000FAF71BFAFFF742FA284DAD1EE87000F08B
:10754000DBFC28816946687802F0DAF96A4624A1F2
:1075500005F5996002F0FCF9002006466C462654B9
:10756000401CC0B21428FAD32146A87802F0C8F90A
:107570006A461EA1204802F0EBF900202654401C68
:10758000C0B21428FAD36946E87802F0B9F96A461D
:107590001AA1194802F0DCF900202654401CC0B2A0
:1075A0001428FAD36946288902F0AAF96A4617A175
:1075B000114802F0CDF900202654401CC0B2142816
:1075C000FAD3FAF7B3FD30308DF800006A4612A105
:1075D000094802F0BDF906B070BD0000FA000020B5
:1075E00074656D70657261747572650048756D695A
:1075F0006469747900000000C0050020736F696C35
:1076000048756D6964697479000000004C696768A9
:10761000744C757800000000416C61726D5377699D
:1076200074636800F8B5134E3046FFF7BBF9C5B276
:1076300003213046FFF7BCF90F4B41F28830DC1FC5
:10764000009011220DA1A07801F0C2FD0746294645
:107650003046FFF7ADF90D3707D001F0DBFAE069EE
:10766000001A0228FDD30020F8BD09A0FFF7F4F9A5
:107670000120F8BD1E0000689B00002043484543E0
:107680004B5F49505F434F4E464C49435400000006
:107690000D0A3E20436865636B206C656173656409
:1076A000204950202D204F4B0D0A000070B5194C79
:1076B0000125204694F9011000260078022916DAE7
:1076C000D4E907128A4222D2012804D0022805D028
:1076D000042805D102E001F02BFB01E001F022FCBF
:1076E0000A20C4E907606078401C60700FE0012840
:1076F00004D0022805D0042807D102E02670002516
:1077000003E001F015FB0120207001F0C5F92846C7
:1077100070BD0000940000200848816803290BD345
:10772000002282604178022902D34270501E7047C5
:10773000491C41700020704701207047E400002080
:107740002DE9FC410446082803D94FF0FF30BDE87D
:10775000FC81354800EB84108046FFF723F900F0E8
:107760000F013148801C00EB8415801D00EB84164E
:10777000012930D1204600F02FFC0746204600F0BA
:1077800045FCB7EB802F26D028A00221006801908D
:107790004046FFF70DF924484FF440570A3000EBFC
:1077A00084103946FFF704F928460121FFF700F954
:1077B0002846FFF7F7F810F0FF0FF9D13046FFF732
:1077C000F1F8C0B22228F9D101AB012219462046B6
:1077D000009701F0FDFC28461021FFF7E9F8284644
:1077E000FFF7E0F810F0FF0FF9D10F48FF21801DDF
:1077F00000EB8410FFF7DCF80D490120A0404A8817
:1078000082434A808A8882438A800A49002021F87C
:1078100014000749891D08553046FFF7C3F810F0DA
:10782000FF0FF9D1012092E700020068000000017B
:1078300018000020540800202DE9F04117460E469C
:107840000446082803D94FF0FF30BDE8F0813F48D7
:1078500000EB8410FFF7A6F800F00F00012802D01B
:107860006FF00400F1E73948083000EB841005465A
:10787000FFF798F8C0B2132802D06FF00200E4E7D7
:1078800030787178F27801EB0020B17801EB0021BB
:1078900002EB01214A1C32D079B37FB381B22B486D
:1078A000143000EB8410FFF783F8F078B17800EB28
:1078B000012081B22548163000EB8410FFF778F8DC
:1078C00022483946123000EB8410FFF771F81F4848
:1078D0000421801C00EB84100646FFF769F830464F
:1078E000FFF760F810F0FF0FF9D119490120A0400F
:1078F000498808421ED00020A7E700E002E06FF0B0
:107900000B00A2E76FF00A009FE72046FFF74AF856
:10791000000706D520460821FFF74AF86FF00C0053
:1079200093E72846FFF73EF810F0FF0F06D16FF0FF
:1079300003008AE70548801D00EB84142846FFF702
:1079400031F8C0B21728E0D101207EE700020068BC
:10795000180000202DE9F84F474C484F60782178F7
:1079600000EB012081B23846FFF722F8E078A178D9
:1079700007F1020800EB012081B24046FFF718F83A
:1079800008343E1F6078217800EB012081B2304638
:10799000FFF70EF8E078A17806F1020900EB01206C
:1079A00081B24846FFF704F8241FA6F1040A607864
:1079B000217800EB012081B25046FEF7F9FFE07814
:1079C000A178B51E00EB012081B22846FEF7F0FF3A
:1079D0003846FEF7E7FF2A4C000A20703846FEF7CB
:1079E000E1FF60704046FEF7DDFF000AA0704046F0
:1079F000FEF7D8FFC0B2E0700090A37862782178DB
:107A000020A0FFF729F83046FEF7CCFF254C000AEE
:107A100020703046FEF7C6FF60704846FEF7C2FF92
:107A2000000AA0704846FEF7BDFFC0B2E0700090AB
:107A3000A378627821781CA0FFF70EF85046FEF775
:107A4000B1FF214C000A20705046FEF7ABFF60707A
:107A50002846FEF7A7FF000AA0702846FEF7A2FFFF
:107A6000C0B2E0700090A3786278217817A0FEF78A
:107A7000F3FFBDE8F88F00009B00002018000068AD
:107A8000330000200D0A2057353330302049205074
:107A900020B5D8D6B7A3BA25642E25642E25642E2A
:107AA00025640000370000200D0A205735333030A0
:107AB00020D7D3CDF8D1DAC2EBA3BA25642E256442
:107AC0002E25642E256400003B0000200D0A20575F
:107AD0003533303020CDF8B9D8B5D8D6B7A3BA25CC
:107AE000642E25642E25642E2564000010B54FF009
:107AF000D0410F4C802008806078217800EB012075
:107B000081B20C48FEF754FFE078A17800EB012029
:107B100081B20848801CFEF74BFF60792179BDE8EF
:107B2000104000EB012081B20248001DFEF740BF6B
:107B3000D40000200800006810B54FF0D04180202C
:107B40000880FFF707FF0E4C6078217800EB0120DA
:107B500081B20C48FEF72CFFE078A17800EB012001
:107B600081B20848801CFEF723FF60792179BDE8C7
:107B7000104000EB012081B20248001DFEF718BF43
:107B8000D40000200800006810B5FDF78DFBBDE8AB
:107B900010400148FBF718BDA807002070B5B0B031
:107BA00015460C460646C0236A4600F0EFFC411C11
:107BB00049D00444204600F0D5F90A3410283FD2B9
:107BC000DFE800F03E08153E3E152B1515153E3E2C
:107BD000151A3E2114F8010B287014F8010B687077
:107BE00014F8020BA87014F8010CE87028E0C02308
:107BF0006A460BE0044423E014F8010B204410F81B
:107C0000011B44181CE0C0236A46A41C21463046D0
:107C100000F0BCFC411C16D0ECE7C0236A462146AC
:107C2000304600F0B3FC411C0DD00444C0236A462A
:107C30002146304600F0AAFC411C04D00444143410
:107C4000204630B070BD0020FBE700002DE9F04376
:107C5000034691461046294A0D46B1B05188491C49
:107C600089B2518000F0CBFC4FF4807141EAC3210E
:107C700089B200F0C4FC012100F0C1FC002100F039
:107C8000BEFC002100F0BBFC002100F0B8FC044663
:107C900029466846F8F745FB6E463046F8F719FB6B
:107CA0001FFA80F82E213046F8F709FB070002D0B2
:107CB000B81B85B200E0454604F8015B8DB12A4649
:107CC00031462046F8F7EFFA2C443FB1A8EB050007
:107CD000401E2E441FFA80F8761CE3E7002004F8CB
:107CE000010B0121204600F08AFC012100F087FCF5
:107CF000A0EB090031B000B2BDE8F083E400002041
:107D000010B5B0B00C46C0236A4600F03FFC411CE1
:107D100003D02044001D30B010BD0020FBE7000060
:107D20002DE9F0415548FEF73DFE554C10F0FF009F
:107D30004FF000070AD013281CD017282FD01C287A
:107D400076D1BDE8F0410120FFF7FABC4D4D01218D
:107D500020232A88501C2880084601F0F5FC28883A
:107D600042F21E31884202D942F2C4202880FFF735
:107D70000BFF6CE0424A44A10A325048F9F742FE38
:107D8000012804D0BDE8F0414DA0FEF765BEA288F1
:107D9000BDE8F0413A490A310120FFF74DBD374DAA
:107DA000AD1E2846FEF7FEFDC00703D00121284680
:107DB000FEF7FEFD012000F0EDF882B244490120FB
:107DC00000F024FC424D65612846F9F72FF920693F
:107DD0000C26082841D02CDC01283BD0032837D1C1
:107DE000FFF79EFB26483B4918300068F9F7E4F896
:107DF0004FF49670FAF7A0FD012000F0CBF882B2A4
:107E00002946012000F002FC28466561F9F70EF9C9
:107E10006420FAF791FD012000F0BCF882B22946F7
:107E2000012000F0F3FB28466561F9F7FFF81DE03B
:107E30000EE00A281CD00C280AD1274C2078642890
:107E400006D90F490222891D012000F047FE277044
:107E5000BDE8F081F8F7A2FF08E0094801211830D9
:107E6000F9F7EEFA01211D48F9F7EAFA2661EFE782
:107E7000034801211830FDF765F8F7E7480200686C
:107E8000F80000205E0000206131694D6738556FB1
:107E90006E536C2E696F742D61732D6D7174742E19
:107EA000636E2D7368616E676861692E616C6979B4
:107EB000756E63732E636F6D000000003B00002041
:107EC0000D0A20444E5320466C617368A3A1000044
:107ED00028110020C0050020320000206803002087
:107EE00013B54FF6FF73012269460248FBF716FEF1
:107EF00000981CBDF007002070B5002425460F48EF
:107F0000FAF722FC0A210D48FAF7C8FB38B90B48EA
:107F1000FAF74EFB84B24FF4A5706043050B074897
:107F2000FAF790FC214606A0FEF796FD6420B5FB0B
:107F3000F0F107A0FEF790FD204670BD100700206D
:107F40000D0A2061646344617461203D2025640052
:107F5000566F6C746167652076616C75653A25644F
:107F60000D0A00000178407800EB012080B27047D4
:107F7000C10700F0FE0010B500F1D04000F128006C
:107F800003D0FEF70FFDC0B210BDFEF70BFD000AD7
:107F900010BD00002DE9F04107460D48012500EB1A
:107FA0008718801E00EB87164046FEF7FBFC044650
:107FB0003046FEF7F7FC44EA0044AC4201D02546C7
:107FC000F2E70448C05DC0F340002044BDE8F08102
:107FD0002A0200681E0000202DE9F0410A49012410
:107FE00001EB8016891E01EB80153046FEF7DAFCA6
:107FF00007462846FEF7D6FC47EA0040A04201D0DB
:108000000446F2E7BDE8F08126020068C10700F0EF
:10801000FE0010B500F1D04000F1200003D0FEF7C3
:10802000C1FCC0B210BDFEF7BDFC000A10BD2DE9B9
:10803000F84F90461E46894682460024724203202D
:108040000A9900EB4205C9B930E0274608E03B46F3
:10805000224649465046CDF80080FEF7CBFD7F1CF6
:10806000B742F4DD002D03DA05EB8405AD1D04E015
:10807000A01B05EB80050A35761E641CB442E4DDC6
:10808000BDE8F88F3346224649465046CDF8008079
:10809000FEF7B0FD002D03DA05EB8405AD1D04E00D
:1080A000A01B05EB80050A35761E641CB442E9DD91
:1080B000E6E700002DE9F0410B3020F00706104DF7
:1080C00019E02068B04215D3B0420AD9871B201DA1
:1080D000D4F80480F8F7A5F8A019C0E90078286062
:1080E00004E060682860201DF8F79BF8201D2660DA
:1080F000BDE8F081251D2C68002CE2D10020F7E7B7
:10810000BC060020FAF74EFEFDF74AFAFCF7F4FF32
:10811000FDF7EEF8FCF7AEFFFDF7C6F8FCF746FFFB
:10812000FCF776FFFBF71CFF00F0C0FC01F0BAF98A
:1081300001F020FA01F0AAFB02E005A0FEF78CFC9A
:10814000F9F7D0FB0028F8D1FEF738F8FCE700007B
:108150000D0A204448543131204572726F7221005B
:108160002F4A10B5D16B0120087048700620887026
:108170000020C870936B1B0E0B71936B1B0C4B7123
:10818000138F1B0A8B7192F83830CB71D16B80231F
:1081900008818B72C872D16B02F140030873487377
:1081A0008873C873087448748874C87408754875EF
:1081B0008875C875087648768876C8761C780C77F6
:1081C0005C784C779C788C77DC78CC771C7981F85C
:1081D00020405B7981F821300623CC185B1CDBB290
:1081E0002077102BF9D3D36B00215C18491CC9B23E
:1081F00084F82C004029F8D3D36B00215C18491C6B
:10820000C9B284F86C008029F8D3D06B6321822234
:1082100000F8EC1F427053228270C17010BD000044
:10822000940000200246012000E05043491EC9B2DC
:10823000FBD27047F0B5764C89B00025A078FFF7E7
:10824000A9FE0204120C1BD004A8009005ABA07874
:10825000E16B00F0B5FA86B29DF81700BDF810107A
:108260008DE843009DF816309DF815209DF81410F8
:1082700068A0FEF7F1FBBDF81000432803D073E0BF
:10828000002009B0F0BD6249E06B4031027F0B78FD
:108290009A4215D1427F4B789A4211D1837F8A78D6
:1082A00093420DD1C27FCB789A4209D190F8202019
:1082B0000B799A4204D190F8212049798A4201D061
:1082C00060A033E0524930310A1D0B782BB94F784A
:1082D0001FB98F780FB9CF785FB39DF814709F42A4
:1082E00011D19DF8153091F801C063450BD19DF86F
:1082F000163091F802C0634505D19DF8173091F80A
:1083000003C0634515D013789F420ED19DF81530F8
:108310005778BB4209D19DF8167093789F4204D1DB
:108320009DF81730D778BB4203D052A0FEF794FBDC
:10833000A6E7F0308319F03B14E00678332E44D0E2
:1083400007DCAEB1012E18D0032E21D0062E06D1A7
:1083500024E0352E0ED0362E43D0FF2E06D04678A0
:10836000801C30449842E8D368B28AE71846F9E79F
:10837000401CF7E78578C01CF4E7254E87780F3658
:108380003770C77877700779B7704779F7703CE036
:108390001F4E477810F802CF0B3604E047781C4E8A
:1083A00010F802CF133686F800C010F801CF86F817
:1083B00001C010F801CF86F802C090F801C0801CFF
:1083C000384486F803C0001FCCE78678A661C778DA
:1083D00007EB0626A661077907EB06260A26A661A3
:1083E00013E086780E70C6784E7006798E704679E6
:1083F000CE709DF8146016709DF8156056709DF84B
:10840000166096709DF81760D670801DAAE7000070
:108410009400002044484350206D65737361676584
:10842000203A2025642E25642E25642E25642825D7
:1084300064292025642072656365697665642E2051
:108440000D0A00004E6F204D792044484350204DC6
:108450006573736167652E2054686973206D657359
:10846000736167652069732069676E6F7265642E3A
:108470000D0A0000416E6F746865722044484350D5
:108480002073657665722073656E64206120726565
:1084900073706F6E7365206D6573736167652E20F1
:1084A000546869732069732069676E6F7265642E02
:1084B0000D0A00002DE9F0410D46904604461221B8
:1084C000F7F7C8FE2846FFF74DFD2080A81CFFF7F0
:1084D00049FD02044FF0010100D5A170C0F3C32291
:1084E000E270420500D52171820500D56171C20597
:1084F00000D5A171020600D5E17100F00F002072D5
:10850000281DFFF72FFD6081A81DFFF72BFDA0811F
:1085100005F10800FFF726FDE08105F10A00FFF7ED
:1085200021FD0026208205F10C01771E06E0284679
:10853000FFF7E6FB010014D0761CB6B26089B042AA
:10854000F5D8002607E042462846FFF727FB010042
:1085500007D0761CB6B2A089B042F4D80020E189D9
:1085600004E03846BDE8F081401C80B28142FBD86F
:108570000020218A01E0401C80B28142FBD8207A91
:1085800008B10020EEE70120ECE70000F0B5074657
:108590000020054606464FF02E0C00BF11F8014B97
:1085A00005B9401C4FEA941EBEF1030F0AD105B96C
:1085B000401C097804F03F0407EB04242144012502
:1085C00011F8014BACB11B1B5B1E1BB2002B02DA76
:1085D0004FF0FF30F0BD2DB9204403E011F801EB5E
:1085E00002F801EB641EA4B2F8D202F801CB761CAB
:1085F000D4E70EB902F801CB00211170F0BD0A0AD0
:1086000000F8012B00F8011B704700002DE9FC5F0A
:1086100015468A460446082803D94FF0FF30BDE8C6
:10862000FC9F644800EB84108046FEF7BBF900F025
:108630000F00012802D06FF00400F0E77DB1204662
:10864000FFF796FC4FF6FF7101EA8026AE4200D29A
:108650003546DFF864B13BF8140018B133E06FF031
:108660000D00DCE75348083000EB84190120A040DE
:1086700001902046FFF78EFC86B24846FEF792F93D
:10868000C0B2172812D01C280AD1CEB92046FFF755
:10869000A3FC07462046FFF7B9FCB7EB802F05D1B6
:1086A0002046FFF74DF86FF00600B8E74349019800
:1086B0004988084202D01EB90020B0E7002ED8D069
:1086C0003BF8140020B14046FEF76CF9C0051AD5FE
:1086D0004FF0D04007884046FEF764F9C00510D43B
:1086E00002226946204601F0A7F9F80502D5BDF837
:1086F000006002E0BDF8000046BA30488021801DCD
:1087000001552BF814603BF81400A84200D205462E
:10871000DFF8A8902E4609F1060919F80400800731
:1087200011D509F108006E1E015D0AF8011B19F848
:108730000410B6B221F0020109F804103BF814103D
:10874000491E2BF8141096B132465146204601F0CE
:1087500073F918484021801C00EB84100746FEF78F
:1087600027F93846FEF71EF910F0FF0FF9D13BF854
:1087700014005F46801B0004000C2BF814004FF01F
:10878000000A0CD019F80410F20741F0010109F8B1
:10879000041006D041F0020109F8041001E009F8C4
:1087A00004A04046FEF7FEF8C00501D527F814A046
:1087B000284634E700020068540800201800002012
:1087C0002DE9FF4F85B00025DDF848A01F469146F2
:1087D0000446082803D9681E09B0BDE8F08F4FF0A1
:1087E000D04000880390A94800EB8410FEF7DAF827
:1087F000029000F00F00022806D0032804D00428BD
:1088000002D06FF00400E7E7B9F1000F05D0DFF800
:10881000808238F8140018B121E06FF00D00DBE71A
:108820009A48083000EB8416012000FA04FB204629
:10883000FFF7B0FB85B23046FEF7B4F810F0FF0F3B
:1088400006D0944949881BEA010F06D01DB106E005
:108850006FF00300C0E70020BEE7002DE7D00298CC
:10886000DFF830B200F0070188480BF1060B801CDE
:1088700000EB8416022929D0032969D0042968D085
:108880002946204601F0FCF828F8145030464021D3
:10889000FEF78EF83046FEF785F810F0FF0FF9D19D
:1088A00038F81410491B0904090C28F8141009D0D1
:1088B0001BF80410EA0741F001010BF8041003D083
:1088C00041F002010BF80410484685E738F814001F
:1088D000E8BB08226946204601F0AEF83046402148
:1088E000FEF766F83046FEF75DF810F0FF0FF9D19D
:1088F0000398C0051AD59DF8010038709DF8000056
:1089000078709DF80300B8709DF80200F8709DF82B
:108910000500AAF800009DF8041001EB0020AAF859
:1089200000009DF807009DF806101DE09DF800006E
:1089300038709DF8010078709DF80200B8709DF8BD
:108940000300F8709DF80400AAF8000002E012E0AD
:108950006DE037E09DF8051001EB0020AAF800005B
:108960009DF806009DF8071001EB002028F8140080
:1089700080200BF8040038F8145048464D4500D9C3
:1089800005461BF80410A9465846890714D54149E5
:10899000A9F101050E31ADB20A5D06990A7006997A
:1089A000491C069138F81410491E28F81410015D6E
:1089B00021F002010BF804102A462046069901F026
:1089C0003BF863E738F81400454678BB0222694655
:1089D000204601F031F830464021FDF7E9FF3046EE
:1089E000FDF7E0FF10F0FF0FF9D19DF800009DF8B2
:1089F00001106FF0010202EB0020084480B225F85C
:108A00001400C10701D0C01E00E0001F25F81400AB
:108A100080B240F2EA51884205D92046FEF790FE26
:108A20006FF47A70D8E680200BF8040003E038F881
:108A30001400454630B135F8145048464D45BBD971
:108A40000546B9E706226946204600F0F5FF3046A4
:108A50004021FDF7ADFF3046FDF7A4FF10F0FF0FFA
:108A6000F9D19DF8000038709DF8010078709DF8EC
:108A70000200B8709DF80300F8709DF804009DF89E
:108A8000051001EB002025F81400CCE70002006877
:108A90005408002018000020034800210A22C0E9E1
:108AA00007124170704700009400002070B50A4C16
:108AB000002240212046FAF762F94FF4FA75284661
:108AC000F9F73AFF012240212046FAF758F92846E3
:108AD000BDE87040F9F730BF000C02402DE9F05FAF
:108AE00014468B460646082803D94FF0FF30BDE8F0
:108AF000F09F464800EB8610FDF754FF00F00F0092
:108B0000012802D06FF00400F1E77CB13F48083043
:108B100000EB86108046FDF745FFC0B26FF0060AF5
:108B2000172806D01C2804D05046E0E76FF00D004F
:108B3000DDE7374F0125B540B888054210D03348EE
:108B4000801D00EB86108146FDF72CFFC0B2C106E8
:108B500021D548461021FDF72BFFB888A843B880DF
:108B60003046FFF753FA4FF6FF7101EA8020844246
:108B700000D90446B9463046FFF72EFA87B2404680
:108B8000FDF710FFC0B217280DD01C280BD03046BF
:108B9000FEF7D6FDC8E700070BD53046FEF7D0FD3F
:108BA0006FF00C00A3E7B9F80200054203D0BC4205
:108BB00001D900209BE7BC42DDD822465946304609
:108BC00000F06EFF11480021203000EB8610FDF709
:108BD000EFFE0E482146223000EB8610FDF7E8FE3E
:108BE0000A482021801C00EB86100646FDF7E0FEB7
:108BF0003046FDF7D7FE10F0FF0FF9D1B9F8041099
:108C000020460D43A9F8045071E7000000020068F7
:108C1000180000201CB5FFF7A3FA3E4800213D22B2
:108C2000C06B4FF49C738172C172352180F8F010D3
:108C3000012180F8F110042180F8F210072180F85A
:108C4000F32080F8F410012180F8F510314940310B
:108C50000A7880F8F6204A7880F8F7208A7880F839
:108C6000F820CA7880F8F9200A7980F8FA20497942
:108C700080F8FB10322180F8FC10042180F8FD10F0
:108C80002449C91D097880F8FE102249C91D497878
:108C900080F8FF101F49C91D897880F800111D490F
:108CA000C91DC97880F80111362180F8021104210C
:108CB00080F80311174930310A7880F804214A7886
:108CC00080F805218A7880F80621C97880F8071194
:108CD000FF2180F808111D2100224418491C84F846
:108CE000EC209942F9DBFF208DF804008DF8050097
:108CF0008DF806008DF8070007A0FDF7ADFE4320B4
:108D00000090044801AB4FF40972C16B807800F009
:108D10005FFA1CBD940000200D0A3E2053656E646E
:108D200020444843505F4445434C494E450D0A009A
:108D30002DE9FC41FFF714FA734800213522017038
:108D400041708170C170001D0126017041708170F9
:108D5000C17034386C4BC06B10331C4680F8F02067
:108D600080F8F16080F8F2603D2280F8F32007225D
:108D700080F8F42080F8F5601A7880F8F6201A461A
:108D80000625527880F8F720A47880F8F8401C4631
:108D90000C22E47880F8F9401C460F27247980F8EB
:108DA000FA401C4603F1060C647980F8FB4080F819
:108DB000FC2080F8FD10122208E000BF00EB020E3C
:108DC000521C491C8EF8EC4092B289B21CF801404A
:108DD000002CF3D1D8780009FCF7A8FA4A4C303CB3
:108DE000D4F83CC09444521C8CF8EC0092B2D87871
:108DF000FCF79CFAD4F83CC09444521C8CF8EC006C
:108E0000187992B20009FCF791FAD4F83CC0944466
:108E1000521C8CF8EC0092B21879FCF787FAD4F85F
:108E20003CC09444521C8CF8EC00587992B2000972
:108E3000FCF77CFAD4F83CC09444521C8CF8EC004B
:108E400092B25879FCF772FAE36B03EB020C521CF6
:108E50008CF8EC0092B2881D511A194481F8E50093
:108E6000E06B37218318521C83F8EC1091B2421842
:108E7000491C82F8EC5089B24218491C89B2431847
:108E800082F8EC600322491C83F8EC2089B2421876
:108E9000491C82F8EC5089B24218491C89B2431827
:108EA00082F8EC703A2283F8EC20491C89B243180E
:108EB0003B2283F8EC20491C89B24318FF22491C4D
:108EC00083F8EC2089B200234FF49C7504E0461827
:108ED000491C86F8EC3089B2A942F8D38DF80420F9
:108EE0008DF805208DF806208DF8072007A0FDF7E6
:108EF000B3FD4320009001AB4FF40972A078E16B01
:108F000000F066F9BDE8FC81C40000203E205365F6
:108F10006E6420444843505F444953434F56455282
:108F20000D0A00002DE9FC5FFFF71AF9DFF884C293
:108F3000FF270CF107029CF80000002502F129042C
:108F4000032841D004283FD08DF804708DF80570B7
:108F50008DF806708DF80770DCF83C00352101268D
:108F600080F8F01080F8F1604FF0030980F8F2907B
:108F70003D2180F8F3108F4B072180F8F410403327
:108F800080F8F560197880F8F61019464FF00C0A51
:108F9000497880F8F71019464FF00F0B897880F860
:108FA000F8101946C97880F8F9101946097980F83F
:108FB000FA101946497980F8FB109DF807801021B6
:108FC000B8F1FF0F19D03FE0DCF83C008572C572A4
:108FD000117801735178417391788173D178C1739D
:108FE00020788DF8040060788DF80500A0788DF861
:108FF0000600E0788DF80700AEE7322180F8FC101B
:10900000042180F8FD1092F8008080F8FE8092F82C
:10901000018080F8FF8092F8028080F80081D27889
:1090200080F80121362280F8022180F8031121788E
:1090300080F80411617880F80511A17880F8061194
:10904000E17880F807111C2152464418491C84F825
:10905000EC204218E24682F8EC50DFF858C10022BA
:109060000CF1460C491C06E000EB0108491C88F88D
:10907000EC4089B2521C1CF80240002CF4D1D87884
:109080000009FCF753F9DAF83CC054468C44491CFB
:109090008CF8EC0089B2D878FCF748F9D4F83CC0D9
:1090A0008C44491C8CF8EC00187989B20009FCF753
:1090B0003DF9D4F83CC08C44491C8CF8EC0089B2D2
:1090C0001879FCF733F9D4F83CC08C44491C8CF86F
:1090D000EC00587989B20009FCF728F9D4F83CC0B3
:1090E0008C44491C8CF8EC0089B25879FCF71EF9C5
:1090F000E36B03EB010C491C8CF8EC0089B2901D6A
:109100008A1A1A4482F8E500E06B37224318491C9A
:1091100083F8EC2089B243180822491C83F8EC201C
:1091200089B24218491C89B2431882F8EC60491C84
:1091300083F8EC9089B24318062283F8EC20491C8E
:1091400089B24318491C83F8ECB089B243183A221B
:1091500083F8EC20491C89B243183B2283F8EC20A9
:10916000491C89B243181F2283F8EC20491C89B29C
:1091700043182122491C83F8EC2089B24218491C6B
:1091800082F8EC7089B24FF49C7203E04318491CDA
:1091900083F8EC509142F9DB07A0FDF75DFC43201A
:1091A000009001AB4FF40972A078E16B00F010F869
:1091B000BDE8FC9F940000203E2053656E6420446F
:1091C0004843505F524551554553540D0A00000025
:1091D0002DE9F05F1F46DDF8289016468B460546C0
:1091E000082803D94FF0FF30BDE8F09F914800EB0D
:1091F00085108046FDF7D6FB00F00F00022806D050
:10920000032804D0042802D06FF00400ECE75EB11C
:109210003878797801EB0020B97801EB0020F978F3
:1092200011EB002403D00AE06FF00D00DCE74046AC
:10923000FDF7B8FB400702D46FF00B00D4E7B9F19B
:10924000000F07D14046FDF7ADFB400702D46FF099
:109250000A00C9E77748083000EB85108046FDF723
:10926000A1FBC0B2422806D0222804D0322802D066
:109270006FF00600B8E77878397800EB012081B20A
:109280006C48143000EB8510FDF792FBF878B97844
:1092900000EB012081B26748163000EB8510FDF726
:1092A00087FB64484946123000EB8510FDF780FBD0
:1092B0002846FEF7ABFE4FF6FF7101EA802086429A
:1092C00000D906460120DFF870A100FA05F928460A
:1092D000FEF782FE87B24046FDF764FB10F0FF0FF9
:1092E00008D0BAF8021019EA010F06D0BE4204D91C
:1092F000002079E76FF0030076E7BE42E7D83246F8
:109300005946284600F0CCFB4C4F3846FDF74AFB47
:10931000000A60F307043846FDF744FB60F30F24AE
:10932000BF1C3846FDF73EFB000A60F31744384681
:10933000FDF738FB60F31F64A7F10608A7F10409E5
:10934000ECB300243B480021203000EB8510FDF7F2
:109350002FFB38483146223000EB8510FDF728FB03
:1093600034482021801C00EB85100746FDF720FBC8
:109370003048801D00EB85153846FDF713FB10F0D3
:10938000FF0FF9D12846FDF70DFBC0B2C10637D556
:1093900028461021FDF70CFB7CB1C4F3072000EB3D
:1093A000042081B24046FDF703FB200E210C00EBA8
:1093B000012081B24846FDF7FBFA304614E7FFE78B
:1093C0004046FDF7EFFA000A60F307044046FDF758
:1093D000E9FA60F30F244F464846FDF7E3FA000A26
:1093E00060F317443846FDF7DDFA60F31F6400218F
:1093F0004046FDF7DDFA00213846FDF7D9FAA1E72E
:109400000007BFD528460821FDF7D2FA7CB1C4F386
:10941000072000EB042081B24046FDF7C9FA200E78
:10942000210C00EB012081B24846FDF7C1FA6FF034
:109430000C00D9E60002006818000020180000683F
:1094400070B500F0FE0404F1D044064628340D4601
:109450002046FDF7A7FAF10703D000F47F41294326
:1094600002E065F31F2001462046BDE87040FDF78D
:109470009FBA70B500F0FE0404F1D04406462034D3
:109480000D462046FDF78EFAF10703D000F47F4128
:10949000294302E065F31F2001462046BDE87040E5
:1094A000FDF786BAFEB52648244C264D8169216019
:1094B000808BA0806078217800EB012081B2284663
:1094C000FDF776FAE078A178AE1C00EB012081B2BE
:1094D0003046FDF76DFA607921792F1D00EB0120F0
:1094E00081B23846FDF764FA2846FDF75BFA144C62
:1094F000000A183420702846FDF754FA6070304690
:10950000FDF750FA000AA0703046FDF74BFAE07004
:109510003846FDF747FA000A20713846FDF742FA4F
:10952000C0B260712179E2780092CDE90110A37890
:109530006278217804A0FDF78FFAFEBD6408002050
:109540003000002008000068205735333030204DAF
:109550004143A3BA253032782E253032782E25307B
:1095600032782E253032782E253032782E25303242
:10957000780D0A002DE9F84F634D624C0122A8696D
:109580002060A88BA080D5F80300C4F80600D5F8A9
:109590000700C4F80A00D5F80B00C4F80E00D5F88F
:1095A0000F00C4F8120029460020FBF7C9FE2978F5
:1095B0000020FF2900D028702978A1B1012902D00C
:1095C000022910D10AE0514E687000BFF8F700F888
:1095D000307803287ED068780F28F7D30C22A11D9D
:1095E0000020FBF7ADFEE07AA17A494D00EB0120A7
:1095F00081B22846FDF7DCF9607B217BAE1C00EBD5
:10960000012081B23046FDF7D3F9E07BA17BA5F1C3
:10961000040A00EB012081B25046FDF7C9F9607CD5
:10962000217CA5F1020900EB012081B24846FDF73B
:10963000BFF9E079A17905F1040800EB012081B2BE
:109640004046FDF7B5F9607A217AAF1D00EB0120A5
:1096500081B23846FDF7ACF94046FDF7A3F92A4C34
:10966000000AE41C20704046FDF79CF96070384603
:10967000FDF798F9000AA0703846FDF793F9C0B2DB
:10968000E0700090A3786278217822A0FDF7E4F9D9
:109690002846FDF787F9241D000A20702846FDF7AB
:1096A00081F960703046FDF77DF9000AA070304600
:1096B000FDF778F9C0B2E0700090A3786278217865
:1096C0001BA0FDF7C9F95046FDF76CF9000A241DEF
:1096D000207000E014E05046FDF764F960704846E1
:1096E000FDF760F9000AA0704846FDF75BF9C0B2CB
:1096F000E0700090A378627821780DA0FDF7ACF9B6
:10970000BDE8F88F6408002030000020940000209D
:10971000140000680D0A205735333030204920509E
:1097200020A3BA25642E25642E25642E256400000E
:109730000D0A20573533303020A3BA25642E256416
:109740002E25642E256400002DE9F0471E46904624
:109750000F460446082803D94FF0FF30BDE8F087D4
:10976000012F08D0022F21D0032F1FD0042F1DD08E
:109770006FF00400F2E7DFF804914846FDF712F9B4
:10978000000A60F307054846FDF70CF960F30F2562
:1097900009F102094846FDF705F9000A60F317458B
:1097A0004846FDF7FFF860F31F654DB171076FF094
:1097B0000500D3D47EB1012F05D0022F0BD106E0D6
:1097C0006FF00200CAE716F0230FC7D003E0B1061E
:1097D00001D53106C2D52046FDF7B2FF06F0F000F4
:1097E000384306F0020140EAC111254800EB84101D
:1097F000FDF7DEF8234DB8F1000F0BD12888804625
:10980000401C80B2A0F57F412880F03902D14FF48E
:10981000404028801A4841460A3000EB8410FDF78A
:10982000C7F817480121801C00EB84100746FDF79C
:10983000BFF83846FDF7B6F810F0FF0FF9D1012058
:10984000A040698806F001028143A2400A436A8071
:10985000A9888143A9800C49002021F814000949F6
:10986000891D08550648083000EB84152846FDF789
:1098700099F810F0FF0FF9D060B26FE71800006898
:1098800000020068180000205408002070B5084D40
:10989000002405F10806295D2046FFF7EAFD315D49
:1098A0002046FFF7CDFD641CE4B2072CF3D370BD56
:1098B0004E0000200E484169491C4161B1F57A7F94
:1098C00014D34178142901D2491C4170002141610F
:1098D00008490A68521C0A608178491C8170064850
:1098E0000078012802D10549032008607047000074
:1098F00030000020B0000020F80000200801002007
:109900007EB500220A25B0FBF5F4009201926B4669
:1099100002920AE0B0FBF5F605FB160030309854D1
:109920002046B4FBF5F4521CD2B2002CF2D13030F8
:109930009854521CD0B2002207E0841A1C44521CD6
:1099400014F8014C01F8014BD2B28242F5D37EBD2E
:109950002DE9F047B2B08A4605469146C8216846CF
:10996000F6F778FC2846F6F7B4FC87B25046F6F7CF
:10997000B0FC1FFA80F84846F6F7ABFC86B200242C
:109980000CE0295D9AF80000814205D12819424671
:109990005146F6F7A5FC30B1641CA4B2BC42F0D32A
:1099A00032B0BDE8F087002004EB080201E0401C63
:1099B00080B21318591989782C2901D07D29F6D144
:1099C000B0424FF0000108D00AE000BF541819F867
:1099D00001302C44491CA37089B28142F6D3DFE7E1
:1099E0003F1BA7EB0804201AEC46801E06E05F1818
:1099F0002F44BF780CF80170491C89B28842F6DC0C
:109A0000002106E0531819F801002B44491C9870F6
:109A100089B2B142F6D30A440020611A03462A44AF
:109A2000891E02E0401C937080B28142FADC6146DC
:109A30002846F6F71AFCB3E72DE9F04107464FF048
:109A400000001600884604460CD00B4901EB871530
:109A500004E0E10708D008F80400641CB442F8D31D
:109A60000649C855BDE8F0812846FCF79BFF020A6D
:109A700008F80420F1E7000030020068260000200A
:109A800070B50E460549002401EB801503E0284619
:109A9000FCF788FFA41CB442F9D370BD3002006803
:109AA0002DE9F04116000F464FF000040CD0074995
:109AB00001EB801506E03819008841BA2846FCF70A
:109AC00077FFA41CB442F6D3BDE8F0812E020068F3
:109AD0000088704701807047704770477047704733
:109AE000000000000000000001020304060708094E
:109AF000000000000102030400000000000000005C
:109B00000000000000000404040404040004000039
:109B100000140A0A000000000000000000001414F5
:109B20003F140A3F0A0A000000041E1505060C1423
:109B3000150F0400000012150D0A142C2A12000043
:109B40000000040A0A1E1515093600000002020171
:109B500000000000000000000020100808080808AD
:109B60000810200000020408080808080804020081
:109B700000000004150E0E1504000000000004048F
:109B8000041F0404040000000000000000000000A6
:109B90000002020100000000001F000000000000A1
:109BA0000000000000000000000200000010080893
:109BB000080404020202010000000E11111111112B
:109BC000110E00000000040604040404040E00004A
:109BD00000000E1111080402011F000000000E1108
:109BE000100C1010110E00000000080C0A0A091ECB
:109BF0000818000000001F01010F1010110E0000D6
:109C000000000E09010F1111110E000000001F09C4
:109C1000080404040404000000000E11110E1111C8
:109C2000110E000000000E1111111E10120E000086
:109C3000000000000400000000040000000000001C
:109C400000040000000404000020100804020408BE
:109C500010200000000000001F00001F0000000096
:109C600000020408102010080402000000000E1179
:109C7000110804040004000000000E111915151D40
:109C8000011E0000000004040C0A0A1E123300002A
:109C900000000F12120E1212120F000000001E110F
:109CA00001010101110E000000000F121212121228
:109CB000120F000000001F120A0E0A02121F0000FD
:109CC00000001F120A0E0A020207000000001C1208
:109CD00001013911120C000000003312121E121281
:109CE0001233000000001F0404040404041F0000D9
:109CF00000003E080808080808090700000037129D
:109D00000A060A0A123700000000070202020202D5
:109D1000223F000000001B1B1B1B15151515000022
:109D200000003B1216161A1A1217000000000E113E
:109D300011111111110E000000000F12120E02027B
:109D40000207000000000E1111111117190E180062
:109D500000000F12120E0A121237000000001E112E
:109D600001060810110F000000001F150404040470
:109D7000040E00000000331212121212120C000026
:109D800000003312120A0A0C04040000000015152A
:109D9000150E0A0A0A0A000000001B0A0A04040A37
:109DA0000A1B000000001B0A0A040404040E000041
:109DB00000001F0908040402121F0000001C040414
:109DC0000404040404041C00000202020404080841
:109DD00008100000000E08080808080808080E000F
:109DE00000040A0000000000000000000000000065
:109DF000000000000000003F000400000000000020
:109E00000000000000000000000C121C123C0000CA
:109E100000000302020E1212120E000000000000E9
:109E2000001C1202021C000000001810101C12126C
:109E3000123C000000000000000C121E021C00007A
:109E400000003804041E0404041E0000000000008A
:109E5000003C120C021E221C00000302020E121211
:109E6000123700000000040000060404040E000085
:109E700000000800000C080808080807000003029A
:109E8000023A0A0E1237000000000704040404041A
:109E9000041F000000000000000F1515151500003C
:109EA00000000000000F1212123700000000000036
:109EB000000C1212120C000000000000000F121221
:109EC000120E020700000000001C1212121C1038B3
:109ED00000000000001B0602020700000000000056
:109EE000001E020C101E000000000004040E0404FA
:109EF0000418000000000000001B1212123C0000B9
:109F0000000000000037120A0C04000000000000EE
:109F10000015150E0A0A000000000000001B0A04CC
:109F20000A1B0000000000000037120A0C040403A2
:109F300000000000001E0804041E000000180808AD
:109F4000080408080808180008080808080808088D
:109F500008080808000604040408040404040600B1
:109F600002251800000000000000000000000000B2
:109F700000000000000000000000000000000008D9
:109F800008080808080800001818000000486C2499
:109F9000120000000000000000000000000000248B
:109FA00024247F1212127F12121200000000081CDB
:109FB0002A2A0A0C1828282A2A1C0808000000222D
:109FC000251515152A585454542200000000000C81
:109FD0001212120A76252911916E0000000606045D
:109FE00003000000000000000000000000402010FE
:109FF0001008080808080810102040000002040893
:10A0000008101010101010080804020000000000D2
:10A0100008086B1C1C6B0808000000000000000012
:10A02000080808087F080808080000000000000071
:10A03000000000000000000006060403000000000D
:10A0400000000000FE000000000000000000000012
:10A050000000000000000000060600000000804034
:10A06000402020101008080404020200000000181C
:10A0700024424242424242422418000000000008AA
:10A080000E08080808080808083E00000000003C08
:10A090004242422020100804427E00000000003CA2
:10A0A0004242201820404042221C000000000020B4
:10A0B0003028242422227E20207800000000007E08
:10A0C0000202021A26404042221C00000000003812
:10A0D0002402021A26424242241800000000007E98
:10A0E0002222101008080808080800000000003CA0
:10A0F0004242422418244242423C00000000001820
:10A100002442424264584040241C000000000000E9
:10A1100000001818000000001818000000000000DF
:10A1200000000008000000000008080400000040D3
:10A130002010080402040810204000000000000065
:10A1400000007F0000007F0000000000000000020F
:10A150000408102040201008040200000000003C09
:10A160004242464020101000181800000000001C59
:10A17000225A555555552D42221C0000000000085A
:10A1800008181414243C224242E700000000001F7B
:10A190002222221E22424242221F00000000007C96
:10A1A0004242010101010142221C00000000001F87
:10A1B0002242424242424242221F00000000003F2F
:10A1C0004212121E12120242423F00000000003FE3
:10A1D0004212121E12120202020700000000003C8E
:10A1E0002222010101712122221C0000000000E74F
:10A1F000424242427E42424242E700000000003EAC
:10A200000808080808080808083E00000000007C4C
:10A2100010101010101010101010110F0000007707
:10A2200022120A0E0A1212222277000000000007F2
:10A230000202020202020202427F000000000077D6
:10A24000363636362A2A2A2A2A6B0000000000E316
:10A2500046464A4A52525262624700000000001CC1
:10A260002241414141414141221C00000000003F88
:10A27000424242423E020202020700000000001C6D
:10A280002241414141414D53321C60000000003FDA
:10A290004242423E1212222242C700000000007CCD
:10A2A0004242020418204042423E00000000007F6B
:10A2B0004908080808080808081C0000000000E712
:10A2C0004242424242424242423C0000000000E719
:10A2D0004242222424141418080800000000006BD5
:10A2E000494949495555362222220000000000E71D
:10A2F000422424181818242442E7000000000077A4
:10A300002222141408080808081C00000000007E1F
:10A310002120101008040442423F00000078080881
:10A320000808080808080808080878000000020261
:10A33000040408080810102020204040001E1010BF
:10A34000101010101010101010101E0000384400D3
:10A3500000000000000000000000000000000000FD
:10A360000000000000000000000000FF00060800E0
:10A3700000000000000000000000000000000000DD
:10A380000000003C4278444242FC00000000000310
:10A390000202021A26424242261A00000000000071
:10A3A000000000384402020244380000000000604F
:10A3B000404040784442424264D80000000000001F
:10A3C0000000003C427E0202423C0000000000F01F
:10A3D0008808087E08080808083E00000000000001
:10A3E0000000007C22221C023C42423C0000000390
:10A3F0000202023A4642424242E700000000000CDC
:10A400000C00000E08080808083E0000000000309C
:10A4100030000038202020202020221E00000003D1
:10A4200002020272120A1612227700000000000EC9
:10A430000808080808080808083E00000000000096
:10A440000000007F9292929292B7000000000000FC
:10A450000000003B4642424242E70000000000008C
:10A460000000003C42424242423C0000000000002A
:10A470000000001B26424242221E0207000000008C
:10A480000000007844424242447840E0000000006E
:10A49000000000774C040404041F000000000000CA
:10A4A0000000007C42023C40423E000000000000F0
:10A4B0000008083E080808080830000000000000F6
:10A4C000000000634242424262DC000000000000E3
:10A4D000000000E7422424140808000000000000E7
:10A4E000000000EB49495555222200000000000001
:10A4F0000000007624181818246E000000000000E8
:10A50000000000E742242414180808070000000097
:10A510000000007E22100808447E000000C02020B9
:10A5200020202010202020202020C00010101010FB
:10A530001010101010101010101010100006080845
:10A540000808081008080808080806000C32C200AD
:10A55000000000000000000000000000C9EE000044
:10A5600027FC140414A4811042084040104017FC3A
:10A570002040E0E0215022482C4620400040DBDA19
:10A5800011041124112411241124FD241124112457
:10A590001124112411241D24E12442240204040462
:10A5A000CAD00200010000007FFC01000100010090
:10A5B0003FF8210821082108210821282110010045
:10A5C0000100C8AB00000000018002400430180800
:10A5D00060061FF90100010001003FF801000100C1
:10A5E00001007FFEB6AF0000000000203E20007C8E
:10A5F000002200227F221022102212221222224246
:10A6000023423D82009CB5E70000010001001FF0DD
:10A61000610C410441047FFC4104410441047FFC7E
:10A6200001000102010201FCD7D3000000003FF845
:10A63000001000600080010000807FFE00400040AC
:10A6400000200020002018400780BCBC10201020F3
:10A65000102013FEFC201020102015FC18843088D8
:10A66000D04810501020105051882606CAF501001D
:10A670000120011001107FFC0380054005400920E6
:10A680001110210841048102010001000100D3D012
:10A6900002000200FFFE040004000FF00810181072
:10A6A0002FF0481088100FF00810081008500820EC
:10A6B000CFDE00007BF84A08520853F862085208BF
:10A6C0004BF84A444A486A305220421042884306B6
:10A6D0004200B9AB0080048004800840084010208C
:10A6E00020104208820604000440082010203FF099
:10A6F00010100000CBBE00003FF8000800087FE803
:10A70000000800081F8810881088108810881F888B
:10A71000108800280010BBB600800080FC8004FC7C
:10A72000050449082A401440104028A024A04510E0
:10A730008110020804040802D3AD00002080133CFD
:10A74000122402240224F2241224122412B4132804
:10A7500012201020282047FE0000C4FA090009003A
:10A7600011FC3204544899501148124414441140C9
:10A77000108002005104511290120FF0B4BF00007B
:10A780000020102013FE202026244A247A2412249C
:10A79000222423FC7C20002204227822003CC9AB26
:10A7A0000000000004000FF0102020207FFC208417
:10A7B0002084208420843FF82000200220021FFEF5
:10A7C000CCEE00000000204023FE204079FC220453
:10A7D00023FC220423FC220423FC3A0465FA01989A
:10A7E0000204B3E40000010001007FFE0220041017
:10A7F000040808043FFC04420440044004420842A8
:10A800001042607EBED800000000207E3E8048805E
:10A81000488048FE48827F8208820C8214FA1284A3
:10A820002280218040FED0CE000000007F842208DC
:10A83000223022C0220222047FC8223022C22202F9
:10A840002204220822304040BBAD000000007FFE01
:10A8500000000FF011101110111051125FF251127F
:10A86000511251124FF240027FFCD4B2000000009E
:10A870007FFE47E24812481247E24FF25012501250
:10A880005112511242924472580A3FFCCDBC000052
:10A8900000003FFE440247F24C2253624082436272
:10A8A0005E1A41824062430240C240223FFCC6AC75
:10A8B000000000402040204020403FFE20002000BB
:10A8C00020003FE0201020102010201040104010E9
:10A8D000CFD4000000003FFC200420043FFC2004F3
:10A8E00020041FF824441448144814480C50044011
:10A8F0007FFECABE000000003FFC00000000000018
:10A900007FFE0080089008881088108420842082B0
:10A9100040820780B2CB0000002008207FFE00208C
:10A9200000783F881108089009207FFE01800340CD
:10A930000D30310C4002B5A50000001008100420B5
:10A940003FF8210421043FFC210421043FF80100C9
:10A950007FFE010001000100D6D0000001000100CF
:10A9600001003FFC210421042104210421042104CD
:10A970003FFC0100010001000100D3A20000000023
:10A9800008207FFE0820092001003FF82108210847
:10A9900021081FF4014002200C10700ECEC40000EC
:10A9A0000100010000803F7C081008100410042002
:10A9B000022002400180018002601C18E006D7DB03
:10A9C00000000000102011FE2202220249FC580063
:10A9D000300013FE2528792401240D24722202A2BE
:10A9E000BACF000000000180024004301808600661
:10A9F0001FF800001FF82004200420042004200475
:10AA00001FF8C1C10000010001007FFE00003FF8F7
:10AA100020083FF83FF8400647C248240820082293
:10AA20001022603EB6C80000000000803FFE4410C7
:10AA30005FFC4410441043F040005FF8440842308B
:10AA400041C04360BC1EB2E20000000067C2145265
:10AA500005520552C552255205520552155217523C
:10AA6000228222424442483ECAD400000000201400
:10AA7000101417FE00120010601013F010901090C8
:10AA80001090149214EA1F0A0006B3CC00000000D4
:10AA900019FE7202120212027DFC18001BFE342005
:10AAA000502053FE10201020102013FED0F2000082
:10AAB000000000803FFE400047FC4208413040C09B
:10AAC0005FFE404240424044404840404440B5F769
:10AAD0000000000023FE122202FA0222E22212FEED
:10AAE0001272128A128A128A16BA1A421202040EBC
:10AAF000B9E2000001000104110809080910092049
:10AB00007FFE0440044004400440084208421042D2
:10AB1000607CB0E60000000048FE490049004900A2
:10AB20007EFE418241447944452845284510452808
:10AB300046440382C8A800001000100013FC7D04E6
:10AB400011041904188434885048505010201050B3
:10AB5000108813041402CBF9000000003F7C204051
:10AB600020403E40227E2244224422443E842084CF
:10AB70002084408441044204C6C100003FF82008FC
:10AB800020083FF8241022202FF8222022203FFC0A
:10AB900022204220442084200820C4BB04407FFCA3
:10ABA00004401FF010101FF010101FF00400FFFEF3
:10ABB00011103FF8D116115011200100D0FD208056
:10ABC000108010FE0100FE0021FC20243C2424A063
:10ABD00024A024BC24A024A04560553E8A00D7AA06
:10ABE000202020202020FDFC4020504093FEFC40EF
:10ABF000108011FC1C04F088505010201010101010
:10AC0000BFAA00007FFC0820082008200820082098
:10AC1000FFFE0820082008200820102010202020F7
:10AC20004020D4B4000027FE1420144085FC4504C5
:10AC300045FC150415FC2524E42024A829242A22F7
:10AC400030A00040D2BA0080204017FE11208120A1
:10AC5000423C4244166412942348E24822302220A7
:10AC6000225022880306BEA70FE0082008200FE02C
:10AC7000082008200FE000007EFC428442847EFC15
:10AC8000428442847EFC4284CDF800007FFC400474
:10AC90004004421452944A54442444244A544A548A
:10ACA00052946104400440144008D5BE102008208E
:10ACB00008207E20003E04204420442025FC290456
:10ACC00029040F04F104410401FC0104B0B4104054
:10ACD0001020102013FEFA02144410401BFE30888E
:10ACE000D088110810D01020105050882304BCFCCC
:10ACF000201020103B7C211441FE7A14A27C2710E6
:10AD0000F97C251025FE22102A10350028FE0000AF
:10AD1000D0A310401020102011FEFC001088310438
:10AD20003A025488508890501050102010501088CB
:10AD30001306D7BC01404120212023FE022016200B
:10AD40001BFC1220222023FCE2202220222023FEB2
:10AD500022000200B4A520202020782049FC912464
:10AD60007D24552455247DFC552454207C285424CE
:10AD700057FE45028C00C3FE1110111017FC111074
:10AD8000FC0013F8120817F81A0833F8D04017FC23
:10AD900010A0111052082406C9EE000000000000A7
:10ADA0001000000800080C7FFC04401001C8A0023D
:10ADB000186042301832231812C300140300040331
:10ADC0000C047FF0080F80080B40781360183320C4
:10ADD00018631818831C19030818030000030000E7
:10ADE0000000DBDA00000000000004100C04180C66
:10ADF00004108C04108C04108C04108C04D08C3F34
:10AE0000108C04108C04108C04108C04108C041012
:10AE10008C04108C05F08C0E208C78208C20408CBB
:10AE200000808C01000C02000C000000CAD0000061
:10AE30000000000000300000180000180800001C8E
:10AE40001FFFE000180000182007FFF0041820047E
:10AE500018200418200418200418200418200418AE
:10AE6000200418200418200418E0041840001800DA
:10AE7000001800000000D6D0000000000000000014
:10AE80000000000000180000180000180000180062
:10AE90003FFFFE301806301806301806301806300E
:10AEA00018063FFFFE3018060018000018000018B2
:10AEB0000000180000180000000000000000000062
:10AEC000CEC4000000000000000000003800001C9C
:10AED00000000600FFFFFF060030060030030060A0
:10AEE0000300600180C000C18000E3000036000064
:10AEF0001C0000770003C1E01E003C60000700005A
:10AF000000000000000000000000B2E200000000AD
:10AF1000000000000000000040000321FF333983DF
:10AF200033118333019B33C19B33719B33199B33A3
:10AF3000019B33019B33119B3319B33330303330D2
:10AF40006C0330C6036383032E01BE0000000000C3
:10AF500000000000CAD40000000000000000000053
:10AF600000004000D83000CE1800C21C00C001FF15
:10AF7000FF0000C0F800C01800C019FFC01818403A
:10AF80001818601918601B18611E18311C1FB13980
:10AF9000F01910000F000000000000000000D7D6DC
:10AFA0000000000000060000000300000000C000D8
:10AFB0000001C0C0000107C00001FF00021FFE0029
:10AFC00007F01C0007C070000F00E0000E03F00047
:10AFD0001C0FF0003C0F70003C00E0001800C000A7
:10AFE0000000C0000000C000000060000000200061
:10AFF000000037000001FF00007FF80007F8300074
:10B000001F8030000080300000C030000060600011
:10B010000018E000000FC000000600000000000063
:10B02000CCE50000000000000000000000C00000AF
:10B0300000E0002001B800703FF80061FFC000C3CD
:10B04000030001C60600038C060003080C00060876
:10B050000C000E18183F1E101BF31F903F070080B6
:10B060003C1C0190707C019060FE01A0C3F801A01F
:10B070000FD803A00818036000180340001803C08D
:10B0800000180380001803000018000000180000DA
:10B090000010000000300000003000000000000040
:10B0A0000000B2E20000000000000000000000000C
:10B0B00000000000020C1008071FF80403BFF00294
:10B0C00001BC300303EC3003015C600300D8600373
:10B0D00000D860038098620361B8430771B14306EA
:10B0E000313243063376C3063A64C7063EECC006E7
:10B0F0003E78C0063C3040067C70000678E0600672
:10B100007BFFF006F7C00006E400000640000006E2
:10B11000000000060000007C00008FF000007C00B2
:10B1200000000000CAD40000000000000000000081
:10B13000000000003F0000007F8000000180000050
:10B1400000C0000000C0000000CE038000CFFFC0A0
:10B1500000DD41800FFE0007FFFC000C00F000182E
:10B160000FC03E19FF40F311BC6083307FE003B194
:10B17000FE20033380200370003003600010036062
:10B18000001807C0000C07C000040780000201007F
:10B1900000030000000100000000000000000000AB
:10B1A000000000000000004040404040404040405F
:10B1B000414141414140404040404040404040408A
:10B1C00040404040404040050202020202020202AA
:10B1D0000202020202020220202020202020202041
:10B1E00020020202020202029090909090901010B1
:10B1F000101010101010101010101010101010104F
:10B2000010100202020202028888888888880808D2
:10B2100008080808080808080808080808080808AE
:10B220000808020202024000A7B100086235366633
:10B23000376265666332343932356465663937643E
:10B2400065656666353462346364316362306362B7
:10B250003663303439353238666533386662396280
:10B2600034653337363634623263373200000000DB
:10B270006878727A7942457A524A7A2E4D515454FE
:10B28000317C7365637572656D6F64653D322C73D7
:10B2900069676E6D6574686F643D686D616373683E
:10B2A000613235362C74696D657374616D703D3132
:10B2B0003639313634363332373138327C0000009B
:10B2C0002F7379732F6878727A7942457A524A7A65
:10B2D0002F4D515454312F7468696E672F73657206
:10B2E000766963652F70726F70657274792F7365FC
:10B2F000740000002F7379732F6878727A79424551
:10B300007A524A7A2F4D515454312F7468696E67BE
:10B310002F6576656E742F70726F70657274792FF9
:10B32000706F73740000000048B300080000002034
:10B33000C8060000460B000878B40008C8060020C4
:10B34000701E0000D86B000881320182102324F4A3
:10B350000219C02808C0A87CCBFFFFFF081B0172A0
:10B360000161DF08DC22335508017BC422605701EC
:10B37000573533303013D99A1B08DB041ADF041A0F
:10B38000DD041AD1041AD5040120197542FF320ACE
:10B390001355791408397B0C1608ED7A38071C57B9
:10B3A000495A6E65742B5B07E51D6A0FE519A0719C
:10B3B0000B20F4B28801FF01FF013613C0B202FF77
:10B3C0000801FF015628157B226964223A22313296
:10B3D00033222C2276657273696F6E101B2E30102B
:10B3E0003816737973223A7B2261636B223A307D7F
:10B3F0002C22706172616D13181E74656D70657218
:10B400006174757265223A32322C2248756D696416
:10B41000697479223A3334398C6F696C12181D358E
:10B42000362C22416C61726D537769746368223ADD
:10B43000312C224C696768744C75780D2B31345C63
:10B440002E6D6574686F8B18107468696E672E6551
:10B4500076656E742E70726F67000A1D74792E7097
:10B460006F7374227D25FFFFD09013B55D1408C162
:08B470006014087158022C0859
:040000050800018965
:00000001FF
